:020000040000FA
:100000000044002005FC000001C9011001C90110D5
:1000100001C9011001C9011001C9011001C9011074
:1000200001C9011001C9011001C9011001C9011064
:1000300001C9011001C901103FC9011000000000F1
:1000400000000000000000000000000000000000B0
:1000500000000000000000000000000000000000A0
:100060000000000000000000000000000000000090
:100070000000000000000000000000000000000080
:10100000B41200001810000015AB0110FDB3011060
:101010006DC00110FDAE011099B501100000000077
:10102000000000002D000000B01200003C10000085
:10103000B1C00110A9BF011067C0011069B801104B
:10104000000000000000000030000000B0120000AE
:1010500060100000BDC00110CDB30110D9BD01105A
:101060006DB301100000000000000000310000001E
:1010700000000000DC070020040000000000000069
:101080000000000020000000F0F40000300000002C
:1010900028100000FC0700200400000000000000F1
:1010A000000000000C00000044FB000018000000DD
:1010B0004C100000040800200400000000000000A4
:1010C00000000000240000005CFB0000180000008D
:1010D00000000000440800200400000000000000A0
:1010E0000000000010000000C0F500002C0000000F
:1010F0000010000060080020040000000000000054
:10110000000000002000000020F800002400000083
:10111000FFFFFFFF6808002004000000000000003F
:10112000000000002800000044F800002400000037
:10113000FFFFFFFF900800200400000000000000F7
:10114000000000001400000074FB00001800000004
:10115000FFFFFFFF980800200400000000000000CF
:10116000000000005800000034F3000034000000CC
:10117000FFFFFFFFA00800200400000000000000A7
:1011800000000000100000008CFB000018000000B0
:10119000FFFFFFFFA808002004000000000000007F
:1011A000000000001C00000068F80000240000009F
:1011B000FFFFFFFFB0080020040000000000000057
:1011C00000000000380000000CF7000028000000BC
:1011D000FFFFFFFF180900200400000000000000CE
:1011E0000000000054000000BCF000003C000000C3
:1011F0000100000064FD00000100000000000E007E
:1012000000000F003200000001000000E407002091
:10121000000200000000000001C9011000000000F1
:101220000000000008000000000022000C08002060
:10123000000000000000000008000000700800200E
:101240000000000000000000080000000000000096
:10125000000000000000000000000000010000008D
:10126000B80800200600000001000000200900204E
:10127000000000000000000000020000000000006C
:10128000290001002500300031002D00010001007F
:10129000040000006CFC00000000000000000000E2
:1012A000000001000000030013C40110B1BC0000E5
:1012B000B8120000B812000000000000540800201E
:1012C00051BB0000200000001CFC000034F70000AF
:1012D00029C10110D75800008F720000A1C701106A
:1012E000A3C7011000000000368E0000A4EE00002D
:1012F000BCEE00008CEE00000200090001000000BE
:1013000001000000D9F60000ADF6000051FA00001F
:10131000A1F30000BFF40000D5EE0000A1EA000038
:10132000BDFB0000C9BA0000E9BC0000EDBC000034
:1013300038B5054601F0F7F92C680CB12168296031
:1013400001F001FA204632BDF8B506460F46346872
:1013500000201546386034B901F0E5F9376095B1E1
:10136000012129700FE005B1287001F0DCF900E0DF
:10137000246821680029FBD1BC4203D101F0E3F9C4
:101380000020F2BD276001F0DEF90120F2BD70B54A
:10139000002306462824DFF8740A5C43204400F149
:1013A0002404B4F90050B54204D10D0006D0E4780D
:1013B0000C4203D15B1C082BECD3002070BD10B590
:1013C000044601F04FFA2046BDE8104001F04CBA47
:1013D00038B504460D4600F0C7FFA04231BF241ABD
:1013E000641E241A641CA40805F57A70A04238BF54
:1013F000B4F1405F05D2641B012C98BF0124204644
:1014000032BD002032BD70B50446DFF8040A006A20
:101410000025D8B18268117B012501F00F01022956
:1014200013D1C068DFF8EC39C16893F83F60192028
:1014300000FB06119068FFF7CBFFDFF8DC19206096
:101440000A68B0FBF2F2226001E00020206028462A
:1014500070BD30B5039C049D01600474C56042609A
:10146000836030BDF0B583B0044601F05CF90546F9
:101470008CB3DFF8A829607C13680121DF0701FA2B
:1014800000F60FD5DFF898295368113001FA00F003
:1014900023EA000050601068637C113301FA03F303
:1014A000984310600020DFF8947BA074002394F927
:1014B00011003A88814011433980002001900021B9
:1014C000009100222046FFF7C4FFF878411EF97012
:1014D000F0B200F0CDF82846BDE8FE4001F033B987
:1014E000032805DA1421DFF82C29484310447047FB
:1014F000002070472DE9F04106464FF0FF300027ED
:1015000030600025DFF81049DFF80889E8B2FFF7FE
:10151000E7FF00281CBF817C002917D0017C012730
:10152000022919D0DFF8E8288068516B98F83F202D
:10153000C968192303FB0211FFF74AFF2168B0FBBA
:10154000F1F03168884288BF084630606D1C032D79
:10155000DCD33846BDE8F08100203060F9E738B5CB
:1015600004281BD1DFF8A84804F1E805284601F05B
:101570006FF998B1284601F069F9DFF89C180A68FC
:101580005043B0F5967F09D2284601F06FF9052047
:1015900001F09EFA0120A07700F0E5F8002032BDAE
:1015A00038B5002001F0B3FDDFF864480FF2A54123
:1015B000002204F17C0001F0BCF800F038FB9047F9
:1015C0000246A06B904231BF121A521E121A521CD0
:1015D000E06B1218E07D120BE26300281CBFA17DB6
:1015E000012903D0206CC00290422BD20020A075AC
:1015F0000121E175DFF8A00B01680A0622D540F64B
:10160000090020800021607B616000F0D6FB6073E0
:10161000207B00F0F000207301F085F8DFF87C1BE0
:101620004A6922F002024A616FF002020A610C600C
:101630000B699D07FCD50A614A6942F002024A61C2
:1016400001F081F80020A06301F034FDDFF8481CB0
:101650000020086031BD10B5044601F064F8DFF8E1
:10166000B0170A7D14430C75BDE8104001F06BB84B
:1016700070B582B0064601F056F8DFF8945704467C
:10168000287D38B3297D21EA06062E75287D0107BD
:1016900020D4287D01061DD4287DD8B1DFF8741729
:1016A00091F83E00B0B96846FFF724FF00281CBF40
:1016B000009800280ED00026F0B2FFF711FF20B1ED
:1016C000817C022904BF01228274761C032EF3D38D
:1016D00000202875287D10B9082100F077F92046F0
:1016E00001F031F873BD30B583B0054601A8FFF7AE
:1016F0008AFE04466846FFF7FDFE3CB100280199CA
:1017000008D0009A914205D9114603E0002814BF81
:10171000009900212960204318BF01203EBD38B543
:10172000DFF8EC46617E19B1192001F000F831BDF7
:10173000A17EB9B900F0F7FF05466846FFF7D3FF71
:1017400070B1E07E10B10121217609E0009828B146
:10175000014604F1E800FFF732FE01E000F003F873
:1017600000F08CF831BD042104F1480001F062BDA5
:10177000F8B5DFF89C66DFF8240B746A01F0F5FC1D
:101780000546DFF8D40B0268076802F020022A4001
:1017900018BF002C07F460270BD0B462D4E906010F
:1017A0001143C4E906014FF4005106F1480001F06D
:1017B00041FD3D400ED0DFF85C0690F83E1041EA56
:1017C000554580F83E5006F19800BDE8F4400021F0
:1017D00001F030BDF1BD2DE9F84300F0A4FFDFF8C2
:1017E0003486054698F83E00002448B1002098F859
:1017F0003E1001228240114210D1401C0328F6D332
:1018000000F03CF898F83E0030B1BDE8F443002108
:10181000DFF89C0B01F00EBDBDE8F18398F83E1097
:1018200010228240114218BF012498F83E10112264
:101830008240914388F83E10C0B2FFF751FE002865
:10184000DED00168477C466889460CB18E6905E0A8
:10185000017C022902D1C268D1040AD4FFF702FE3A
:101860003CB100224FF000736FF0FE014846B047D4
:10187000C6E700224FF000633946F7E7284600F03C
:1018800062BF2DE9F843DFF88855DFF810696C6A0C
:1018900001F000FC07466CB3D4E90401BA071AD57D
:1018A00000226A6240F00203226A1F401743276247
:1018B000D4E906233A43C4E906237269824372617C
:1018C00005F12C00F2688A43F26021460022FFF7FE
:1018D0003BFD02210CE007400CD0AC62206A0743BC
:1018E0002762D4E906013843C4E906014FF4804178
:1018F00000F06CF84FF00008DFF818754FF00109A0
:101900005FFA88F0FFF7ECFD04002DD0A07C0128E1
:101910002AD1B168607C113009FA00F08143B160CE
:10192000F068617C113109FA01F10843F06094F923
:10193000110009FA00F0C0B2FFF78DFEE068002147
:1019400000F07EFC812802D10220A0740CE097F800
:101950003E00112162569140084387F83E00002165
:1019600005F1980001F066FC08F10108B8F1020FDA
:10197000C6D92C6A686A30BB1CB36846FFF743FDC2
:1019800000281CBF0098002803D00820FFF770FE35
:1019900019E00820FFF75FFED4E9040172690243F1
:1019A00072610020F2680A43F260F061A068306062
:1019B000F0690028FCD005F12000FFF7B9FC68624F
:1019C00001E000F002F8BDE8F183022105F14800D2
:1019D00001F030BC08204BE62DE9F042074689466D
:1019E0003E6E14461D4606B1B047D7E916010440C5
:1019F0000D400020854208BF844216D08021484611
:101A0000FFF7C5FCC7E91A4538B1D0E90623A24360
:101A1000AB43C0E90623396E41600020386607F108
:101A20003800BDE8F04201F064BCBDE8F08200007F
:101A3000704780B501F0FCFBDFF8D4230146506B02
:101A4000526CBDE8084010470421DFF8700B01F02C
:101A5000F1BB000080B501F01DFBDFF8641B0842FC
:101A600004D0BDE804404FF00051EEE701BD70B571
:101A7000DFF89C53EC6A002C52D0A168202000298A
:101A80001CBFC2B2002A51D00A8840F603039A4212
:101A90001FBF40F604039A424968401EEFD140E060
:101AA00000224FF08043B4F92410E0686668B04724
:101AB00000F039FE0646688E401CC0F30B006886B5
:101AC0000020E96A81F8270005F12C00FFF730FCBF
:101AD000304600F038FEB5F93200E26802F19401B8
:101AE000B1F9003098421BD1887808B9106828B93C
:101AF000002088700820BDE87040B9E5696B0B686C
:101B000013F1010F0CD0C44C2168BDE87040B0FB4C
:101B1000F1F1012998BF012102F17000FFF74FBCDC
:101B200070BDE0681822203001F014FC226A002009
:101B3000206260680028BBD094F82700002300F0E2
:101B40000700012842F0020207D00228A8D004288A
:101B500004BF00224FF08053A5E700224FF000534E
:101B6000A1E738B50D46A807A94C18D5FFF77FFFA8
:101B7000E06A25F0020510B145F0020109E06807AE
:101B800002D4206A002851D004F1E80000F06EFE73
:101B9000042104F14800BDE8344001F04BBB680764
:101BA00044D50120E077042000F092FF00F03FF8D8
:101BB0009047A063206A08B1C0686063606B4168A9
:101BC000DFF8540A0A780260022000F081FF112039
:101BD00000F093FF0120A076606B017C002919BF03
:101BE000E07D00280E2000F088FF606BDFF8AC2558
:101BF00040688168002904BFC068002804D0002123
:101C0000D161DFF8180A106040F2FF70DFF8881623
:101C1000086000219161DFF8A80950610FF21900F6
:101C200060641920BDE8324000F07FBD31BDDFF8AF
:101C3000F80901680A6B70472DE9FF4104468800E6
:101C400040F18F80724D686B4068406800B18047FA
:101C5000686BDFF8486542689068002804BFD16867
:101C600000290DD000F0A3F8906800B18047686BA0
:101C70004068C06800B18047DFF8A40901F00DFAA0
:101C80000020F06140F60A08DFF898093060012072
:101C900001F03DFA0FF28D10686400210020688089
:101CA000A5F800806960287B00F0F0002873687B4D
:101CB00000F083F86873A26817467980E97D09B15E
:101CC000607CA0B1108840F60201884218BFB0F5D0
:101CD000C15F05D1398A4FF60F400140398204E0D7
:101CE000398B4FF60F4001403983002060746946FC
:101CF000104601F0F9F9684601F004FA786890B3EB
:101D00000188414518BF0746F8D12CE0208C0028F7
:101D10003BD000216184616204F12C00427801789B
:101D200002F0F00201F0F00142F001020170427095
:101D300004F120006860687B00F0F000687324E024
:101D4000DFF8E8180A68136801209847012806D0D0
:101D5000787B00F032F878730FF269006864A0684D
:101D60003060BDE8FF817D6040F60301787B00F0C4
:101D7000F0007873286A8068008888421CBF40F6AB
:101D800004018842C2D10020A86300F010F84FF689
:101D9000FF30A1680A8A02400A82A87F0028CFD0BB
:101DA00001F031F80028FBD001F03EF8D7E7F069E8
:101DB0000028FCD00021F161704700F0F00040F0F5
:101DC00001007047DFF86828114200D17047DFF842
:101DD0005C18012010B50A680D4C1368984701285B
:101DE00006D10FF241006064DFF8B003046010BD5B
:101DF00009490A683220B0FBF2F104F1E800BDE8BD
:101E00001040012998BF0121FFF7D9BAB010002076
:101E1000B0180020D0190020C81B00204021084025
:101E2000081004402DE9F04105460C46600484B0DA
:101E3000DFF8006819D500F076FCB56A85B12F6A25
:101E4000B9070DD40021296200F07DFC686848B113
:101E5000B5F92410E8686D683A460023A84701E008
:101E600000F071FC24F48044E0E0A00709D5FFF7FE
:101E7000FEFDF06A002824F0020401D044F00204C0
:101E8000D4E0A0007BD5F07F20B1042000F0BBFDA2
:101E90000020F07740F60202A8680188914218BF3E
:101EA000B1F5C15F05D1028A2D2161F309120282C9
:101EB00004E0028B2D2161F309120283B06B30B371
:101EC000DFF86487D8F854100A6804209047F0B10E
:101ED000D8F80000B76B016B8847874231BFC71B3A
:101EE000401EC71B7F1C688AE96800EB17308842D8
:101EF000E86002D209184908E96040F2D171E86847
:101F0000A0F5FA70884224BF40F6C411E960707BE6
:101F100010F00F0F02BF688C40F60901884207D10C
:101F2000AF6900224FF000736FF480712846B84704
:101F30000022DFF8041706F17C0000F0FAFBB07D08
:101F400068B10221ADF80010684601F0A6F8BDF8AE
:101F50000800DFF8E816400988870020B0750120E6
:101F6000707624F000540020B076FFF7D8FB2846A6
:101F70006D6900224FF080630021A84756E02007DA
:101F800043D5707F10B1002171773BE0706B7030EA
:101F900000F06CFC6846FFF7A6FB20B1009906F143
:101FA000E800FFF70CFA002070760120F076DFF8E9
:101FB00090067064FFF7F4FA707D20B9716B01F13F
:101FC000380001F096F9022000F01DFD112000F00C
:101FD00030FD287C10B90E2000F02BFDB07F0128C9
:101FE00004D10021B177052000F00DFD0020F0762E
:101FF0003077307E30B10021317606F1480004217F
:1020000001F018F924F0080410E0A0040ED5756A58
:10201000002D1CBF6868002806D0B5F92410E868B8
:102020006D6800222023A84724F4005424B12146DF
:1020300006F1480001F0FEF8BDE8FF810C1A00200F
:1020400030B585B000F044FCDFF8F805DFF8F8455E
:102050000168DFF8E05541F002010160684601F0D7
:10206000BCF8A078DFF8E41502906A4605F1480054
:1020700001F0BBF8684600F05EFB2178DFF8D02560
:10208000019100208DF808006B46192105F17C00B4
:1020900000F027FB684601F0A0F8E078DFF8B415FF
:1020A00002906A4605F1980001F09FF8684600F03A
:1020B00042FB01208DF808006B466078DFF8982518
:1020C00001901A2105F1CC0000F00BFB0023002247
:1020D000DFF8881505F1E80000F097FBDFF86005F0
:1020E000DFF87C2568640023042105F5867000F084
:1020F00078FCDFF848154FF6FF7088870122002032
:10210000E8756883E861A863AA750520286405B0AE
:1021100030BDF8B5DFF81C65306A0C4600278442F4
:10212000154616D19CB194F8271041F0040184F8AB
:10213000271006F12000FFF7FBF80022214606F1E8
:102140002C00FFF701F97F1C346A2800EAD13846D9
:10215000F2BD316A31B1086820B10A68A24201D0EB
:102160000968F7E70C4600E02468002CEFD02068EF
:102170000028F9D0216891F8270040F0040081F888
:10218000270006F12C000A6822607F1C0022FFF75E
:10219000DBF82800EBD1DAE700000440001004402F
:1021A0002DE9F04781468A4602F0010403275608CC
:1021B00000F0B9FA1AF1010F06F001068046DFF8C7
:1021C000745405D1686A00280CBF286A686A03E065
:1021D00000215046FFF7DBF868B390F827100A0695
:1021E00028D5696A884215D190F827100122A240AB
:1021F000114380F82710002C14BFDFF86804DFF8C3
:10220000680400F04AFF9EB1296A32464846FFF74B
:1022100080FF0DE0014632464846FFF77AFF48B19D
:1022200005F1E80000F022FBA87E08B9FFF7CDFB1E
:10223000832700E0042700F02EF93846BDE8F08738
:1022400010B5DFF8F0230C46517E59B100F025FFA0
:1022500004B1206000F0FF00012801D1812010BDF1
:10226000022010BD012010BDF8B504460D461646EB
:1022700000F059FA0746DFF8BC03416B8C4218BFE7
:10228000032404D131462846FFF7DAFF04463846D6
:1022900000F059FA2046F2BD0000046020000E0054
:1022A000F0B50746DFF8C4038BB00E001546006892
:1022B00018BF002D1C464CD03278D040C00748D5FE
:1022C0000021284600F024FF7E60BD6000F02BFA5C
:1022D00000F044F83BD1FFF7B3FE707D401C7075F1
:1022E000FFF7CCFA34B903A80FF2A4311C2201F095
:1022F00031F803AC2068DFF8781338600A4660686C
:10230000F860207C387401207874608A7882E068F4
:1023100000B10146B961A06800B102467A61782136
:1023200007F1200001F062F8002107F1380000F009
:10233000AAFF684600F093FA02976B460022DFF886
:10234000341307F1700000F060FA384602E0FFF73E
:1023500095FA00200BB0F0BD0C100440DFF8D462F9
:102360000546707D00287047F8B500F0DCF9DFF80D
:10237000C442617E29B1DFF80023146800F0E3F95C
:1023800014E000F0E0F9FFF752FC904710F500323E
:10239000DFF8E80241F10003A0FB026700FB0377CE
:1023A00021690020341847EB01052C462046F2BD78
:1023B000481900202DE9F04782B082460F46914629
:1023C0001C4600F0B0F9804600202822DFF8B01249
:1023D00042438D1895F827100A0608D5401C082896
:1023E000F3D300F058F86FF00100BDE8F6870AF16A
:1023F000700000F03BFADFF83C62308E401CC0F306
:102400000B003086281D476005F1100787F81690ED
:102410000460318EB982C0F808A0DDE90A42DFF815
:102420006402202120401140C7E900016A460020D3
:10243000F875C7E90200294606F12000FEF784FF7F
:102440000028CED00AF19400B98A01808178012950
:1024500002D100228270B275F87D40F08000F875DC
:102460009DF8000001280AD1317F00291CBF707E31
:10247000002804D00121002071773077B07500F07A
:102480000AF89DF8000018B1716A09B9FFF747F919
:10249000B7F91400A9E7404600F055B92DE9F0411D
:1024A0000C46002C054616461F4601D500201CE0B0
:1024B00000F0BCFE804680212046FEF768FF040045
:1024C00003D094F82700010602D400F03DF80BE099
:1024D00094F8270010F0070F09D000F035F894F8B1
:1024E000270010F0070FFAD1022000212AE0D4E9DA
:1024F000060146F00206304039400022914208BFF2
:10250000904210D000F020F8D4E906013040394064
:10251000C5E91A01D4E9062322EA000023EA0101F1
:10252000C4E906010CE061685748814202D0616845
:1025300029666060C5E9166700F006F800F007F844
:10254000D5E91A01BDE8F081404600F077BE4FF0B2
:10255000FF3105F1380000F0C3BEDCB5DDE90667E8
:102560000446CDE90067180008BF474B2046FFF737
:1025700021FF0146204602B0BDE8D04000224FF0C6
:10258000E0438BE70CE642F0020209E60FF200118D
:102590001C2200F0DFBE00E000BF002264E680B530
:1025A0006A463A49FFF760FE812803D1009800028D
:1025B000001602BD6FF07F0002BD0000F818002079
:1025C0000200004070B50E46154600F0ACF88324BA
:1025D000184A1EB1022E0ED005D30FE0516A41B148
:1025E000526A918C03E0917D19B9144A918F298028
:1025F00005E0802403E0517E297000E0032400F010
:10260000A2F8204670BD80B508468021FEF7BFFEC7
:1026100000B1806802BD0000D021084051000706CB
:102620000100070601010E048C010010E0010010FA
:1026300004000020B018002083180000D0190020EA
:10264000631B00000020094014E30000331A00005F
:10265000551A0000D717000071170000491A000032
:102660005F1500000100020401000104D4210840AC
:10267000311A0000D51900000430044000093D0063
:10268000B0100020F1EFFF9FD919000001000304F2
:10269000FFFFFFFFC4090000000000000000000071
:1026A00001003A010000000000000000DFF800F027
:1026B00085BF0110DFF800F061C00110DFF800F005
:1026C00079BF0110DFF800F0A9C00110DFF800F0B9
:1026D00089AF011020B1082330220021FFF7EEBF9F
:1026E0007047F0B51C008DB005460E46174603D165
:1026F000002300F083FE0CE06846FFF7EBFF206844
:1027000005906B46606808903A4600F004F800F0C7
:1027100075FE0DB0F0BD207AADF8180031462846A0
:102720007047FFF7CFBFFFF7C1BFFFF7CFBF00F084
:1027300085BE00F08DBE002101604FF0FF31416089
:10274000012101727047FFF7B5BFF0B4024610686F
:1027500095681318506803EB5004C00721D54D4409
:102760001FE0F0BC02F10C00704713F8017B05F884
:10277000017B491EF9D1A0B1B60813F8011B06F080
:102780000306032E08BF13F8016B01EB0621494233
:10279000801C294405D011F8016B05F8016B401E1F
:1027A000F9D1A342DDD013F8016B16F0030104BF89
:1027B00013F8011BC91C30090F28DAD113F8010BDB
:1027C0000F30D6E7DFF800F0C1BF0110DFF800F0EE
:1027D000B9BA0110DFF800F0E5C00110DFF800F031
:1027E0001FBE0110DFF800F069B20110DFF800F041
:1027F000DDC00110DFF800F091BE011020B1082308
:1028000024220021FFF7DEBF7047F0B51C0089B01D
:1028100005460E46174603D10023FFF7E3FF0AE003
:102820006846FFF7EBFFA06806906B463A463146D4
:102830002846FFF7D7FF0E480E4A01681160284668
:1028400009B0F0BDFFF7D2BFFFF7D4BF00F008BE5C
:1028500080B500F01CFE00B10120C0B202BD002115
:1028600081607047FFF7B6BFFFF7B8BFFFF7AEBF95
:1028700060FD0000C81B002070B5DFF86447DFF87A
:1028800064072568EE68002301223421B04700B1B7
:102890000120C0B270BDDFF8500780687047024663
:1028A0000020022904D1012A06D140F2EE2070470F
:1028B000012A08BF4FF47A707047DFF82C1791F89F
:1028C000E60020B1D1F81001002818BF004770477A
:1028D0002DE9FE43DFF8108708F1E106B079002802
:1028E0007CD1DFF80817DFF808770A689209012021
:1028F00002F00102B071F271F87CDFF8F856DFF8EF
:10290000F89670717868C8F810016846FFF7A7FF5D
:10291000002101918DF8001002916B4600220FF208
:10292000115108F10C00FFF770FF6B4600220FF207
:10293000F15108F13000FFF768FF6B4600220FF2FB
:10294000255108F15400FFF760FFB968012088475E
:10295000DFF8A80601786868C0F38154387D20B19B
:10296000032C02D10121317003E0032C18BF022C8B
:102970000DD1022000F0ACF8032CD9F800100CBFE8
:102980004FF47A7042F21070B0FBF1F118E0012CB4
:1029900002D100F04EFA1BE0D4B9022000F098F802
:1029A00000F090FA9847012803D1002000F041FA86
:1029B0000EE0D9F800003221B1FBF0F1B1FBF0F1EB
:1029C00008F15400FFF74EFF08F15400FFF74CFFE9
:1029D000286840075CBF002000F07AF80020BDE8BE
:1029E000FE8338B5002408B1150002D16FF002044F
:1029F00007E08160C26003610146DFF8EC0500F08A
:102A000052FD204632BD10B50446FFF78CFEDFF8BC
:102A1000D8150A1992F8E9305B1E82F8E930DBB26A
:102A200033B98A68012303FA04F422EA04048C60AF
:102A30005FE0F8B50546FFF776FE0446DFF8A81517
:102A4000481990F8F020521E80F8F020D2B27ABBDC
:102A50000FF2F450DFF8A87500EB850210F825504E
:102A60005688280615D539680A6A304690473A686C
:102A7000916A3046884739680A6B30469047DFF8DC
:102A8000841501200860DFF8801508688007FCD5F0
:102A900007E0680611D501EB86010020D1F804217A
:102AA000904705F03F053F2D1CBF2846FFF7C1FFAB
:102AB0002046FFF748FE0020F2BD39688A6930469B
:102AC00090473A68516B304688470228F9D1E8E7C9
:102AD00010B50446FFF727FEDFF80C158A680123BE
:102AE000A3401A438A60214491F8E920521C81F8DE
:102AF000E920FFF728FE002010BD2DE9F041074630
:102B0000FFF711FE0546DFF8E064F01990F8F010C9
:102B10004A1C80F8F02049BB0FF22C5818F8270007
:102B200000F03F003F2818BFFFF7E7FF08EB8700E2
:102B3000448818F82700DFF8C87401060ED53968F4
:102B4000CA69204690473A68516A204688473968E2
:102B5000CA6A2046904700F01AF807E040060BD5F5
:102B600006EB84010120D1F8042190472846FFF7A5
:102B7000EAFD0020BDE8F08139684A6920469047A7
:102B80003A68516B204688470128F9D1EEE7DFF813
:102B9000741401200860DFF8701408688007FCD501
:102BA00070472DE9F84F0746DFF84004DFF860541E
:102BB0000168002600244A06A0460DD5287B58B996
:102BC000DFF85004DFF8501402680A4042F08172C6
:102BD0000260202000F07DF9012F18BF6FF001097D
:102BE00057D12868012852D10221296000F0EFFC5A
:102BF000012000F06EF95FEA00094BD100F016FBEE
:102C0000DFF81814DFF8F87300900C600120B96A3F
:102C10000A689047012803D1002000F0B5F901248B
:102C2000DFF8FC13DFF8E4A3DFF8F8230E60DAF82E
:102C30000010907808B14FF00108517809B148F0C0
:102C40000208107808B148F00408E87F20B139681C
:102C50000A6B4FF480609047A87F20B139680A6BF7
:102C60004FF481609047DFF89C130120086048F022
:102C7000200039688A699047DFF8AC1301200860AA
:102C8000DFF86413087AC10709D501261FE06FF049
:102C900004097FE00120286000F0A4FC7AE0396A92
:102CA000DFF888038A6890478346BBF1040FF6D0AB
:102CB000BBF1010F05D13A6ADFF8700353680321B5
:102CC0009847DFF86C0301688908890001600020DB
:102CD00000F0AEFCDAF800003868816B884776B9FE
:102CE000BBF1010F05D13A6ADFF8400353680121B7
:102CF0009847DFF83C03016841F0030101600120BF
:102D0000DFF81C130860404639684A699047E87F3D
:102D100020B13968CA6A4FF480609047A87F20B11B
:102D20003968CA6A4FF481609047B649BE4A0120AB
:102D3000086000211160032028603A68516B40460A
:102D400088470128F9D1DAF80000042000F0C1F822
:102D50000646B24901200860DAF80010A349086865
:102D60008006FCD514B1012000F00EF900F0B6FD8C
:102D7000082000F0AEF8064301202860009800F01B
:102D80005DFA9B48008A00F028FD00F02BFC0EB194
:102D90004FF0FF394846BDE8F28F38B50446FFF7DB
:102DA000C2FC05462146904800F091FB2846BDE84C
:102DB0003240FFF7C8BC3EB50024012804D020D320
:102DC00003281CD017D31CE06846FFF748FD864D4A
:102DD000984901948DF8004002946B46012205F158
:102DE0007800FFF712FD0023934A2C2105F19C0087
:102DF000FFF777FC05E000F08DFD044601E000F0F0
:102E00004DFE20463EBD38B5FFF78DFC76490546A0
:102E100091F8E000012410B1FFF72EFD044628468A
:102E2000FFF791FC204632BD002079E00000000051
:102E30007047F8B56A4C6B4D032000901C23266840
:102E400077684FF0405200212846B8470120009093
:102E500028462468656809234FF400720021A847BA
:102E6000F1BD000010B500F02DF89847022818BFFA
:102E7000032805D1FFF7DDFFBDE810400220C2E5C1
:102E8000012802D1BDE81040D3E76C480168C1F3C6
:102E90008150032808BF4FF47A7004D002280CBF79
:102EA00041F28830322054494F4C0A68B0FBF2F1AD
:102EB00004F15400FFF7D6FC04F15400BDE81040C3
:102EC000FFF7D2BC5E490A681368042070470020EF
:102ED000704738B50546444C204600F0DAFA88B908
:102EE000204600F0DCFA0446A068284205D022699A
:102EF000E36800212846984730B9204600F0D1FA0F
:102F00000400F1D1002032BD4FF0FF3032BD4D49F9
:102F100001280CBF40F2FF700020086000207047BD
:102F200070B5FFF700FC304D314E044695F8E000D7
:102F300050B1287A410613D4FFF79EFC80B100F00F
:102F40003CFF002085F8E0000220B568A84706464F
:102F50001020FFF7BEFF012E11D10320A8470EE07D
:102F600025490A683220B0FBF2F101B9012105F1CF
:102F70003000FFF777FC05F13000FFF775FC2046C5
:102F8000BDE87040FFF7DFBB38B5012823D12C49DD
:102F90000A681368984701281DD000F001FF124D00
:102FA000012085F8E000287A810616D412480268CC
:102FB0003221B1FBF2F404B9012405F13000FFF72E
:102FC00055FC214605F13000FFF74CFC05F13000BF
:102FD000FFF74AFC01E000F016FF002032BD0000C0
:102FE000A401001000A00C40A0090020141009400A
:102FF000FCE20000B03F0050C81B0020B01C0020C5
:10300000B801001028200860282008402C20094022
:103010007C0A002004000940FFFFFCFC0C40094032
:10302000000222439F0A0020800104430040034025
:1030300024220840E53B000079390000B43F0050ED
:10304000E0010010000004608F0000008F0001000C
:103050008F0002008F000300900000018F0001012B
:1030600090000002900000038F0001048F00000513
:103070008F0008048F0000048A0000065100000041
:103080007F0001003F0004003F0002003F000100FC
:103090007F0002003A4908686AE03A4A116800294C
:1030A000FCD10023D3611060D0690028FCD0D1612D
:1030B000506870473448016821F0020141F4007102
:1030C000016003213148816041F2300141610121F9
:1030D000C160502141610121C1604FF4CA61416169
:1030E0000121C16001607047294802680A60826856
:1030F0004A60C2688A60406B20F0784040F080509F
:10310000C860704701461022224800F013B970478A
:10311000FEB50188B1F5C15F18D142691E4F00921A
:10312000002382690192C06902901C480268C2F3C0
:1031300003625DF8230098B1002550F82560BE4277
:1031400006D06D1CEDB2042DF7DD09E00120FEBDB7
:10315000042D05DC26F4702444EA024440F825409E
:103160005B1C032BE5DB0020FEBD0D490A68104007
:10317000C2430A600A680242FAD1704700000000A8
:10318000101004400010044000000460004104409E
:103190004C130050180000210200F8445413005052
:1031A00008100440DFF800F011BF0110DFF800F054
:1031B00011B00110DFF800F015C00110DFF800F0C9
:1031C00015C10110DFF800F005B3011020B108238C
:1031D00028220021FFF7EEBF704700210160416007
:1031E000C1604FF0FF318160704770B514008AB044
:1031F00005460E4603D1002200F050FE0CE0684662
:10320000FFF7E4FF206804906A4660680590314645
:1032100000F004F800F042FE0AB070BDE0680790CC
:10322000A068069028467047FFF7C8BFFFF7BABFEF
:1032300000F040BE00F044BEFFF7B8BFFFF7C2BFCA
:10324000DFF800F009C00110DFF800F0D1B2011082
:10325000DFF800F0059B0110DFF800F0E1A301109A
:10326000DFF800F05DB40110DFF800F009C10110D3
:10327000DFF800F00DC1011020B108232422002145
:10328000FFF7DEBF704730B589B004460D4600F049
:103290000BF801218DF818106A4629462046FFF7E1
:1032A000DFFF204609B030BD6846E5E710B58AB0BB
:1032B0000446FFF7F9FF01218DF818102046034A54
:1032C0006946FFF7C1FF0AB010BD0000BC0700202F
:1032D00080B500906846FFF7C7FF01BDFFF7C8BF84
:1032E00080B5FFF7B5FF10B96FF0010002BD0020F7
:1032F00002BDFFF7B1BF024681B01078022903D1A9
:10330000517800EB012013E0032906D1517892781F
:1033100000EB012000EB02400AE0042908D15178BB
:10332000937800EB0120D17800EB034000EB0160C3
:1033300001B0704762B38B0708D0521E11F8013BF1
:1033400000F8013B00F024808B07F6D1830740F0A2
:10335000208000BF103A07D330B4B1E83810103ADB
:10336000A0E83810F9D230BC530724BFB1E80810E8
:10337000A0E8081044BF51F8043B40F8043BD207D2
:1033800024BF31F8022B20F8022B44BF0B780370C6
:103390007047121F17D35B0009D151F8043B20F886
:1033A000023B1B0C121F20F8023BF6D20BE051F837
:1033B000043B00F8013B1B0A20F8023B1B0C121FC8
:1033C00000F8013BF3D238BF121D521E24BF11F882
:1033D000013B00F8013BF8D8704701700A0A4270BF
:1033E0000A0C090E8270C170001D7047002200F0A7
:1033F0007BBDFF7FDFF800F0BDAA0110F8B50446E1
:103400000B480C4F0668F8690D4650F82500B0428D
:1034100009D1094800902046FFF7ECFFF86950F801
:103420002500B04201D10020F2BD2046F2BD00BF10
:103430001812000044010020BC070020102803D30C
:1034400002491038C1F8000F704700BF00E000E0EB
:103450008160426070470000DFF800F09DB201100B
:1034600070B5044600F070FD0646A08A00250128CC
:1034700008D1FFF7F1FF0546E068451BA068A842A8
:1034800038BF0025304600F060FD284670BD808AB8
:103490007047006808B90120704700207047006835
:1034A00070470068704738B504460D46FFF73BF992
:1034B00000212960616869606168002914BF0D609E
:1034C00025606560FFE7BDE83240FFF73CB90A6858
:1034D0004B68002A0CBF436053604A6809680AB908
:1034E000016070471160704700400000DFF800F095
:1034F00031BF0110DFF800F0F5B7011030BF7047A1
:10350000FCE738B500F0E6F900F096F9FFF7C3F9EB
:10351000054605F00C000C2853D0680729D400F0AC
:1035200047FD044601210120FFF7B9F93349096835
:1035300001FB04F290421CD2F020B0FBF1F03049C4
:10354000241A887C18B1C868A04238BF04462D4DA3
:10355000214605F10C00FFF73DF905F10C00FFF7DE
:103560003DF90120FFF71DFB05F10C00FFF72EF9D7
:1035700029E0280725D4244C2448216A8A689047EA
:103580000428F8D0EA06224900D420B9086840F09F
:103590000100086003E00A68520852000A601D48F2
:1035A0001D4D016841F003010160202022689169EE
:1035B000884728682068816B88470121296028682E
:1035C00001E0FFF79DFFBDE8314000F087B910B57D
:1035D000124CFFF78BFF20601148006808B180474C
:1035E000606010BD10B50F480C4C016809B16068EF
:1035F00088472068BDE81040FFF77CBF60FD0000F1
:10360000FCE20000A0090020B801001000400340C7
:103610008C210840242208402C200940241B002033
:103620003CFD000040FD00001628A8BF2038704770
:103630002DE9F84F80469748DFF85C920168974E75
:103640008A0705D50820B0719548C9F80000C2E086
:10365000944801680A6890478246934805682F1786
:1036600000247F1CA80208D4CAF13E00C01008281C
:10367000C8BF08208742B8BF07468C480168C1F31D
:103680000460FFF7D1FF834689480168C1F3044015
:10369000FFF7CAFF5F44152F0146C8BF152704DC9A
:1036A0006FF009008742B8BF074607F01F00814A44
:1036B00040F4F8501080804A106810F0030F18BFD3
:1036C0000124400748BF44F0020496F90700B8F10E
:1036D000000F18BF44F00404AAEB0000042802DC29
:1036E000B27994425DD0AAF10F084FF0000BB8F107
:1036F000000FDC4604F00400704B24D408EB0818DB
:103700004FEA282CBCF1070F88BF4FF0070CE646A4
:10371000BEF1070F28BF4FF0060E1A1D52F82E20DB
:1037200053F82EE0A2EB0E0E0EF0FF0B10B1CEF30D
:1037300007229344A20744BFCEF307429344E20713
:1037400048BF0BEB1E6B53F82C2002F0FF0310B1A7
:10375000C2F30720C318A00744BFC2F30740C31831
:10376000E007A8EB0C2048BF03EB126300FB0BF053
:10377000CF1B8030002F03EB1023D8BF012734204C
:1037800005F0FF0547437D43B5FBF3F04FF6FF71AE
:10379000884288BF08460AF3070AB08086F807A067
:1037A000B47147480168B088316000211F2804D2F5
:1037B0001F20B08004E04008491CB0F5007FFAD219
:1037C0000F38000941EAC0013E480143C9F8001022
:1037D0000020C9F80400BDE8F18F38B505463A4825
:1037E0000468A4B23CB32F4801680A6890472B498B
:1037F00091F90720904205DA6FF07F029042B8BF3E
:103800001046C871A542888834BF641B01248442D5
:1038100010D32B4A13680A689A1A921C1F2A88BF71
:103820001F22241A5208D4402418B4F5803F28BF20
:103830004FF6FF748C8031BD2448006800B9704792
:1038400030B523498A6802F04063B3F1406F1FD05E
:10385000104B1C68A5071BD44C68A50718D41C681E
:103860000968C1F303511C31090114F0050F04D09C
:1038700088420DD224F0050409E0814208D21001EB
:1038800058BF44F00104500158BF44F004041C60C8
:1038900030BD00000000094030100940E01B00204E
:1038A000FDFDA400EC010010B43F0050B812005020
:1038B0003C1100506E620840242208409C130050C6
:1038C0000820094000E7A48034100940285009402E
:1038D000AC3F0050EFF3108072B67047EFF31080EA
:1038E00062B670470138FDD17047704710B50C18AB
:1038F000FFF7F0FF411E8941C90FDFF8602410680F
:103900000028FCD024680123136009B1FFF7E6FF0B
:10391000204610BD38B5DFF8485428780024002828
:1039200002BFDFF84014487D00280CD0FEF7FBFEF4
:103930000146A878002806BF0122AA700124084683
:10394000FEF701FF0CB1002032BD0220FFF7C0F8E6
:103950000E20FFF7D2F8DFF81014086808B1012034
:1039600032BDDFF808044022C26002600120C86155
:103970000020687032BD00002DE9F041DFF8EC1343
:1039800082B000200860DFF8E81301F1D804A07AC3
:10399000002837D00128DFF8DC53DFF8DC2332D1F0
:1039A000DFF8D81316684BF2F52046430868360A4C
:1039B000C0F3814001280BD1A86C0168884700F052
:1039C0003AFA00F053FA3509C010454306EBE536E4
:1039D000607B10B10021617306E0DFF8A40300688A
:1039E00020F07F4036187608DFF898030660360C22
:1039F000466001218160DFF86C13487D002849D0C2
:103A00000521217348E0022809D11568284600F0F5
:103A10000CF9A5F2FF55032D3CD308203BE0032809
:103A20003AD1106801F1B806A0F5C0603168F061C4
:103A3000002948BF4942002848BF40428142A8BFF0
:103A4000002026DA7068D04F80B200900823D5F8A5
:103A500000C0DCF804804FF47F4230213846C04774
:103A6000B06880B200901223D5F800C0DCF8048062
:103A70004FF4F80204213846C047B06980B2009084
:103A80000A232D686E684FF4406220213846B04703
:103A9000012020700B202073BDE8F3412DE9F8438D
:103AA000DFF8CC82B94EDFF8E092B94CB94FAF489D
:103AB00008F1E105E9784A1E0B2A00F29280DFE85E
:103AC00002F00630415F74415F74415F7B80316872
:103AD0000A68202090470F20E060072341F61D5020
:103AE00020614FF4C072022000900021D6F804C07B
:103AF000DCF804404846A04776684846D6F80C9063
:103B000007234FF4C0720021C8470120386002200B
:103B1000E87008F17800BDE8F243FEF7A5BEBDE805
:103B2000F1830120E061287800281DBF0021396160
:103B300003200620E8700320206000207860786869
:103B40008107E6D470684668E878032808D1022126
:103B500000910523602200214846B04704200BE075
:103B6000002000900523602200214846B047E878F5
:103B700006280CBF07200A20E87001207860C8E7FB
:103B8000042903D12021A161012105E001220A2994
:103B9000A2610CBF0321022169700021216008216C
:103BA000C160016001202060B9E705290CBF062033
:103BB0000920E8700020E1E70020386078600C20E0
:103BC000A6E7002101600120674908600E20FEF78A
:103BD00030FF0220FEF717FF0120E8700020A870D8
:103BE0009DE7FEE762496B4891F8E420921E0A2A9D
:103BF0001AD8DFE802F0060A0E190A0E190A0E1981
:103C0000120002689107FCD548E741688A07FCD496
:103C1000FAE741688A07FCD5F6E702689107FCD409
:103C200041688A07FCD4EFE7FEE7F8B50446564D35
:103C300030212846FFF75AFE4D4F07F1B806C0F372
:103C40000720706004212846FFF750FEC0F384402F
:103C5000B06020212846FFF749FEC0F38120B4F56B
:103C6000C064B061346003D1002087F8D800F1BD92
:103C7000316997F8D80028B97068B168F060F461CC
:103C8000B0697061F06900284CBF6FF00102022238
:103C900000EB40001018421000EB927001EBA00105
:103CA0007268F260002912DC7069032805D111F1F5
:103CB000150211001EDA00211CE011F10B000100B9
:103CC000B8BF0021521E48BF0022F26007E01E2943
:103CD00012DD706928B915391E29C8BF1E210320BD
:103CE00009E00B391E29C8BF1E21521C3F2AC8BF3C
:103CF0003F22F26000207061316108231D4CF068A2
:103D000080B200904FF47F422768D7F804C030217A
:103D10002846E0470120009011232768D7F804C007
:103D20004FF4003204212846E047306980B2009009
:103D300012232768D7F804C04FF4F802042128465C
:103D4000E047706980B200902846246865680A23BD
:103D50004FF440622021A847F1BD000000800C40D4
:103D6000810A0020FCE2000004800C402C500C4032
:103D7000A0090020A401001008400C40B43F0050EE
:103D8000102009403C600C4000A00C40A001001035
:103D900000400C4034600C403748006800F020B907
:103DA00010B5374C626D5368012103209847206895
:103DB000C16A88473349886010BD70B5304C616D69
:103DC0000A680120904701281BD0A5692B48EE689E
:103DD000002301223421B047A0B1FFF7DDFF2068A6
:103DE000C16A8847274B9A6827491C68D860A4EBAA
:103DF0009404801A4843000C1860A04238BF204643
:103E00001860012070BD38B51D4C626D53680021EB
:103E100003209847616D0A680120904708B1FFF7B9
:103E2000BBFF2068174DC16A88476860206E016833
:103E30008847286131BD10B501461448144B02680B
:103E40001B68100400161B394843C01000EB2240C9
:103E5000120601FB01F412161B06624361431B1696
:103E600000EBA220594300EBA14010BD00FB00F184
:103E7000C0EBA15000B270478000001000A00C40C1
:103E80008C010010CC1B002040420F00901300500A
:103E9000A4100050DFF800F079AD011010B5044611
:103EA000034BFFF7F7FFA06800B1204610BD00BF2D
:103EB000BC07002001488068704700BFC80100208F
:103EC00038B504460D4600F04AF8616A0D43656254
:103ED00000F046F82046BDE83240FFF767B90A0512
:103EE00062F30F2262F31F42401810F0030308D060
:103EF000C91A1FD3DB0748BF00F8012D28BF20F8DF
:103F0000022D130030B414461546103928BF20E99D
:103F10003C00FAD8490728BF20E90C0048BF40F808
:103F2000042D890028BF20F8022D48BF00F8012D7C
:103F300030BC7047C91818BF00F8012DCB0728BF47
:103F400000F8012D7047000000E005E0EFF311805C
:103F5000202181F31188704780F311887047F5E7BD
:103F6000FAE70000F2E7F7E70D49C20744BF012274
:103F70000A60820744BF4FF480720A60400744BF62
:103F80004FF4803008607047064AC30748BF11608D
:103F9000830748BF5160400748BF916070470000E9
:103FA0000420094018200940DFF800F0E1BE0110AC
:103FB00070B5FFF7C9FF094D0446A8680021FFF757
:103FC000F3FF06466869861BA869B04238BF002621
:103FD0002046FFF7BAFF304670BD00BF78010020D1
:103FE00070B50446FFF776FC451EAD41ED0F064E59
:103FF00030680028FCD0A047012131601DB1BDE828
:104000007040FFF76BBC70BD00800C40DFF800F023
:1040100021C00110DFF800F0F99B0110DFF800F07B
:1040200055A40110DFF800F019AE01102DE9FC4E87
:10403000DFF8485A0E469246002440F2013B95F8BC
:1040400001C02979EA7895F80090B0EB0B0740F6AB
:104050007B4332D07F1E37D07F1E3CD0BF1E40D066
:104060007F1E00F086807F1E00F089807F1E00F09A
:1040700099807F1E00F0AD807F1E00F0B2807F1E11
:1040800000F0B7807F1E00F0BD807F1E00F0C28070
:10409000FF1E00F0C7807F1E00F0CC807F1E00F066
:1040A000D1807F1E00F0D6807F1E00F0DB807F1F56
:1040B00000F0E380BF1E2FD0F9E0102E12D11022A5
:1040C000514605F1A4009AE0102E0BD11022514662
:1040D00005F1B40093E0042E04D1DAF80000E862A0
:1040E000F4E0012E40F0E180012940D09AF8000070
:1040F000E87042B10028F3D1BCF1020F1ED0BCF130
:10410000050FEDD11AE00028EAD0BCF1010F2AD04A
:10411000BCF1040F24D126E0012E5BD1012A26D068
:104120009AF80000287189B100280ED1BCF1030F64
:104130001CBFBCF1070FBCF1050F06D100F044FC19
:104140000246DFF83C1900F03CFCBFE00028FCD040
:10415000BCF1010F1CBFBCF1040FBCF1060F02D073
:10416000BCF1050F02D1012000F083FCAEE0122467
:10417000ACE0022E2ED1BAF80000A883A6E0202ED3
:1041800034DA05F1CC041F21204600F09BFC00F03E
:10419000A4F86E7100F018FC697900910246019450
:1041A000012311E0202E21DA05F1EC041F21204625
:1041B00000F088FC00F091F8AE7100F005FCA979E0
:1041C0000091024601940023DFF8B81800F0CBF903
:1041D00079E0012E69D19AF80000042865DCE871C5
:1041E00074E0012E61D19AF8000004285DDA28728B
:1041F0006CE0062E59D10622514605F58670FFF770
:1042000099F863E0012E50D19AF8000007284CDCA1
:1042100068725BE0012E48D19AF80000042844DA65
:10422000A87253E0012E40D19AF8000006283CDA2B
:1042300028744BE000F04DF837D1811F994234D2F9
:10424000688243E000F045F82FD1811F99422CD2BB
:10425000A8823BE000F03DF827D1B0F5FA7F24DAE0
:10426000E88233E000F035F81FD1A0F10A0140F6F2
:104270007742914219D2288328E0012E04BF9AF890
:104280000000012811D105F1800000F062FC50B956
:1042900005F1100100F09CFB040017D105F15C0052
:1042A00000F05EFC12E0162410E018240EE028282E
:1042B0000BDA022E09D1BAF80030DFF8CC1702462B
:1042C000102001F062F9044600E00224E0B2BDE8EB
:1042D000F68EBAF80000022E70473246514620464C
:1042E000FFF728B838B50D4600244FF44073024656
:1042F000D11ADFF8880736D0491E36D0491E38D08B
:10430000491E3AD0491E3BD0491E3DD0491E3FD0E0
:10431000491E3FD0491E41D0491E43D0491E43D0BB
:10432000491E43D0491E45D0491E45D0491E45D09F
:10433000891E45D0491E45D0491E45D0491E45D04D
:10434000491E45D0491E45D0491E4AD0491E4AD073
:10435000491E4AD0891E4CD0491E17D0491E46D04E
:10436000491E48D04AE0807846E0102200F1A401BE
:1043700033E0102200F1B4012FE0C06A286044E06D
:10438000062200F1C40128E0C07835E0007933E06E
:10439000808B37E0427900F1CC011EE0827900F198
:1043A000EC011AE0C07927E0007A25E0062200F54A
:1043B000867112E0407A1FE0807A1DE0C08B21E018
:1043C000007C1FE0408A1DE0808A1BE0C08A19E063
:1043D000008B17E0062200F58A712846FEF7AAFF37
:1043E00013E0008C0EE0408C0CE0808C0AE0C07A78
:1043F00002E0407800E0007B287006E0282A03DA1B
:1044000000F0DEFA288000E00224204632BD1FB50D
:10441000DFF868466178C1B900B12063217800F007
:10442000D4FA04F1B4010291024604F12C0303937F
:1044300004F1A4000021019000911020A378DFF87E
:104440004C1601F0A2F8002000E0112004B010BDCD
:1044500010B5DFF828466078062818BF072882B014
:104460000CD1217800F0B1FA132200920246E38BBE
:10447000DFF81C1600F077F8C0B216BD122016BD8A
:1044800000B58FB008233C2200216846FFF7BEFD2F
:10449000DFF8000600F1500107914FF4DC720321B0
:1044A0000892069100236A460FF2C501FFF7BAFD94
:1044B0000FB000BD7CB5DFF8C44504F128012046EB
:1044C00000F0F3FD0020607000214FF6FF70E083E4
:1044D00000910120019000230FF2E55500222946AA
:1044E00004F1380000F0FEFA022000F034F804F184
:1044F0005C0000F0F7FA042000F02DF804F18000D1
:1045000000F0F0FA0420A070002104F1A4000022C1
:104510000023002580E82E0004F1B405002685E87C
:104520004E00E162E1712172A27207216172009076
:104530001023DFF86465022200F014F800951023C0
:10454000032200F00FF804F12C0000900423042251
:1045500000F008F873BD00210190009100230022B3
:10456000294670473146102001F00FB800000000C6
:104570002DE9F04387B0FFF79DFFDFF80075DFF806
:104580001C55DFF81C65DFF81C8507F18009B86A47
:10459000DFF814254FF0FF330021FFF73BFD040047
:1045A000F5D00020029002AA01A90DF1060000F04A
:1045B000B3FD00283DD1BDF80600102802BF9DF8CC
:1045C00004103878814230D1029801884FF6FF728A
:1045D00091420BD14088410427D507F12C0100916D
:1045E000042304224146FFF7BEFF1EE00178A22902
:1045F00004D0D02908BF00F068F816E041791329EB
:1046000013D10089012804BF797B022905D14846CE
:1046100000F0A6FAFFF71CFF07E00522314600F084
:10462000D0F981B2484600F084FA029808B100F04F
:104630005EFDE00730D53879F97801432CD018B108
:1046400003208DF80C000CE0F9798DF80C1006228F
:10465000387A8DF80D0007F586710DF10E00FEF722
:1046600069FE787A8DF81400B87A8DF8150050201C
:10467000397800F070FF024603AB2946102000F0A5
:1046800084FF00281FBF08207870386B002803D0F3
:10469000016809B108208847A00704D507F1100177
:1046A000002000F095F9600706D5787B012804D03A
:1046B000022808BFFFF7CCFE69E700903B8BFA8A1F
:1046C000B98A788A00F0BCF961E72DE9F041054626
:1046D00084B0DFF8A843A97862782379DFF8A4636F
:1046E000080004F58A7704F1800815D002294AD021
:1046F000032918BF042971D0052900F093800629E9
:1047000000F0C480072900F0E7800F2900F0FF8047
:10471000112900F0038134E06878010026D104F10A
:10472000A40100911023DFF87C7302223946FFF7C1
:104730001AFF04F1B4010091102303223946FFF758
:1047400012FF0622E91C04F1C400FEF7F3FD01206C
:1047500060705020217800F0FEFE024604F1CC008B
:104760000190012360790090FFF7FCFEC0B208B110
:1047700008206070206B00281FBF01680029607846
:104780008847BDE8FF81697811BBE87868B1217876
:1047900000F01BF904F1EC0101910246A1790091AE
:1047A0000023FFF7DFFE687012E0022A18BF072A15
:1047B0000ED0062A02D1012B0AD101E0032A07D02C
:1047C00004F1380000F0C5F910B9012000F051F9EA
:1047D00068780028D5D008216170CBE7687800BBE5
:1047E000E078032908D1062A08BF0720C1D0002895
:1047F0000CBF03200220BCE7A18B31B103430AD0D8
:1048000004F1380000F095F905E0012807BF002009
:10481000E070002020716078072814BF0420062073
:10482000A7E7A5E7687858BB0622291D3846FEF79A
:1048300081FD6889E08306206070E8892084288AE9
:104840006084688AA084E878E072207C012818BF20
:1048500002280AD11F2200F0B3F880B24FF47A7117
:10486000414304F15C0000F064F9042001902B1D29
:1048700068898E4900901020EA7800F086FE79E77A
:104880003128CED10020E070042072E7AA88884940
:1048900000F097F80621384600F014F90020208433
:1048A0006084A084A879207304F15C0000F058F9BA
:1048B000404600F055F94FF6FF70E083207908B1CB
:1048C000032189E7A87908280CBF0520042060701F
:1048D000012000F0CEF84DE7404600F041F968783D
:1048E000002813D1E9882184288960846889A084FC
:1048F00004F15C0000F02DF9002807D1636B002B58
:1049000004D0A28C618C208C1B68984739E7AA8858
:1049100068490523102000F038FE32E7217CA88882
:10492000ADF80000052903D100208DF80A0041E010
:1049300001218DF80A1004F15C0000F011F9207CCF
:10494000012818BF04281AD1608AE988814228BF4B
:104950000846ADF80200A18A2889884238BF084677
:10496000ADF80400E18A6889884238BF0846ADF88E
:104970000600218BA88988421AD2084618E003282D
:1049800018BF02280AD1608AADF80200A08AADF8EB
:104990000400E08AADF80600208B09E0E888ADF855
:1049A00002002889ADF804006889ADF80600A889DE
:1049B000ADF8080040496A46102000F0E6FDE0E648
:1049C0003749102000F0E1BD4946502000F0C3BD3A
:1049D000FEB50F46294D79880446288C884224BFAD
:1049E000B988814207D3688CF988884202BFA88CB5
:1049F0003989884221D00522FFF7E2FFE98BADF823
:104A00000010064678882D49ADF802006A46B8883D
:104A1000ADF80400F888ADF806003889ADF8080054
:104A2000102000F0B2FD0746C0B238B96C73B1B2C5
:104A300005F1800000F07DF800E01827F8B2FEBD17
:104A40003EB50E4D6C78062C01D014203EBDADF85D
:104A50000200ADF80410ADF80620ADF8083005F1FD
:104A60005C00069C00F07CF869462046FFF7B0FF2A
:104A70003EBD01460148806AFFF7D0BA8404002099
:104A80009945011009450110BD84011079F200001B
:104A9000E5140110A80C0020158C000059440110E9
:104AA000F5840110558C000007000080D5D8000067
:104AB00035CF0000C1170110051601107D1501103A
:104AC000D7E70201002200F0EBBD0000DFF800F0A4
:104AD000A1B60110DFF800F035BD0110DFF800F0DD
:104AE00019BD01102DE9F04389B08046894617466B
:104AF0001D46109C119E0823242200216846FDF7C4
:104B000061FE474906964FF47A700A68B0FBF2F0EE
:104B1000454305954743ADF810406B463A46494634
:104B20004046FDF75FFE404609B0BDE8F083FDF763
:104B300055BE38B504460D46FEF7A9FC10B1204617
:104B4000FDF744FE00F00EF82046BDE83240FDF7C8
:104B500045BE80B5FEF79BFC00B10120C0B202BD8E
:104B6000FDF734BE2E4A10684FF47A71B1FBF0F0B5
:104B7000454329462046FDF72DBE10B504460021C9
:104B8000FFF7A4FF204610BD70B505460C4616463B
:104B90000C2000F043FB01000BD08E602846FFF78D
:104BA00099FF24B14FF080412046FFF737FA0120EA
:104BB00070BD304600F033FB002070BD10B50446D8
:104BC000FFF78CFFA04204D0846800F028FB204649
:104BD00010BD002010BD70B586B0044668460FF2C7
:104BE00048011422FEF7B6FB0E4830250570831CE1
:104BF00078254570A21D062112F8015D2D09491E78
:104C00001DF8056003F8016B167806F00F061DF815
:104C1000065003F8015BEFD106B070BD0000000044
:104C200060FD0000B41700203031323334353637A0
:104C3000383941424344454600000000DFF800F0A7
:104C40002DB40110DFF800F0CDAC0110DFF800F05A
:104C50002DC00110DFF800F0FDB1011020B10823D4
:104C60003C220021FFF7D2B9704780B5FEF73EFC29
:104C7000ADF80000FDF71AFDADF80200009802BD86
:104C800001B5BDF80200FDF715FDBDF80000BDE857
:104C90000240FEF72FBC38B5DFF8C849207801285C
:104CA0002DD0DFF8C429DFF8C40992089200801AD9
:104CB000A061012121706261104602E0002340F8EA
:104CC000043BA3699D18A842F8D39B0802EB83011B
:104CD000002041F8040CE8201060A06980088000E2
:104CE000EC38C2F8E80002F1E800A060002000F013
:104CF00007F8E0606069A060A069001F206131BD15
:104D0000F8B500250026071D17F003001CBF391D4C
:104D10000F1AFFF7AAFFDFF84C2901465160112F47
:104D200034BF9468D4682068002803D580F0004020
:104D300000261AE0330014D02B68D4F800C0634476
:104D4000BB422B6011D32C461846ECB1C01B042883
:104D500011D3E05147F0004020601069C71B176174
:104D600011E0B842F1D2012625460444206800280B
:104D7000DAD1002408E0136920681B1A1361206847
:104D800040F000402060241D00F0E1BB10B5044657
:104D9000FFF76BFFDFF8CC18486054F8042C22F0C2
:104DA000004244F8042C0B69D2180A61221F8B6858
:104DB0009A4238BF8A60BDE8104061E72DE9F041B2
:104DC00082B0FFF752FFDFF89C18CA6848600026DF
:104DD0000027002400250AE00C460127164605E0BE
:104DE0003B00F9D03368CB1833600C190A441168C2
:104DF000A846A54238BFA046002905D0F0D581F0CD
:104E0000004100274546F1E7FFF73AFF4046BDE87D
:104E1000F68110B50446DFF84C088169216000690D
:104E20006060FFF7CBFF09282CBF08380020A06086
:104E300010BD80B5FFF72FFF4BF6BE2002BD084620
:104E40005EE70846A2E702B56846FFF7E2FF01BD4C
:104E50000120704738B50446FFF707FF00220C23F6
:104E6000DFF80C185343CD18A96C21B18C4206D041
:104E7000521C032AF3D3FFF703FF002032BDFFF7D4
:104E8000FFFE05F1480032BD70B582B00546FFF760
:104E9000ECFE044600210C22DFF8D4074A438618B2
:104EA000B06C48B1854210D0491C0329F3D3204689
:104EB000FFF7E6FE002076BD3065B5640021FFF700
:104EC000BDFEF06408B900F009FC2046FFF7D8FEEB
:104ED00006F1480076BD38B50446FFF7C6FE00254A
:104EE000DFF88C270C216943515A21B18C4206D03E
:104EF0006D1C062DF6D3FFF7C3FEFF2032BD22E363
:104F000010B504462088FFF7E6FFFF2802D14FF0D6
:104F1000FF3010BD0C21DFF858274843104481684A
:104F200011B96FF0010010BD2046BDE810400847E0
:104F300002460FF26070104710B500200C21DFF818
:104F40003027002401FB00F31344401C03289C6419
:104F50001C65F7D30020002301FB00F4401C135311
:104F60000628F9D3BDE8104095E62DE9F04790B04A
:104F700081468846FEF7BAFA05460027DFF8F46650
:104F800047451FD26846FFF769FE09EB07104168E5
:104F90000691816808916946026804920022C068FF
:104FA00005903046FFF74EFE040011D0FFF75DFE7E
:104FB00082462046FFF768FF50B15046FFF760FE7B
:104FC0007F1CDDE72846FEF795FA10B0BDE8F087B4
:104FD00000F084FB00BF00B585B068460521416044
:104FE0004FF47A718160DFF89026DFF89016009117
:104FF000C2600121FFF7B9FF05B000BD38B5044616
:105000000D46FFF732FE002145F80C1C226812B94C
:10501000256006E00A4652F80C1C0029FAD142F835
:105020000C5CBDE832402BE680B5FFF70FFEFFF7C2
:1050300011FF10B96FF0040002BD816809B90220A8
:1050400002BD4068B0E0062881B00ADA0C22504365
:10505000DFF81C26105A00281CBF4FF6F872904249
:1050600002D14FF0FF3001E00880002001B070470E
:1050700030B5DFF80C562A680C464FF47A71A1FB64
:105080000001002300F02EFB002399424FF0004264
:1050900001D8904202D36FF0020030BD20600020A2
:1050A00030BD014688684968084770B505460E4618
:1050B000FFF7CCFDFFF7E8FE040009D0FFF7D5FDB0
:1050C0000146002200F0A3F820B1521C062AF9D3B1
:1050D00000F004FB4FF6F87018805C6000209860C8
:1050E0002A706068306000F00DFA002070BD0C3846
:1050F0004CE670B5044615461E460846FFF7EBFE23
:10510000FF2802D14FF0FF3070BD014633462A46DA
:105110002046BDE8704084E070B582B00546164672
:1051200000F0A1F8040010D128886946C0B2FFF74A
:105130008AFF28B13068FFF7DAFF6FF0050076BD0F
:10514000BDF800002880FFF76FFF204676BD38B518
:105150000546FFF77BFDFFF77DFE044600F03AFBB6
:10516000002818BF012800D014B96FF0040032BD28
:1051700065B900200090009B60684FF0004200215C
:10518000FEF748FF401E8041C00F32BD15F1010FF0
:1051900008BF4FF0FF30EDD069462846FFF768FFA3
:1051A0000028E8D032BD80B54FF00041FEF736FF51
:1051B000002002BD2DE9F84305460E4617469846E5
:1051C000FFF744FDFFF760FE04006FF002091CD0FA
:1051D000FFF74BFD0146002200F019F840B185426F
:1051E00011D0521C062AF7D300F078FABDE8F283FA
:1051F0001D805C609E603A706068C8F8000000F036
:1052000081F90020F2E700F07DF94846EEE70C2333
:10521000DFF85C04534303441888704770E5B5E534
:10522000F7E52DE9F8430E46062EBCBF0446062CD2
:10523000154698466FF0020906DAFFF716FD00F0F2
:1052400009FA19B9FFF71CFD48460AE0FFF718FDF7
:1052500000F0F6F9786840684FF00041FEF7DEFE96
:105260000020BDE8F2832DE9F04106460F46904646
:10527000FFF7ECFCFFF7EEFD050008BF6FF0040040
:105280001BD0FFF7F2FCA968002441B10C46A4F141
:105290000C010A68AA6000220A60FF228A72FFF7E6
:1052A000EFFC0CB9022008E0A4F10C000179317088
:1052B00040793870C8F800400020BDE8F08182B025
:1052C00001218DF800109DF800000028FBD100F0AE
:1052D00005FA00BFFEF7C0B810B5DFF8A4030268F6
:1052E0006FF00044A4FB020100234FF47A7200F037
:1052F000F9F9002399424FF0004201D8904200D3BF
:10530000204610BD70B582B00C4615461E46694653
:10531000FFF7AEFE30B9009833462A46214600F02A
:1053200002F8002076BD2DE9F0431D4689B02C68B7
:1053300080460E4617462CBB0C20FFF7E1FC04000C
:105340006FF0030918D00823242200216846FDF7D6
:1053500039FA0020ADF810000590069400236A4643
:105360004146DFF82003FFF775FC206030B9FFF7F6
:10537000A6FF2046FFF70AFD484617E06660A760D3
:105380002C600BE0DFF8006330688047054620683A
:10539000FDF71CFAA76028467168884720684146D7
:1053A000FDF718FA2068FDF719FA002009B0BDE8EA
:1053B000F08300281CBF0068FDF708BA704700B5ED
:1053C00083B08DF80400684600F034FA9DF80500BB
:1053D0000EBD00B583B00190684600F061FA0EBDC5
:1053E00000B583B00190684600F064FA0EBD2DE967
:1053F000F04385B00446884616461F46FFF726FC54
:10540000FFF728FD05460020029000F0E3F9002890
:1054100018BF012800D015B96FF004006FE044B93F
:1054200000200190FEF718F881460198012481447C
:1054300025E014F1010F08BF4FF0FF30F1D001A9B2
:105440002046FFF715FE0028ECD058E0039902A88B
:10545000FFF7D4FD68684FF00051FEF7DFFD0199BA
:10546000012411F1010F0AD0080008D0FDF7F4FF64
:10547000B9EB00002ED0019981422BD30190019B02
:1054800068684FF000520021FEF7C4FD10B303AA74
:1054900069460DF10100FFF7E6FE0400DFD19DF83B
:1054A00001000DF10201FFF7CEFD0028CED1039AD5
:1054B0009DF80010BDF80200C0470028C6D016B104
:1054C000BDF80200308017B19DF8000038700C98CC
:1054D00003990160FFF7A8FD029EFFF7C6FB014696
:1054E00056B1324600E0024652F80C0C0028FAD1C0
:1054F000A86842F80C0CAE6000F004F8204605B035
:10550000BDE8F0830846FFF7BBBB38B5FFF79EFB4D
:10551000044600F05FF9002818BF012811D0FFF7FA
:10552000A4FB0025524A0C236B43D15A39B1D11840
:105530004B681968A14206D06D1C062DF3D3FFF706
:105540009FFBFF2032BDFFF79BFBE8B232BDFFF7A8
:10555000D9FF2046F2BD00B583B0ADF800008DF84C
:105560000610002049490A68ADF8020068469047D5
:1055700010B99DF807000EBDFF200EBD107842281F
:1055800001D101207047002070470CB470B504466B
:105590000E4688B000F01EF90CAD002814BF01289B
:1055A000FFF78DFE1420ADF810000021FF200291BE
:1055B0008DF8120006960595FFF7A7FF05AB0322AD
:1055C0002146FFF796FD002001A9019000910023DC
:1055D00000222F4941F28830FFF709FF012805D04A
:1055E00020B9019820B1FFF782FD01E0FFF767FEC7
:1055F0000598006808B070BC5DF80CFB2DE9F84315
:105600000E46062EBCBF0446062C154698466FF083
:10561000020906DAFFF729FB00F01CF819B9FFF7B9
:105620002FFB48460AE0FFF72BFB00F009F87868EB
:1056300040684FF00051FEF7F1FC0020BDE8F28316
:10564000A8F10800414604704670857078680830FB
:10565000FFF7D4BC0C21064A01FB06F7D71979687D
:1056600070470000BC140020C01C0020FF3F002039
:1056700050140020314F00007404002069F3000032
:1056800060FD0000A35000004C04002054040020E2
:105690007D550000014F00006B4C0000814C000064
:1056A00000B500BF130096469446103928BFA0E805
:1056B0000C50FAD85FEA417C28BF0CC048BF40F8C4
:1056C000042BC90728BF20F8022B48BF00F8012B84
:1056D00000BD0000DFF800F01D9A01100120FFF767
:1056E000F9BF00001B4213D1094236D12AB18446CA
:1056F000B0FBF2F002FB10C2704700F0EBB8FCD335
:105700000022002370470B00020000210020704798
:10571000904271EB030CF6D370B5B1FA81F4B3FA91
:1057200083F52C1BA340C4F1200532FA05F6334360
:10573000A2405FF00046E64002E05B085FEA32020A
:10574000841A71EB030524BF204629467641F4D321
:1057500002000B003000002170BD012ACFD970B5C6
:10576000140C20D0B1FA81F4B2FA82F5C4F120040D
:105770006419B4F12006D6D3B2405FF00044F4407F
:10578000002502E052085FEA3303C61A71EB020EED
:1057900024BF3046714664416D41F3D302000B00D3
:1057A0002000290070BD0C46B1FBF2F102FB11454F
:1057B0002D0445EA1045B5FBF2F402FB145580B206
:1057C00040EA0545B5FBF2F002FB105240EA044006
:1057D00070BD00000148007D704700BFA40100209B
:1057E00010B5044601E0FDF773F9B4FA84F02028FF
:1057F00006D000F017F8F6DB401FFDF77EF9F4E75E
:1058000010BD10B5044601E0FDF7FDF8B4FA84F0D0
:10581000202806D000F006F8F6DB401FFDF709F956
:10582000F4E710BDC0F11F00C0B2012181404C401F
:105830000528704738B5044601206071244D207951
:10584000A8B1FFF712FA04462878FF2805D12046B0
:10585000FFF716FA6FF0060032BD401C2870C0B288
:10586000012804BF6868FFF7BBFF204614E0FFF77C
:10587000FCF9297821B9FFF703FA6FF0070032BD70
:10588000491E2970C9B239B9FFF7FAF96868FFF7FC
:10589000B8FF0020607101E0FFF7F2F9002032BD8F
:1058A00080B5406810F07F4F00D00DE0FFF798FF03
:1058B000002002BD80B5406810F07F4F00D003E0AB
:1058C000FFF79FFF002002BD6FF0020002BD000045
:1058D0005C0400207047FEE7B41C0020B71C0020C9
:1058E000B61C0020B81C0020B51C002070F1000080
:1058F000181C00207C0C002020F6000024F600007C
:1059000040F6000028F6000015970000799200008C
:10591000F1D50000878C0000D1C50000738C000019
:1059200089920000198E000001940000C1D7000088
:10593000398E00003DF00000ADF70000DB330000C1
:10594000F7320000358C000089B200009DE70000AE
:1059500035F100004D8D000009FB00009B8C00001C
:1059600091FD0000C5FC00000DEB000079D50000A2
:10597000C1980000D1970000F1A7001091BB001062
:10598000A5BC00108DBA001075A80010F9FC00002D
:10599000CDB20000B9A90010F1A9001005FD00006A
:1059A000B1BA001005AB00101DA9001045940110FC
:1059B00079BD001051BD001021BE001039A80010A3
:1059C0007DA9001011FD0000FDA700102DBC0010E6
:1059D00041BA001021AE0010A9AF00108DAF001029
:1059E00089AB001079B00010BDB0001041AC0010C0
:1059F00081AC001009AC0010E5AB001061AC0010E8
:105A0000F949001071BE0010955F0010D9490010CF
:105A1000615F001049C7001079520010FD5A001054
:105A2000855E0010BD4B0010E950001035CB001012
:105A3000E94F0010454E0010154D001095C600109E
:105A400001CA001069CA0010B55A0010615A00104E
:105A500021C90010954A0010494B001069490010F7
:105A6000B54A00105DB9001001570010C161001067
:105A70008D490010814C0010594B00107D4B0010D7
:105A80004D61001025C80010D14B0010ADC80010AA
:105A9000B54C0010ED4A0010314C0010614A001066
:105AA0008951001029520010E5BE0010254A00104F
:105AB00085B3000065940110F15500109D5500104C
:105AC0006D530010AD490010195900109557001082
:105AD000395700104D60001045490010814D0010ED
:105AE000FD610010F97201109D720110E1E40000E7
:105AF0008574011061730110217201100D72011083
:105B000035720110CD710110E5710110597201104B
:105B1000AD7101107D6D0010C16D0010C1680010E5
:105B2000996D0010C5680010C9680010BD6C0010A8
:105B3000596B0010756D0010596E0010796D0010D2
:105B4000B96C0010016A0010B56A00106569001098
:105B5000256E0010A1680010216E0010556D001018
:105B6000056D0010D9B90010ED6D0010996C001092
:105B70008D6B001029690010956C0010ED68001005
:105B80009D6C0010596800101D6C001041690010D8
:105B900069680010A98C0110B18B0110ED8B011008
:105BA000F98D0110518C0110258C0110118C011000
:105BB000818B0110418D011045F4000051A50010AA
:105BC0005DA50010A9A50010ADA5001065BF0010CF
:105BD000096300107D6300106962001035630010D6
:105BE000BD630010AD93001071930010898F0010F9
:105BF000DD9300107DE80000598F0010BDB2001049
:105C000089B2001019680010F9C00010D5670010A3
:105C100015C000106DB100104DB200106DB2001033
:105C200025640010216500109D6500101D660010A0
:105C3000256600108566001015E7000081670010DA
:105C4000296D011021700110196F0110716D011083
:105C5000896E0110016F0110596E0110E56F01107E
:105C600039710110FD6F0110E5AE0000A9E90000D7
:105C7000F5A40010718D0010F1800010B9800010A3
:105C80003D990110018B0010354401100572001080
:105C90007984001085830010A9850010B986001052
:105CA0009986001099AD0000097F0010AD7E0010AC
:105CB0009186001069860010818B001061EF000052
:105CC0003586001079B2000031AA000011F40000FE
:105CD00045FC0000B1970110F57F0010E97100103C
:105CE000757000109D92001021860010D192001056
:105CF000B9950010E1850010B57F0010DD86001019
:105D0000053F01108D820010697F0010ED6F0010BB
:105D1000996F0010B170001031A700002DAE000087
:105D200049890010498000109171001051720010D3
:105D3000DD940010297800109D890010D58900108D
:105D4000099500102D7A0010897C0010DD7C001070
:105D500059760010B9940010753B0110AD7B00100E
:105D6000FD8700105D880010397C0010A58A0010A6
:105D70007974001075940010ED7A0010197B0010F2
:105D8000E57D0010497E00105D7D0010B99701107F
:105D9000DD9701102DEA0000458E00106D87001080
:105DA000057E01104D800110557F01107D7F01108F
:105DB0007D7D01103D800110F17F011019800110DF
:105DC000E57D0110917E0110D57F0110E580011065
:105DD000B17F011021800110D57E01102D540110DA
:105DE000AD4F01109550011085910110C591011022
:105DF0009D9201107592011059500110D990011017
:105E00000591011019F200009192011031920110D8
:105E10003952011069520110A55001102D50011086
:105E2000E54C011091530110B94E0110BD52011003
:105E3000A9520110FD530110215301108553011087
:105E4000895101104D530110DD510110ED4F01102A
:105E5000514F011099500110D14C0110D97A011005
:105E6000C97C01103D7C0110317B0110BD7B01100C
:105E7000754D0110694E01102D4E0110F94C0110A5
:105E8000E952011009530110054E0110495C01103F
:105E90008D5C0110895D0110C95C01101D6001104D
:105EA000A15F0110F95E0110355F0110295E01103C
:105EB0002D5F01106D5E01101161011079610110FB
:105EC000398E0110598E011025900110BD8E0110E0
:105ED000818E01101D620110659001104590011026
:105EE000815C0110FD5F0110BD5C0110415D01107E
:105EF000E55B0110795F0110D15E0110E55D0110D5
:105F0000155F0110515E0110755E0110FD8F0110CB
:105F1000518F0110BD8F0110F18E0110918F011072
:105F20002D8F0110318E0110E9610110ED8F0110EC
:105F300071600110999001104D81011005840110CC
:105F400089840110BDFD001055FD001005FE0010F4
:105F500089FA0010CDFF001041830110BDFE001032
:105F6000ADFE00105D83011011FC001059FC001003
:105F70005D0601101D060110B183011035060110E8
:105F8000A9820110190501106D02011019060110F6
:105F90009D03011011DC00009D040110C1030110DC
:105FA000F90301109D050110F5810110E181011037
:105FB000E90401102104011021810110850601105E
:105FC0008D8301101D070110E1060110B9060110B3
:105FD000E90001109D060110AD0001100D830110B4
:105FE00021830110C9000110D50C01101DEF000024
:105FF000D5ED0000D514011009140110F9080110A5
:106000004D130110FDEF0000D91201107D0A01109F
:106010000512011031C90000DD0D011031DE000054
:10602000D50F0110A90E01105D0D011075EB0000D8
:1060300035DA000021F500006511011099450110C5
:10604000A5850110F5840110FD88011029180110A3
:1060500071890110B58A0110098B0110118A011094
:1060600009890110498B011041870110AD8701108A
:10607000A58701107D8701107587011069870110C0
:10608000858701100987011079860110BD860110EE
:10609000E98701108D1C0110C11D0110011E0110A6
:1060A000751F0110FD1E0110E11901102DE90000FE
:1060B000C11A0110F9200110251E0110351C011014
:1060C000811E01104D19011019190110B51C011084
:1060D000851B0110F91B0110AD95011049950110A8
:1060E0002595011029950110A195011035950110F4
:1060F000DD93011085930110999301100194011013
:10610000FD4901106D470110BD4A0110894A011077
:10611000C9490110394A0110714A0110514C01104E
:10612000B5490110E54B01101D4C0110A14B0110A8
:10613000BD4701108148011051490110B1480110BB
:10614000754C0110B78C000065240110C384000059
:1061500091EB0010EDEA00102125011015770110D8
:1061600065770110C1760110892701107D28011083
:1061700061280110E1230110452401105924011068
:10618000B12301107D210110A52101100924011066
:106190005D220110252601109528011061290110AA
:1061A000012B0110452C0110652301104D23011016
:1061B0004D28011019F80010CDF9001085F90010D4
:1061C00011F9001015F200103DE1000029F1001056
:1061D000B9F20010D9F0001049F1001065F4001078
:1061E00065F50010A1EC0010F1EE00108DF5001027
:1061F00055F80010C1F8001099F8001069F8001067
:10620000FDF80010EDEC001025EE00105DF0001020
:1062100099EC00103DCB00008DF1001035F400101A
:10622000F9ED001081F60000F1F90010BDF1001049
:10623000BDF00010DDEC00105DF3001001F5001062
:106240004DDF00001DF0001065330110CD3401104A
:106250003D35011041360110FD3501108935011021
:10626000653101105134011035330110ED31011049
:1062700061300110A1360110AD6401107965011083
:1062800049650110E56401100D640110D966011023
:106290007D6401106D6601104564011055620110A6
:1062A0007D6201106962011025660110ED65011023
:1062B000C9640110C96501109D65011029670110AD
:1062C0001165011029640110F56601108D6401103B
:1062D0009D660110616401102D6301104966011073
:1062E000096601103D67011050F8382F1143016015
:1062F000704750F8382F22EA010101607047817D14
:10630000FF291CBFC07DFF2801D00120704700205D
:10631000704738B50446FCF706FA0546207820B9E0
:106320000220FCF7D5FB012020700BE038B50446B5
:10633000FCF7F9F90546207820B10220FCF763FB51
:10634000002020702846BDE83240FCF7FCB94068C8
:10635000D030FCF7CEBF4068EC30FCF7CABF70B558
:10636000456886680C466CB12A6A3068117800F07E
:10637000A6FC38B1286A411C686A2962401C641E68
:106380006862F0E7204670BD70B5456886680C46C7
:106390007CB1306800F089FC10F1010F09D0296B45
:1063A0000870641E286B411C686B2963401C68637D
:1063B000EEE7204670BD70B5456886680C4664B14E
:1063C000306800F072FC10F1010F06D0C1B205F187
:1063D000400000F0A7FC641EF1E7204670BD70B5D8
:1063E000466806F584750C462846FCF73FFADFF848
:1063F000D807337F717F0268DFF8D007CB18DB1D29
:106400005C434443B069B4FBF0F010186330B0FB58
:10641000F2F1491C2846FCF725FA2846BDE87040F1
:10642000FCF722BA70B50546AE6830686C68183063
:106430000068000710D5DFF890170A684FF4FA706B
:10644000B0FBF2F1012904F5847498BF01212046C4
:10645000FCF708FA2046E1E7DFF87407FFF766FF6C
:1064600030682021FFF745FF00F07EFA626A206A5B
:106470002369514201442162284672E238B504463C
:106480000D4620212868FFF734FF297D606E012228
:1064900000F045FE297D606E012200F05AFE297D44
:1064A000606E002200F080FEA97D606E002200F088
:1064B0007BFEA078012805D1296851F8180F000744
:1064C000FAD405E04FF0FF3104F1D000FCF708FFEB
:1064D00000F094FB2846FFF712FF30B1A97D606EF3
:1064E000BDE83840112200F05FBE31BD2DE9F04714
:1064F00080460024D8F808502868D8F8049000F1A5
:10650000400100F144020E68166009F13007BA68D4
:106510007B69D7F818A016F4F06F1146A3EB0A0AAE
:1065200033D0720518D500222029CCBF20250D4676
:10653000294650F8044F026000F063F8C5F12001CD
:106540005145C8BF51464046FFF735FF04F00F04E0
:1065500015E0B968491EB960B96881B1012100F040
:1065600050F8296851F8040F0C6010F00F00F0D0BB
:1065700004463868411E39607968491E796089F897
:106580001F40404600F072FA28E0700609F19C05B1
:106590000ED5F9B100F035F8B86099F82D0008B1C2
:1065A000BC6001E0B868C8B92846FCF745FE15E0B4
:1065B000F00613D571B13C7B641E944288BF14462B
:1065C000214600F01EF8B868041BBC6006D12846BE
:1065D000FCF732FE51464046FFF7EDFEB0060ED501
:1065E000D9F828405CB121464046FFF7B8FEC9F80B
:1065F000280020B9211D4046BDE8F047EFE6BDE880
:10660000F0874046C0E638B50446DFF8C80565683F
:10661000FFF78CFE44E2406800210170DFF8B4050A
:10662000017041707047F0B5064685B07468B56872
:106630000F46FCF778F82178012941D0012121701B
:10664000FCF781F83878607000217878A07078685D
:106650006060B868A060F868E06038692061387DE3
:106660002075787D6075B87DA075B869A061387FA8
:106670002077787F6077B87FA0770020206204F1D0
:106680002C00416061628160A162C1600170417053
:1066900010210174002141746868FCF72EFA30461D
:1066A00000F009FA304600F055FA68B9286800F0A1
:1066B000EBFA6868FCF7BDF9FCF735F800212170AA
:1066C000FCF741F800204DE06846FCF734F80096EE
:1066D0006B46287BDFF80025019004F18000A96853
:1066E000FBF7FFFF6846FCF778FD00966A462869CD
:1066F000DFF8E814029004F19C00FCF776FDA07826
:1067000038B9002104F1D000FCF7BDFDDFF8D0045A
:106710002061607838B9002104F1EC00FCF7B3FD8A
:10672000DFF8C004E0606846FCF799F800200190AB
:106730008DF8000002966B460A22DFF8AC1404F5CF
:106740008470FCF762F8EA69A96904F1400000F07E
:10675000C3FA33460FF2B142042104F16C00FCF796
:1067600040F9304605B0F0BD70B505466C68AE68BE
:10677000606E00F0C7FC306840F2F271FFF7B9FDBF
:10678000284600F0C1F8284600F070F9316801F1A0
:106790002C00026822F01002026051F8303FDFF84E
:1067A0004C0403400B607068FCF743F904F180006F
:1067B000FBF7B7FF04F19C00FCF736FDA07818B991
:1067C00004F1D000FCF78AFD607818B904F1EC0000
:1067D000FCF784FD04F58470FCF734F8FBF7A3FFA5
:1067E00000212170FBF7AFFF04F16C00BDE87040A1
:1067F000FCF7D3BA70B5446820296FF0010208D0C5
:1068000023D3222909D03EBF002084F82D00002286
:106810001BE0012084F82D0016E08568FBF783FF5C
:106820000646286800F041FA10F1010FF9D104F191
:106830003800002101610022C1688261491E416166
:1068400002603046FBF77FFF0022104670BD2DE945
:10685000F84307467C68BD6888469146FBF763FFAE
:106860000646A06A18B13046FBF76DFF43E004F519
:106870008470FBF7FBFF0020E0776062C4F82080A3
:106880003046FBF760FFD34E701CFFF742FDDFF888
:106890006003016841F48071016038464946FFF7A2
:1068A0005EFDA06204F1D00858B949463846FFF7AA
:1068B00096FDA07820BBA1684046FCF711FDE8B129
:1068C0000EE028682021FFF70FFDA078C0B9A1686D
:1068D0004046FCF705FD88B149463846FFF77FFD85
:1068E0000020A06229461020E0772046FFF7C6FD71
:1068F000701CFFF71BFD4FF0FF3002E0606A00E004
:106900000020BDE8F283AEE070B504466568A66875
:10691000FBF709FFA96A41B9326852F8181F090745
:1069200003D4BDE87040FBF70EBF0021A962FBF75E
:106930000AFF3046FFF7E3FC18B131462846FFF75F
:106940009DFD30682021FFF7D4FC00F00DF8A04831
:10695000FFF7ECFC6A6A286A2B69514201442962FC
:106960002046BDE870401847A148016821F48071B5
:10697000016070472DE9F843074615467C68D7F853
:10698000088004F13006B06810B14FF0FF3067E0C6
:106990000022E277316070600DE04846FBF7D3FEDD
:1069A00031689DF8000008706D1E3068411C316030
:1069B0007168491C7160002D46D0FBF7B4FE81461A
:1069C000694604F1400000F090F90028E5D5B56073
:1069D0004846FBF7B8FE7F4D2846FFF79AFC8448EF
:1069E000016841F4007101604FF4FA61D8F80000C9
:1069F000FFF77AFC6078C0B904F1EC0761683846AB
:106A0000FCF76EFC58B30020B06000213846FCF75C
:106A100067FC20B32846FFF789FC7168306849425B
:106A2000084430601020E07719E094F82D10002918
:106A30001CBF7068002805D00021B16004F19C00E3
:106A4000FCF7FAFB00200BE0726830685142014409
:106A500031606078012802D1E36838469847706851
