:020000040000FA
:10000000004400205D2A010001C9011001C901104E
:1000100001C9011001C9011001C9011001C9011074
:1000200001C9011001C9011001C9011001C9011064
:1000300001C9011001C901103FC90110F0B4024605
:10004000106895681318506803EB5004C00721D559
:100050004D441FE0F0BC02F10C00704713F8017B27
:1000600005F8017B491EF9D1A0B1B60813F8011BB0
:1000700006F00306032E08BF13F8016B01EB0621FF
:100080004942801C294405D011F8016B05F8016B29
:10009000401EF9D1A342DDD013F8016B16F0030125
:1000A00004BF13F8011BC91C30090F28DAD113F85B
:1000B000010B0F30D6E7000062B38B0708D0521E49
:1000C00011F8013B00F8013B00F024808B07F6D1CA
:1000D000830740F0208000BF103A07D330B4B1E866
:1000E0003810103AA0E83810F9D230BC530724BFBA
:1000F000B1E80810A0E8081044BF51F8043B40F8EC
:10010000043BD20724BF31F8022B20F8022B44BF56
:100110000B7803707047121F17D35B0009D151F899
:10012000043B20F8023B1B0C121F20F8023BF6D2C6
:100130000BE051F8043B00F8013B1B0A20F8023B9E
:100140001B0C121F00F8013BF3D238BF121D521EC8
:1001500024BF11F8013B00F8013BF8D87047024674
:1001600081B01078022903D1517800EB012013E00F
:10017000032906D15178927800EB012000EB024070
:100180000AE0042908D15178937800EB0120D17856
:1001900000EB034000EB016001B07047002200F06B
:1001A00097B901700A0A42700A0C090E8270C17078
:1001B000001D704770B504461048016882B088473A
:1001C0000F4A05461068002101E00146006870B141
:1001D00000F108039C4222BF86889B19A342F4D3F6
:1001E000036800290CBF13600B6000F08BF92846F0
:1001F00002B0BDE8704003490A6810479C02002025
:10020000041A0020A0020020002200F087B9001884
:1002100003460020002B00D1704730B50120002498
:1002200000E0641CA5B2954204D2A4B21D5D8D42CB
:10023000F7D0002030BD00000300002013F0030FB2
:1002400009D0521E22BF13F8010B11F801CBB0EBFD
:100250000C00F3D0704711F0030F14D1121F22BF0E
:1002600053F8040B51F804CB6045F7D0121D0AD2A5
:1002700000BA9CFA8CFCB0EB0C0038BF6FF00000A9
:1002800088BF01207047521E22BF13F8010B11F8DE
:1002900001CBB0EB0C00F6D0521C08BF10467047E3
:1002A00038B504460D4600F069F958B16D42611940
:1002B00000F10803994222BF80881818884201D3B0
:1002C000084632BD204632BDDFF800F01D9A01100D
:1002D0000120FFF7F9BF01181B4213D1094236D1A3
:1002E0002AB18446B0FBF2F002FB10C2704700F066
:1002F00057B9FCD30022002370470B0002000021F5
:1003000000207047904271EB030CF6D370B5B1FA40
:1003100081F4B3FA83F52C1BA340C4F1200532FA13
:1003200005F63343A2405FF00046E64002E05B087A
:100330005FEA3202841A71EB030524BF2046294686
:100340007641F4D302000B003000002170BD012A79
:10035000CFD970B5140C20D0B1FA81F4B2FA82F57D
:10036000C4F120046419B4F12006D6D3B2405FF082
:100370000044F440002502E052085FEA3303C61A45
:1003800071EB020E24BF3046714664416D41F3D3D8
:1003900002000B002000290070BD0C46B1FBF2F1F9
:1003A00002FB11452D0445EA1045B5FBF2F402FBB2
:1003B000145580B240EA0545B5FBF2F002FB10523D
:1003C00040EA044070BD00280148007D704700BF2E
:1003D000A401002010B5044601E004F0E3F9B4FAEA
:1003E00084F0202806D000F017F8F6DB401F04F058
:1003F000EEF9F4E710BD10B5044601E004F06DF924
:10040000B4FA84F0202806D000F006F8F6DB401F8E
:1004100004F079F9F4E710BDC0F11F00C0B201216A
:1004200081404C400528704738B504460120607172
:10043000244D2079A8B103F060FB04462878FF28FA
:1004400005D1204603F064FB6FF0060032BD401C6E
:100450002870C0B2012804BF6868FFF7BBFF2046C0
:1004600014E003F04AFB297821B903F051FB6FF047
:10047000070032BD491E2970C9B239B903F048FBE3
:100480006868FFF7B8FF0020607101E003F040FBEF
:10049000002032BD80B5406810F07F4F00D00DE0E5
:1004A000FFF798FF002002BD80B5406810F07F4F35
:1004B00000D003E0FFF79FFF002002BD6FF00200B5
:1004C00002BD0000B002002062F30F2262F31F425F
:1004D00000B500BF130096469446103928BFA0E827
:1004E0000C50FAD85FEA417C28BF0CC048BF40F8E6
:1004F000042BC90728BF20F8022B48BF00F8012BA6
:1005000000BD012802490A6852F8383F184700BF69
:10051000CC1A002062F30F2262F31F42401810F041
:10052000030308D0C91A1FD3DB0748BF00F8012D09
:1005300028BF20F8022D130030B414461546103998
:1005400028BF20E93C00FAD8490728BF20E90C0061
:1005500048BF40F8042D890028BF20F8022D48BF6D
:1005600000F8012D30BC7047C91818BF00F8012DE4
:10057000CB0728BF00F8012D70470228014681B043
:100580000648006838B100F10802914222BF838812
:10059000D2188A42F5D301B0704700BF041A002078
:1005A00070470328DFF800F0C1BF0110DFF800F04A
:1005B000B9BA0110DFF800F0E5C00110DFF800F073
:1005C0001FBE0110DFF800F069B20110DFF800F083
:1005D000DDC00110DFF800F091BE011020B108234A
:1005E00024220021FFF7DEBF7047F0B51C0089B060
:1005F00005460E46174603D10023FFF7E3FF0AE046
:100600006846FFF7EBFFA06806906B463A46314616
:100610002846FFF7D7FF0E480E4A016811602846AA
:1006200009B0F0BDFFF7D2BFFFF7D4BF05F020B887
:1006300080B505F034F800B10120C0B202BD002140
:1006400081607047FFF7B6BFFFF7B8BFFFF7AEBFD7
:10065000BC2B01000C1A0020006808B9012070476B
:1006600000207047006870470068704738B504463E
:100670000D4600F05AF800212960616869606168E0
:10068000002914BF0D6025606560FFE7BDE83240BA
:1006900000F05BB80A684B68002A0CBF43605360E7
:1006A0004A6809680AB901607047116070470229F9
:1006B000DFF800F085BF0110DFF800F061C0011025
:1006C000DFF800F079BF0110DFF800F0A9C00110D9
:1006D000DFF800F089AF011020B10823302200219B
:1006E000FFF7EEBF7047F0B51C008DB005460E4613
:1006F000174603D1002304F0D9FF0CE06846FFF74A
:10070000EBFF206805906B46606808903A4600F061
:1007100004F804F0CBFF0DB0F0BD207AADF818005E
:10072000314628467047FFF7CFBFFFF7C1BFFFF73D
:10073000CFBF04F0DBBF04F0E3BF002101604FF046
:10074000FF314160012101727047FFF7B5BF002AF8
:10075000DFF800F031BF0110DFF800F0F5B701104D
:1007600030BF7047FCE738B504F0A2FC04F052FC3F
:1007700003F0FBFE054605F00C000C2853D068077B
:1007800029D404F0C5FF04460121012003F0F1FE45
:100790003349096801FB04F290421CD2F020B0FBFF
:1007A000F1F03049241A887C18B1C868A04238BFDB
:1007B00004462D4D214605F10C00FFF7FBFE05F127
:1007C0000C00FFF7FBFE012004F055F805F10C00CA
:1007D000FFF7ECFE29E0280725D4244C2448216AA1
:1007E0008A6890470428F8D0EA06224900D420B944
:1007F000086840F00100086003E00A6852085200EF
:100800000A601D481D4D016841F003010160202070
:1008100022689169884728682068816B8847012190
:100820002960286801E0FFF79DFFBDE8314004F032
:1008300043BC10B5124CFFF78BFF206011480068D5
:1008400008B18047606010BD10B50F480C4C0168BE
:1008500009B1606888472068BDE81040FFF77CBF99
:10086000BC2B0100A4070100C4040020B801001043
:10087000004003408C210840242208402C200940DD
:10088000F4190020982B01009C2B0100DFF800F0E8
:100890001D62011038B50D29044615461AD194F889
:1008A0002410491C84F824102088FFF7EFFF2988C2
:1008B000401E814216DBE0890918E18104F10C0138
:1008C00020880EF033FA207A47F2305109F0D2FE38
:1008D000162032BD2979072902D194F8240008B9DD
:1008E000012032BD002032BD10B51129044616D1B9
:1008F00011885088491E414394F82400401C84F814
:10090000240089B2506808444FF6FF728178C0789D
:1009100001EB002189B291420AD1002010BD11796A
:100920000A2903D194F824000028F6D1012010BD33
:10093000491CA18189B2E0898842EED3208804F164
:100940000C010EF0FFF9207A47F2305109F092FEC7
:10095000162010BDF0B50E460446172E83B0104683
:1009600047F2305532D1627D21690C277A438B18CA
:1009700002881988914202BF59884288914202BF79
:1009800082889988914221D1816898680BF058F843
:10099000E0B1607D227D401CC1B29142607511D2F0
:1009A0002169C0B24743C819816800918388428891
:1009B000018820880EF0D8F940B9207A294609F03C
:1009C00059FE16E0A07D8DF8040002E000218DF8AC
:1009D000041001A920880EF0EBF9012E01D10120AD
:1009E000FEBD207A294609F045FE1920A070024874
:1009F00060601620FEBD00BF11600110F0B50E460C
:100A0000172E83B0044647F2305526D12088FFF7D1
:100A10003DFFA28BA38A411F8A18A283618AA28B01
:100A2000511A89B2994214DAA0F1050C5F1ABC453B
:100A3000B4BF431F5B1AA069084400909BB2218A8F
:100A400020880EF091F940B9207A294609F012FE6B
:100A500016E001208DF8040002E000218DF804105A
:100A600001A920880EF0A4F9012E01D10120FEBDBC
:100A7000207A294609F0FEFD1920A0700148606027
:100A80001620FEBD1160011083010001A10CD003EE
:100A900090040020000152C0142002340100200400
:100AA000523C041200011007101B00205C170020AC
:100AB0006004C20001C00520010100009416185214
:100AC0000001100708020020DC0300200111C3010F
:100AD0000001129418210422000150026CDC020073
:100AE0000150034C030020030D100357E40000A144
:100AF00004F30101000120020C0400201712000180
:100B00000002080200205200015200011200010000
:100B100002080000000300000000000000000000C8
:100B200000000000000000000000000000000000C5
:100B300000000000000000000000000000000000B5
:100B400000000000000000000000000000000000A5
:100B50000000000000000000000000000000000095
:10100000B41200001810000015AB0110FDB3011060
:101010006DC00110FDAE011099B501100000000077
:10102000000000002D000000B01200003C10000085
:10103000B1C00110A9BF011067C0011069B801104B
:10104000000000000000000030000000B0120000AE
:1010500060100000BDC00110CDB30110D9BD01105A
:101060006DB301100000000000000000310000001E
:101070000000000000030020040000000000000049
:1010800000000000200000000023010030000000EC
:1010900028100000200300200400000000000000D1
:1010A000000000000C0000009C2901001800000056
:1010B0004C10000028030020040000000000000085
:1010C0000000000024000000B42901001800000006
:1010D0000000000068030020040000000000000081
:1010E0000000000010000000D02301002C000000D0
:1010F0000010000084030020040000000000000035
:1011000000000000200000007826010024000000FC
:10111000FFFFFFFF8C030020040000000000000020
:1011200000000000280000009C26010024000000B0
:10113000FFFFFFFFB40300200400000000000000D8
:101140000000000014000000CC290100180000007D
:10115000FFFFFFFFBC0300200400000000000000B0
:1011600000000000580000004C2101003400000085
:10117000FFFFFFFFC4030020040000000000000088
:101180000000000010000000E42901001800000029
:10119000FFFFFFFFCC030020040000000000000060
:1011A000000000001C000000C02601002400000018
:1011B000FFFFFFFFD4030020040000000000000038
:1011C0000000000038000000882501002800000011
:1011D000FFFFFFFF3C0400200400000000000000AF
:1011E0000000000054000000081D01003C00000049
:1011F00001000000C02B01000100000000000E00F3
:1012000000000F0032000000010000000803002071
:10121000000200000000000001C9011000000000F1
:101220000000000008000000000022003003002041
:1012300000000000000000000800000094030020EF
:101240000000000000000000080000000000000096
:10125000000000000000000000000000010000008D
:10126000DC03002006000000010000004404002010
:10127000000000000000000000020000000000006C
:10128000290001002500300031002D00010001007F
:1012900004000000B02A010000000000000000006F
:1012A000000001000000030013C40110B5E40000B9
:1012B000B8120000B81200000000000078030020FF
:1012C00015E4000020000000742A0100B025010090
:1012D00029C10110579E00008BC30000A1C7011057
:1012E000A3C70110000000008F12000004190100C4
:1012F0001C190100EC1801000200090001000000A7
:1013000001000000552501002B250100ED280100FA
:10131000B9210100CF2201007D190100950E0100C5
:10132000152A01008DE30000EDE40000F1E4000067
:10133000DFF800F0B9500110DFF800F0595001104B
:10134000DFF800F05D5C0110DFF800F0A15C011037
:10135000DFF800F0BD5C0110DFF800F0E15C011087
:10136000DFF800F0415D0110DFF800F0915D011041
:10137000DFF800F02D5E0110DFF800F0515E011083
:10138000DFF800F0715E0110DFF800F0D15E0110AF
:10139000DFF800F0FD5E0110DFF800F0155F0110CE
:1013A000DFF800F0315F0110DFF800F0495F011055
:1013B000DFF800F0755E0110DFF800F0A55E0110A7
:1013C000DFF800F0795F0110DFF800F0C15F011075
:1013D000DFF800F0FD5F0110DFF800F01160011090
:1013E000DFF800F065600110DFF800F01161011016
:1013F000DFF800F0E55D0110DFF800F03560011066
:10140000DFF800F02D540110DFF800F0D550011086
:10141000DFF800F095500110DFF800F0AD4F01103B
:10142000DFF800F0495C0110DFF800F07D5C01108E
:10143000DFF800F08D5C0110DFF800F0B95C0110FE
:10144000DFF800F0C95C0110DFF800F0255D011045
:10145000DFF800F0895D0110DFF800F0295E01106F
:10146000DFF800F04D5E0110DFF800F06D5E011056
:10147000DFF800F0B15E0110DFF800F0F95E011056
:10148000DFF800F00D5F0110DFF800F02D5F0110B4
:10149000DFF800F0A55D0110DFF800F0355F011006
:1014A000DFF800F0A15E0110DFF800F0755F0110B9
:1014B000DFF800F0A15F0110DFF800F0F55F011028
:1014C000DFF800F01D60011038B5DFF834496060C6
:1014D000E1602370194600F0B4FF0246DFF82419DA
:1014E000DFF8245900F09AFF00F0AAFF0246DFF867
:1014F0001C1900F093FF00F0A3FF0246DFF810195B
:1015000000F08CFF04F1140000901023022200F080
:1015100009F802F01EF900F005F802F014F900F0E5
:1015200001F831BD2946102002F085BFDFF8E4281C
:1015300012680146002012F1010F00D1704770B50A
:1015400000230FF2F0140C255D43665B8E4201BF51
:1015500065196D6825F00045954203D05B1C602B32
:10156000F1D370BD012070BD30B5044683B0207842
:10157000932803D12046BDE83E404BE3022803D127
:101580002046BDE83E401BE0032804BFA0780228A7
:1015900015D1E5682289DFF8801800F03FFFE06090
:1015A00068B122892946FEF787FDE068DFF86C18EC
:1015B000019020890090A379A288FFF7B4FF37BD7E
:1015C0002DE9F041074696B078684678817806EBB9
:1015D0000126DFF82C1849680025B6B201B188470A
:1015E0000C240FF2501804FB05F038F80000B0424C
:1015F00003D06D1C602DF3D36FD00AA83021FEF705
:10160000CDFD04FB05FE08EB0E03796898780122F6
:10161000091D20B19B685B1C13F8015C01E00833D5
:10162000082500260AAC17E0062204E0082202E0A2
:10163000102200E00A7847072DD500F00B0044F88F
:101640002610022824D0032814BF891801EB820138
:1016500001E000284FD0761CAE424CDA06EBD6777C
:101660007F10D85DA6EB4707BF00F84000F00F00E1
:101670000707E0D5A0F10C02032ADBD8DFE802F06F
:1016800006050403D6E7D3E7D0E7CDE70222D2E789
:1016900001EB4201DFE703280DD108784F7800EB1A
:1016A00007208F7800EB0740CF7800EB076044F805
:1016B0002600091DCFE7022808D108784F7800EBF3
:1016C000072080B244F82600891CC4E70128C0D155
:1016D00011F8010B44F82600BDE7012001A98DF89F
:1016E0000400009101233246DFF8481D00F09EFE01
:1016F00016B0BDE8F081159814990A9A09900891DE
:10170000139812990790069111980F990590A06966
:101710000490039120690290E0680190A068009015
:1017200008F1040050F80E10636821F00041FFF743
:10173000FAFEDDE70514000025AB001002000000F2
:10174000010C0000C5A8001005000000630C00009B
:10175000F1A8001005000000030C00001DA90010F6
:10176000000000000110000051AA0010000000005D
:1017700002100000C1AA00100000000003100000C9
:10178000DDAA0010000000000910000005AB0010E9
:10179000000000001D200000FDB20010010000004C
:1017A0001E200000E1B20010110100001F20000007
:1017B0001DB300100000000017200000A118010058
:1017C000FF0000001820000021AF00100000000002
:1017D0001C200000C5AF0010000000000F2000001A
:1017E00075AD00100000000010200000A9AD001031
:1017F0000000000011200000C9AD0010D100000061
:1018000012200000FDAD0010D100000001200000FA
:1018100061AB00100500000003200000C5AB001004
:10182000000000000220000089AB00100000000052
:1018300005200000E5AB00100500000007200000B7
:10184000A1AC0010000000000604000075A8001004
:1018500012000000152000006DAE00100200000014
:101860001620000095AE0010020000001D040000CC
:1018700091A80010020000002D0C000059A90010D2
:1018800012000000310C00007DA9001001000000D2
:10189000330C0000B9A9001012220000350C000022
:1018A000F1A9001069060000142000004DAE0010E0
:1018B000050000002F20000041B1001000000000D2
:1018C00022200000D9B000102202000024200000D5
:1018D00021B100102200000023200000F5B000100C
:1018E000000000007B0C000001B00010620000004E
:1018F0007C0C000041B000102200000020200000FD
:1019000079B000102222220221200000BDB0001078
:1019100012000000272000006DB10010D1FF000070
:101920002820000091B10010D10000002920000003
:10193000B1B10010000000002A200000D1B1001059
:10194000000000002B200000F5B10010D1000000C5
:101950002C2000002DB20010D10000002D2000002E
:101960004DB20010010000002E2000006DB20010EA
:10197000020000002520000089B2001000000000D5
:1019800026200000BDB20010050000000620000067
:1019900009AC00102211D1110820000041AC001048
:1019A000510000000920000061AC0010510000004F
:1019B0000A20000081AC0010010000000B20000094
:1019C000C5AC0010211201000C200000F1AC001089
:1019D000110000000D20010011AD0010B802002020
:1019E0000E20000055AD001000000000192000007E
:1019F00071AF0010E2FC00001320000021AE0010C7
:101A0000222222021A2000008DAF0010F2000000F6
:101A10001B200000A9AF00100200000001FC000024
:101A200081B30010010000001BFC0000A5B70010EE
:101A3000210000001CFC0000F1B7001002000000B3
:101A400005FC000091120100FF0000000EFC0000E8
:101A5000F9B500100000000008FC000009B50010F6
:101A60001100000009FC000029B500100000000072
:101A70000AFC000049B50010010000000BFC00004A
:101A800069B50010000000000CFC0000A1B50010BA
:101A90000D0000001DFC000025B800100100000032
:101AA00006FC000095B400100E00000011FC0000C0
:101AB00069B600100100000000FC000051B30010E6
:101AC0000100000016FC000039B700100000000003
:101AD00019FC00006DB700100100000003FC0000BD
:101AE000F5B300100100000004FC000015B4001064
:101AF0000100000012FC000089B600101100000077
:101B00000FFC000019B600100100000010FC0000DE
:101B100049B600100000000018FC000099B7001042
:101B20001202000013FC0000A9B600100200000021
:101B300014FC0000C9B60010120000001FFC0000D9
:101B400071B800101100000002FC0000C1B30010C9
:101B5000010000000DFC0000D9B5001002000000DB
:101B600020FC000091B800100000000024FC0000E0
:101B7000FD0C0100010000001EFC000051B8001027
:101B80000100000017FC00008DB7001021000000CC
:101B900007FC0000B5B40010010000001AFC0000B2
:101BA000D5B400100100000021FC000035B9001080
:101BB0002222000001F06BBA70B505460E4606F110
:101BC0000B00C0B202F0DBF9040022D00121217029
:101BD000FF2004F1080161606070042162681170E7
:101BE0006168487060688670300005D06068324671
:101BF0002946C01CFEF760FA8148C26822B16068BD
:101C00008178C91C89B290472046BDE8704002F037
:101C1000C4B970BD30B58BB000218DF80410406898
:101C200010F8011B8DF80810C31C0278417802EBF4
:101C30000122ADF80A208178BDF80A008DF80C1059
:101C4000C209521E042A04934AD8DFE802F0033482
:101C50003A3F44001C785A78694D00F07F0004EB4D
:101C600002240A28A4B202D0122811D038E08A1E19
:101C700092B2991C05A8FFF75BFB010031D12978CE
:101C800000F0DFFB009005AB2246DFF8AC170FE059
:101C90008A1E92B2991C05A8FFF74EFB010020D1C5
:101CA000297800F0CEFB009005AB2246DFF88C17B8
:101CB00000F0BCFB15E002A900F07F0000F0B0F8D6
:101CC0000FE000F029F800F0BFFB0AE000F024F874
:101CD00000F06AFE05E000F01FF800F022F800E0D6
:101CE0000120DFF89C2B90707F21BDF80A00D07096
:101CF0001170000A40F0FC000621107151709DF82F
:101D000004009DF804105071891DC9B21046FFF7F8
:101D100053FF00200BB030BD01AA02A900F07F00E4
:101D200070472DE9F041144684B000260128267042
:101D3000DFF84C5B04D002281AD004283AD05AE0CD
:101D40008F6879783E788846B8F1320F30DA3046BD
:101D500001F07EF960BBA81D0090434632462A4937
:101D6000FFF7E1FB0646C0B2002845D1787840E095
:101D70008C68257866783146284601F069F9B8B94B
:101D8000A01C009033462A46DFF8F81AFFF7CBFB79
:101D9000042D064630D1A078E178227900EB0120AD
:101DA000617900EB0240164A00EB0160906023E08D
:101DB000022621E06A46DFF8D01A102002F03BFB31
:101DC0000098A8716E73EE730098000AE87100988D
:101DD000000C2872BDF804006872000AA8729DF811
:101DE0000600E872BDF808002873BDF80A00A87361
:101DF0000A20207000E00126F0B204B0BDE8F081B6
:101E0000481200203181011055240100092B0100E6
:101E1000FD2A0100AC020020F1A7001039A8001033
:101E20002DE9F04F0F4689B03979402502294FF04E
:101E3000000BB8BF4020C0F21881BC6822786378DC
:101E4000DFF8488ADFF8486A401E02EB03221D28AB
:101E50001FFA82FA4FF6FF7900F28482DFE810F071
:101E60001E0029003A0047005500650084009400D8
:101E7000C100D600E30007011801330148015E01EB
:101E800077018701B90182028202C501EB010302D9
:101E90003B028202450282025A02780200F07CFA7A
:101EA000FFF74EFA002872D103AB5246DFF8E4196F
:101EB0001AE003A802908A1EA01C019200F0B1FA59
:101EC000002864D1317800F0BCFA00F083FADFF822
:101ED000C819D9E000F060FAFFF736FA002856D1A9
:101EE00003AB5246DFF8B41900F058FDCEE000F025
:101EF00075FAFFF72DFA002849D1317800F0A1FAE0
:101F000000F058FADFF8981960E000F04EFA5FEA46
:101F1000000B2DD000F03AFAFFF71EFA00282DD161
:101F200003AB5246DFF87C196AE000F057FAFFF77E
:101F300017FA00282BD100F01CFA002800F0F580D9
:101F4000BDF80C00012804BFBDF80E00484540F064
:101F5000EC80317800F075FA01905246BDF814001B
:101F6000069BDFF8441931E000F01FFA5FEA000B2E
:101F700078D000F00BFAFFF7F7F900286FD103AB28
:101F80005246DFF828193BE000F030FA002869D10A
:101F90009DF81030DFF8180900F0E6F938B1317813
:101FA00000F04FFA00F006FADFF808190EE09DF88D
:101FB0001030DFF8040900F0D7F90028317809D093
:101FC00000F03FFA00F0F6F9DFF8F0180090FFF7A4
:101FD000AAFA5BE000F035FA00F0FCF9DFF8E0184F
:101FE00052E000F0E2F95FEA000B3BD000F0CEF9DE
:101FF000FFF7BEF9002832D103AB5246DFF8C41810
:1020000000F0CCFC00F0CDF929D12BE000F0E6F98E
:10201000FFF7B2F930BB317800F013FA00F0DAF9CB
:10202000DFF8A41830E0022902DD00F0BEF9834693
:102030003879022802D0BBF1000F13D000F0A7F9C5
:10204000FFF79EF940B903AB5246DFF8801800F065
:10205000A5FC0546C0B228B1BBF1000F02D058461E
:10206000FEF7A8F8E8B201F005F800F09ABC00F01D
:10207000B5F9FFF789F90028F4D1317800F0E1F9DA
:1020800000F0A8F9DFF8481800F0D0F90546E9E7B4
:10209000022902DD00F089F983463879022802D04E
:1020A000BBF1000FDED000F072F9FFF771F90028E4
:1020B000D2D103AB5246DFF81C1800F06FFC00F0E1
:1020C00070F9C9D1CEE700F070F95FEA000BC9D012
:1020D00000F077F9FFF760F90028C0D1317800F0FF
:1020E000B0F900F077F9DFF8F01700F09FF989E711
:1020F000022902DD00F059F983463879022802D01E
:10210000BBF1000FAED000F042F9FFF749F900280B
:10211000A2D103AB5246DFF8C417CEE700F066F950
:1021200000289FD100F025F908B902259AE7BDF8EB
:102130000C00012804BFBDF80E004845F5D13178E8
:1021400000F07FF90346524600F063F99EE700F085
:102150002CF95FEA000B85D000F018F9FFF724F99D
:102160000028BAD103AB5246DFF8741748E70B1FBB
:10217000E178A0789BB2221D00F036FF5FEA000BE9
:10218000E9D003A800905A463879E178031FA07877
:102190009BB2FFF70DF900283BD19DF8150048B917
:1021A000317800F04EF900F015F9DFF8381700F03B
:1021B0003DF90BE09DF8140000280CBFDFF828174C
:1021C000DFF8281703AB524600F0E8FB0546E8B2FB
:1021D0009DE000F0E1F8FFF7EFF800282AD1524621
:1021E000DFF80C1700F01AF950E700F0DEF85FEAAC
:1021F000000B1FD000F0E5F8FFF7E2F8002808D147
:10220000306918B93C2001F05FFF3061306908B9CE
:10221000132524E772781346042BC8BF0225F8DC87
:10222000521C0C2172704B4318440C2203A9FDF779
:1022300043FF002516E700F0B8F85FEA000BF9D07D
:1022400000F0A4F8FFF7C0F80028E2D103AB524633
:10225000DFF8A01600F0A2FB00F0A3F8D9D1059892
:102260000028D6D0FEE603AA00928B1E9BB2A21CC9
:1022700000210020FFF7ACF80028F3D130690028D6
:102280003FF453AF317800F0DCF8029052469DF8ED
:102290000C003369DFF86016019070780090FFF74A
:1022A00042F90546C0B290B10BE00C2101FB0BF1E5
:1022B0000830405808B1FDF77DFF0BF101005FFACF
:1022C00080FB717830698B45EFDB01F0FEFE00206A
:1022D00030617070C6E600F05FF8FFF77DF8002807
:1022E000F8D15246DFF814167CE700F04AF85FEAAE
:1022F000000BEFD000F083F800288AD1A078DFF837
:10230000001600F067F800F091F80546C0B200280A
:1023100017D118E000F035F85FEA000B17D000F095
:102320006EF800280DD1317800F08BF8019003ABE6
:10233000A078DFF8681C0090524600F077F800F0B3
:1023400030F87FF48CAE049800283FF485AE89E61F
:1023500000F022F8FFF744F80028F8D15246DFF8E1
:10236000E41C3FE701257DE60DF111020221FFF794
:102370003BB89DF810300DF1110202214046FFF7E5
:1023800033B8C91E89B2E01C00F02CBE3879811E1A
:1023900003AA89B258467047891E03AA89B2A01CB5
:1023A00070470546C0B200287047891E89B2A01C3C
:1023B00000F018BE01905246BDF80E00BDF80C307A
:1023C000704703A800905A463879831E9BB20021BB
:1023D00000207047009003AB5246704703A800905E
:1023E0008B1E9BB2A21C00210020704703A8009006
:1023F0008B1E9BB2A21C00210020FEF7F9BF03A890
:1024000000905A463879C31E9BB200210020FEF787
:10241000F3BFDFF8341C102002F00DB8102002F0DA
:102420000AB8009000230022DFF8201C102002F0E0
:1024300002B8000091BB00109D910110C5910110E0
:102440002178502001F0DDBF2DE9F04F0D4689B015
:102450002A794027022A4FF00009B8BF4020C0F275
:10246000B181AE6833787178DFF8244403EB012141
:102470001FFA81F821780228824639D0042800F01A
:10248000878006284BD0082877D00A2800F098804B
:102490000C2800F0A9800E2800F0B080102837D05A
:1024A000122800F0E98016281FD01B2800F0B48104
:1024B0001D2800F0C581302818BF32283AD03428B2
:1024C00000F08880362800F0B080382800F0BD8009
:1024D0003A2800F006813C2800F075813E2800F083
:1024E0008081402800F08881422800F0D480C3E138
:1024F00003A80290931EB01C0193FFF792FF0028DF
:102500001AD1FFF79DFF00F045FADFF88C1364E164
:10251000FFF797FF03464246FFF77BFF5FE1FFF7B8
:1025200090FF0190B31C2879DFF87C13801E009087
:10253000424642E0931E042B40F04181B278F0788D
:10254000357902EB002084B2707905EB0025BAF1F1
:10255000300FADB208D1FFF774FF0190009523460C
:102560004246DFF8501328E0FFF76BFF019000951B
:1025700023464246DFF844131FE000F0EEF900283E
:1025800052D1FFF75DFF00F005FADFF81C1C24E1D3
:1025900003A80090931E9BB2B21C00210020FEF7FE
:1025A000D7FE002840D1FFF74BFF01904246BDF80F
:1025B0000E00BDF80C30BA490090FEF7B4FF0EE1F2
:1025C00000F0C2F900282FD1FFF73AFF00F0E2F93E
:1025D000BD4902E100F0C1F9002825D1FFF730FF25
:1025E00000F0D8F9B649F8E000F0A5F900281BD1B1
:1025F000FFF726FF00F0CEF9B549EEE000F086F9CE
:102600005FEA000910D000F08DF9FEF7C5FE002842
:1026100062D1FFF715FF00F0BDF9AF49FFF706FFE4
:102620000746C0B2002857D1C9E000F06FF95FEA51
:102630000009F9D000F06EF90020FEF7B9FE00287D
:102640004AD103AB4246A84913E0931E9BB2B21C89
:102650000121012000F0C8FC5FEA0009E4D000F08D
:1026600059F90120FEF7A4FE002835D103AB4246FC
:102670009E4900F093F9DEE000F048F95FEA0009B6
:10268000D2D000F07DF9002826D1FFF7D9FE00F066
:1026900081F99449CDE000F039F95FEA00091FD0D3
:1026A00000F040F9FEF78CFE002815D12178BAF130
:1026B000160F06D1FFF7C5FE00F06CF9DFF8EC1A33
:1026C00005E0FFF7BEFE00F065F9DFF8E41AFFF75A
:1026D000ADFE0746F8B200286ED1059800286BD0F1
:1026E0006DE0931E6BDDB5780DB9022767E0052D0F
:1026F000FBDC0C20684301F0E7FC5FEA000A08BF3E
:1027000013275CD00C216943FDF77EFD06F1030B16
:102710000026019510E0029800900BF1010B0423B4
:102720005A4603E0029800902B464A4600210020BA
:10273000FEF746FEAB44761C0198864280F29E80EE
:102740000C2070435044029004259BF800000028A0
:10275000E1D01BF8015B2D1DEDB22946584600F073
:1027600041FC5FEA0009DDD1019D1327AE420DD186
:10277000FFF766FE02900095012001905346424605
:102780005D49FEF7D0FE0746C0B290B14FF0000899
:102790000AE00C2000FB08F00AF10801085808B113
:1027A000FDF708FD08F10108A845F2DB504601F0ED
:1027B0008CFCB9F1000F02D04846FDF7FBFCF8B2E3
:1027C00000F058FCEDE000F0BFF80028F7D1FFF76B
:1027D00037FE00F0DFF8DFF8DC19FFF727FE0746C9
:1027E000EDE700F0A8F80028E9D1FFF729FE00F096
:1027F000D1F8DFF8C419F0E700F088F85FEA0009C3
:10280000DDD000F0BDF80028D6D1FFF719FE00F0AA
:10281000C1F8DFF8A8190CE000F074F85FEA0009CD
:10282000CDD000F0A3F80028C6D1B078344900F02C
:10283000B1F8FFF7FBFD0746C0B20028BCD117E096
:1028400000F060F85FEA0009B9D000F08FF80028C6
:10285000B2D1FFF7F5FD019003ABB078DFF83C177C
:1028600000904246FFF7E2FD0746C0B20028A3D120
:10287000049800289DD0A2E70127A0E7054675E748
:102880007C120020E1F3000029260100C6030000AD
:1028900048120020398E0110A51E0100598E01102A
:1028A000892A0100818E0110BD0D0100BD8E01102D
:1028B0007A05000001260100A2050000AD240100F8
:1028C000892B0100F18E0110D52B01002D8F0110F5
:1028D000D92B0100518F01100D1F0100918F0110A4
:1028E000BD8F0110DD2B0100D7240100012501005F
:1028F000ED8F0110FD8F01103104010025900110B2
:1029000045000110D11E89B2F01C6BE3911E89B203
:10291000B01C67E303A800904A462879831E9BB247
:102920000121704703A800904A462879831E9BB274
:1029300000210020704703A80090931E9BB2B21C98
:1029400000210020FEF720BD03A80090931E9BB23B
:10295000B21C00210020FEF70FBD03A80090931EBB
:102960009BB2B21C00210020FEF742BD03A80090DC
:102970004A462879C31E9BB200210020FEF73CBDC9
:1029800003A800904A462879831E9BB200210020AC
:10299000FEF70EBD009003AB42467047102001F0D9
:1029A0004ABD09B0BDE8F08F2DE9F04FABB0DFF8BC
:1029B000989C8E6899F800A0DFF8908CDFF890BCA6
:1029C00015460024B71C002851D0032800F0F180E0
:1029D000042800F09780052800F0A380062800F066
:1029E000BA80072800F0D180082800F0D980092893
:1029F00000F09E800A2800F0EA800B2800F0168183
:102A00000C2800F032820D2800F05E820E2800F0C3
:102A10000B820F2800F0E081102800F0D7811128E8
:102A200000F0E380122800F0EE80302800F02682CB
:102A3000312800F02F82332800F05182342800F032
:102A40006D82352800F07382362800F073823728B3
:102A500000F07282392800F072823A2800F0788201
:102A60003B2800F07B823C2800F0848290E234789E
:102A7000102200213846FDF7CBFB28B91022394639
:102A800009F11400FDF718FB1022002106F11200D5
:102A9000FDF7BEFB30B9102206F1120109F1240046
:102AA000FDF70AFB06F1220108784A788B78C9788D
:102AB00000EB022000EB034010EB016018BFC9F8E7
:102AC000080099F80010FFF7BCFC09F10801039118
:102AD000024609F124010291234609F114010191F2
:102AE000102071780091DFF86C1B01F0A4FC044603
:102AF00099F80010FFF7A5FC034626224146FFF790
:102B00008AFC46E25146FFF79CFC8DF800006A46BD
:102B100000F046FA102039788DF80310DFF8381BE2
:102B200081E05146FFF78DFC0246DFF8301B3DE0A7
:102B30005146FFF786FC8DF80000062200F030FABF
:102B400001A839788DF80310F11CFDF7B5FA6A4633
:102B5000DFF80C1B66E030788DF8000006227178F3
:102B60008DF801100DF102003946FDF7A5FAB8798C
:102B70008DF808005146F8798DF80900FFF761FCDF
:102B800002466B46DFF8DC1A1DE15146FFF759FC9F
:102B900001970246717800913378DFF8CC1AE5E1AD
:102BA0005146FFF74EFC0246DFF8C01AFFF736FC2D
:102BB000DEE1CDE9004406226946701CFDF73CFBCE
:102BC00000B1741C3278DFF8A81A234684E151461C
:102BD000FFF737FC3978009102463378717803EBC0
:102BE00001239BB2DFF88C1AC0E100F0E0F96A46DD
:102BF00010F8021F407801EB0021ADF808101020FA
:102C0000DFF8741A0FE000F0D2F910F8021F4278D2
:102C100001EB0221ADF808106A468078DFF85C1AF3
:102C20008DF80A00102001F006FCA1E1A42102A801
:102C3000FDF7B4FA3078717800EB0120ADF80800A8
:102C4000351D38788DF80C001022F0788DF80D00C5
:102C500029460DF10E00FDF72FFA103510222946F6
:102C60000DF11E00FDF728FA287C8DF82E00113595
:102C7000102229460DF12F00FDF71EFA0DF12E004E
:102C8000297C41742022697C8174123529460DF11A
:102C90004100FDF711FA2035202229460DF161008F
:102CA000FDF70AFA2035202229460DF18100FDF7B3
:102CB00003FA05F120010878299B8DF8A1005B0833
:102CC00048788DF8A8008A7802F0010040EA4303B2
:102CD000500823F0020300F0010043EA400390088B
:102CE00023F0040300F0010043EA8003D00823F03E
:102CF000F80300F0010043EAC003100923F48073D5
:102D000000F0010043EA0023500923F4007300F0AF
:102D1000010043EA4023900923F4806300F001009E
:102D200043EA802323F47843D20943EAC223299358
:102D3000C878002843D00A798DF800206C4648797D
:102D4000019A8DF80100520888798DF80200C8793F
:102D50008DF80300097A01F0010040EA42024808B8
:102D600022F0020200F0010042EA4002880822F04C
:102D7000040200F0010042EA8002C80822F0F802D2
:102D800000F0010042EAC002080922F4807200F05B
:102D9000010042EA0022480922F4007200F001001A
:102DA00042EA4022880922F4806200F0010042EAEF
:102DB000802222F47842C90942EAC12201922346C4
:102DC00002AADFF8BC18FFF7E9FDD1E0327870788D
:102DD0003B78DFF8B0187CE03D7834787078F7788D
:102DE00004EB0024361D1022314603A8FDF764F9D8
:102DF00006F110000178427801EB0221ADF81C10B9
:102E00000DF11E0150F8022F0A602B4642684A60FD
:102E10000121007A8DF82600029103A80190009705
:102E2000A2B2DFF864181DE0347870783D7804EBC6
:102E30000024F61C1022314601A8FDF73DF906F1E9
:102E40001000017842788378C07801EB022101EB11
:102E5000034101EB006101A8059100902B46A2B24D
:102E6000DFF82818FFF7E2FA82E033787078DFF8AD
:102E7000201803EB00239BB23A462DE0327873789A
:102E80003878262A03EB002354D0272A52DC9BB241
:102E9000414621E032784FF6FF77FF2A38460ADABA
:102EA000262A08D0272A06DCDFF8E817FFF7B6FA4B
:102EB00080B2B84200D10224022129708BF80600AA
:102EC00000128BF8070064E0327870783B78DFF806
:102ED000C81702EB002292B2FFF79DFA48E074781F
:102EE00004F1080080B201F0EFF8050014D030784A
:102EF00028706C7005F10800686022463946FDF7BD
:102F0000DBF82A46DFF89417FFF788FA0446C0B2C8
:102F100000283ED0284607E013243AE03278DFF854
:102F20008017FFF77BFA28B101F0CFF831E0DFF826
:102F300074170FE002242CE00224002026E0514602
:102F4000FFF77FFA0246DFF86017FFF767FA20E025
:102F5000DFF85817102001F06EFA09E006F1400082
:102F6000009006F120033246DFF84417FEF7DBFA43
:102F700004460EE00BF10600009006F120033246F5
:102F8000DFF83017FEF7CFFA04461020287000E073
:102F90000124E0B22BB0BDE8F08F0000CDFF00109F
:102FA00030788DF8010070788DF802007047307825
:102FB000717800EB0120ADF800007978387800EBEB
:102FC0000120ADF80200B81C0178427801EB022123
:102FD000ADF8041010F8021F427801EB0221ADF8A1
:102FE0000610704700220AE010B51446002820465B
:102FF000BDE810401ABF00290C2200221946F8B57E
:103000000D4652190646521C90B2FEF7F9F904001B
:1030100016D0DFF8A4160868804707464FF0FF3146
:103020002046FDF73DF9DFF894160A680446384655
:1030300090472A4631462046FDF73EF82046F2BD2D
:103040000020F2BD2924010061230100815C0110F0
:1030500002460020931E012B02D99B1E02D004E0E1
:10306000102900E0042904D002E0803A102A00D39D
:1030700002207047052804D00C2806D00F2802D063
:1030800070474120704742207047432070477CB50D
:1030900005460020ADF8040001208DF806002C2123
:1030A000DFF81C663046FDF779F828780024A02860
:1030B0003CD0A22814D0B0283DD0B12841D0C2289D
:1030C00009D0D0285BD10DF10600009000F078F80F
:1030D00000F07CF833E000F073F800F040FB2EE0E5
:1030E00069796B886A7841F49061304600F0D4FCCD
:1030F0000446687800283FD16979301901290ED03B
:103100000B2902D0132905D036E005F10801FEF79E
:103110007BF908E005F10801FEF77AF903E005F113
:103120000801FEF779F90419E4B225E000F048F847
:1031300000F05AFB03E000F043F800F093FB044674
:103140001DE06978002904BF287900280AD1E988A0
:10315000B1710424E888000AF07128893072288946
:10316000000A7072304629796B886A7841F4B06140
:1031700000F092FC7471A41D8DF8044034469DF853
:10318000040018B101462046FEF716FD4CB19DF82B
:103190000500012805D1204600F097FF9DF80600A4
:1031A00000B1012076BD0000812B0100E12B010060
:1031B000F12B0100E52B0100E92B0100ED2B0100B3
:1031C0000DF1050301AA3146284670472DE9F44F59
:1031D00082B006460C980D46012101700027B07898
:1031E000002411289B464CD8DFE810F012004C0058
:1031F00092009A009C00A300C300DB00E200EE00F6
:103200001C010101F1010402AC01BA012902CF0045
:103210002C700620687006227078DFF82C44A870A5
:10322000F11CE81CFCF748FF708968721022708955
:10323000000AA87204F11401307BE87205F10C0059
:10324000FCF73AFF102204F1240105F11C00FCF701
:1032500033FF707898B904F1140100911023DFF85E
:10326000646402223146FEF75EF900F072FA3146DC
:10327000FEF759F900F067FA3146FEF754F92C468B
:103280002C27DCE17078B0BBF778002F38D0FF0036
:103290003F1D00F03AFA04002BD00120207004F109
:1032A0000408062060704FF0000A7078A070F07873
:1032B000E070D6F8049013E099F8000008F8010BCC
:1032C000062299F8010008F8010B09F102014046B5
:1032D000FCF7F2FE08F106080AF1010A09F10809F3
:1032E000F1785FFA8AF08842E6D301208BF800007B
:1032F00001E013207070717811B9F07800280ED1B8
:1033000001212970062169707078A870002003E0FF
:10331000022000F0DFF9F078E8702C4604278EE1F7
:10332000032000E0042000F0E0F903277078A87083
:1033300085E1052000F0DEF91427281DFCF7BCFE0E
:103340007089A8727089000AE872307B2873F0894E
:103350006873F089000AA873308AE873308A000A1B
:103360002874708A6874708A000AA874307DE874C2
:1033700065E10620287068702C467078A8700627D2
:1033800000F0A2F9B079687159E1122000F0ADF9AE
:103390000D2700F0BEF9B089E872B089000A2873E1
:1033A0004DE1072000F0A1F90B2700F0B2F946E14A
:1033B000082000F095F9311D7078A870F078E87059
:1033C000281DFCF779FEFFE0092000F093F90E2795
:1033D000281DFCF771FEF068A872F068000AE87218
:1033E000F068000C2873F068000E687327E10B206A
:1033F00000F076F9F11C7078A8702C46E81CFCF7F8
:103400005BFE7089687205F10D017089000AA8726F
:103410001127307BE872707B287306F11000026878
:103420000A600CE16B2000F04FFE6B27040000F0F7
:10343000838001208BF800006B212046FCF7E4FE1E
:103440000A20207004F12205062060707078A070B8
:10345000B088E070B088000A2071B0796071B068FF
:10346000D0B10121A1711022B068817EE17104F117
:103470000800B168FCF720FEB068018A217604F1EB
:103480001A02B068018A090A6176B06800F1120177
:1034900008681060486850603069E0B10121297007
:1034A00010223069817E6970AD1C316900F048F9E5
:1034B0003069018A29743069018A090A697405F141
:1034C0001200316901F1120200F108051168016072
:1034D0005168416000E01C35706990B1012105F828
:1034E000011B1022716900F02BF97069103500F191
:1034F0001101062200F024F97169087CA871ED1D04
:1035000000E01835F068002815D0012105F8011BEE
:103510001022F16800F014F9F06801692974F0686C
:103520000169090A6974F0680169090CA974F068F5
:103530000169090EE97482E00A202870062068708B
:10354000132004E00E202870062068707078A870A0
:103550002C46B088E8700527B088000A28716EE014
:103560000F2000F0B7F800F0AFF8307A6871707A89
:10357000A871B07AE871F07A2872F26802F001015D
:10358000C2F3400000B102200143C2F3800000B149
:1035900004200143C2F3C00000B108200143C2F37C
:1035A000002000B110200143C2F3402000B12020D0
:1035B0000143C2F3802000B140200143C2F3C02088
:1035C00000B18020014369722C460A2737E00C20A5
:1035D00000F086F8B11D7078A8702C46B088E870AD
:1035E0000C27B088000A2871681DFCF765FD307B48
:1035F000E87224E0377B0D3700F087F804001CD018
:103600000D202070062206206070711D7078A07059
:10361000F078E07030792071601DFCF74DFDF07A94
:10362000E072307B2073327B316904F10D00FCF7CE
:1036300043FD01208BF8000001E013207070029818
:1036400007702046BDE8FE8F48120020BD8401109F
:103650007C1200209113010099030100A5200100B4
:10366000A9F60000594401100945011099450110BF
:10367000AD850110E51401107D150110051601102E
:1036800001170110C11701107D180110AD160110AE
:10369000ED170110F5840110BD920110E1450110F4
:1036A0007946011095460110BD780110C5780110CA
:1036B0000D790110897901109C020020A0020020E0
:1036C000B4120020E1F30000B088E870B088000A6E
:1036D000287170472870062068707078A87070474D
:1036E0002870062206206870704728702C46062035
:1036F000687070472870062206206870311D707847
:10370000A8702C46F078E8707047FFB2384600F099
:10371000DBBC7078A870B088E870B088000A2871A7
:10372000F0886871F088000AA8713089E8713089E2
:10373000000A2872708968727089000AA87270473E
:103740002846FCF7B9BC04F10800009004230422C9
:10375000704704F1240000901023032270472DE9E4
:10376000F04105469046A8781F460026002410B177
:1037700001281ED033E0632000F0A6FC632604007D
:103780002BD0102121700620607020226878A07054
:10379000E91CE01CFCF790FC202205F1230104F158
:1037A0002300FCF789FC202205F1430104F14300CA
:1037B0000EE0232000F088FC232604000DD0112009
:1037C0002070202206206070E91C6878A070E01C40
:1037D000FCF772FC0120387001E01320687088F853
:1037E00000602046BDE8F0812DE9F0470546994686
:1037F0006E78002089F800008A46AF890937BFB289
:103800002D2F90460CDBFFF781FF040003D0012031
:1038100089F8000005E0A88954463F1A132600E005
:1038200054466B8832464FF49E61204600F034F9CE
:10383000A8886071A888000AA071A889E071A88989
:10384000000A2072A96841B126B9AA8904F10900C9
:10385000FCF732FCA868FCF7ADFC88F80070204645
:10386000BDE8F0872DE9F84F064682B096F801B022
:1038700000250024BBF1000F18BFBBF1160F0F4647
:103880009046AA461C7035D13079012833D00228E1
:1038900036D0032839D004283CD005283FD006284C
:1038A00042D0072849D0082872D009284AD00A28CF
:1038B0004DD00B2850D00C2853D00D2856D00E28B0
:1038C00059D00F285ED0102862D0112865D0122858
:1038D0006BD0162878D017287BD0182800F082806B
:1038E0001B2818BF1D2800F083807E2800F08980E7
:1038F0007F2805D08BE000F0CBF8FDF791FD75E057
:1039000000F0C6F8FDF790FD70E000F0C1F8FDF79B
:103910008FFD6BE000F0BCF8FDF78EFD66E000F077
:10392000B7F8FDF78DFD3CE000F0B2F8FDF78CFD37
:1039300074694FF0060A851F69E000F0A9F8FDF7E9
:1039400087FD23E000F0A4F8FDF786FD29E000F0F4
:103950009FF8FDF785FD49E000F09AF8FDF784FD3A
:1039600014E000F095F8FDF783FD3FE000F090F8DB
:10397000FDF782FD0AE000F08BF8FDF781FDB468E9
:10398000054644E000F084F8FDF77EFD054636E08C
:1039900000F07EF8FDF77CFD28E000F079F8FDF7F7
:1039A0007BFD4FF0010A451E29E0307CB87106F11D
:1039B0000801707CF8714FF0040A07F10800FDF768
:1039C0006FFDF468851E22E000F062F8FDF76CFDE3
:1039D00003E000F05DF8FDF76BFD4FF0040A346979
:1039E000051F14E000F054F8FDF766FD82460EE076
:1039F00000F04EF8FDF764FD4FF0020A851EF468F2
:103A000005E0307AB8714FF0020A707AF8715FFA07
:103A10008AFAEDB205EB0A00801D2D281ADB05EBB2
:103A20000A00801D80B200F04FFB5FEA00090CD055
:103A300002990120BAF1000F08700CD05246B91D4E
:103A400009F10600FCF738FB05E0B94600254FF008
:103A5000130B00E0B94654B135B109F106002A460E
:103A600021465044FCF728FB2046FCF7A3FB3179A4
:103A700073885A4641F4A061484600F00DF8554459
:103A800089F805504846AD1D88F80050BDE8FE8F06
:103A900006F10801B81D70470170C370090A1B0ABE
:103AA000417082700371052070470000DFF800F05C
:103AB00021C00110DFF800F055A40110DFF800F07C
:103AC000F99B0110DFF800F02DB40110DFF800F0D1
:103AD000CDAC0110DFF800F02DC00110DFF800F0D0
:103AE0009DB20110DFF800F0FDB1011020B10823F4
:103AF0003C220021FFF7DABF704780B5FCF728FEB3
:103B0000ADF80000FCF7D4FDADF80200009802BD4E
:103B100001B5BDF80200FCF7CFFDBDF80000BDE81F
:103B20000240FCF719BE38B5DFF8E44920780128D7
:103B30002DD0DFF8E029DFF8E00992089200801A22
:103B4000A061012121706261104602E0002340F86B
:103B5000043BA3699D18A842F8D39B0802EB83019C
:103B6000002041F8040CE8201060A0698008800063
:103B7000EC38C2F8E80002F1E800A060002000F094
:103B800007F8E0606069A060A069001F206131BD96
:103B9000F8B500250026071D17F003001CBF391DCE
:103BA0000F1AFFF7AAFFDFF8682901465160112FAD
:103BB00034BF9468D4682068002803D580F00040A2
:103BC00000261AE0330014D02B68D4F800C06344F8
:103BD000BB422B6011D32C461846ECB1C01B042805
:103BE00011D3E05147F0004020601069C71B1761F6
:103BF00011E0B842F1D2012625460444206800288D
:103C0000DAD1002408E0136920681B1A13612068C8
:103C100040F000402060241D00F0EFBB10B50446CA
:103C2000FFF76BFFDFF8E818486054F8042C22F027
:103C3000004244F8042C0B69D2180A61221F8B68D9
:103C40009A4238BF8A60BDE8104061E72DE9F04133
:103C500082B0FFF752FFDFF8B818CA684860002644
:103C60000027002400250AE00C460127164605E03F
:103C70003B00F9D03368CB1833600C190A44116843
:103C8000A846A54238BFA046002905D0F0D581F04E
:103C9000004100274546F1E7FFF73AFF4046BDE8FF
:103CA000F68110B50446DFF8680881692160006973
:103CB0006060FFF7CBFF09282CBF08380020A06008
:103CC00010BD80B5FFF72FFF4BF6BE2002BD0846A2
:103CD0005EE70846A2E702B56846FFF7E2FF01BDCE
:103CE0000120704738B50446FFF707FF00220C2378
:103CF000DFF828185343CD18A96C21B18C4206D0A7
:103D0000521C032AF3D3FFF703FF002032BDFFF755
:103D1000FFFE05F1480032BD70B582B00546FFF7E1
:103D2000ECFE044600210C22DFF8F0074A43861817
:103D3000B06C48B1854210D0491C0329F3D320460A
:103D4000FFF7E6FE002076BD3065B5640021FFF781
:103D5000B9FEF06408B9FCF7BBFA2046FFF7D8FEBD
:103D600006F1480076BD38B50446FFF7C6FE0025CB
:103D7000DFF8A8270C216943515A21B18C4206D0A3
:103D80006D1C062DF6D3FFF7C3FEFF2032BD30E3D6
:103D900010B504462088FFF7E6FFFF2802D14FF058
:103DA000FF3010BD0C21DFF87427484310448168B0
:103DB00011B96FF0010010BD2046BDE81040084762
:103DC00002460FF27C70104710B500200C21DFF87E
:103DD0004C27002401FB00F31344401C03289C647F
:103DE0001C65F7D30020002301FB00F4401C135393
:103DF0000628F9D3BDE8104095E62DE9F04790B0CC
:103E000081468846FCF7A4FC05460027DFF81067CA
:103E100047451FD26846FFF769FE09EB0710416866
:103E20000691816808916946026804920022C06880
:103E300005903046FFF74AFE040011D0FFF75DFE03
:103E400082462046FFF768FF50B15046FFF760FEFC
:103E50007F1CDDE72846FCF77FFC10B0BDE8F0874B
:103E6000FCF736FA00BF00B585B068460521416011
:103E70004FF47A718160DFF8AC26DFF8AC16009160
:103E8000C2600121FFF7B9FF05B000BD38B5044697
:103E90000D46FFF732FE002145F80C1C226812B9CE
:103EA000256006E00A4652F80C1C0029FAD142F8B7
:103EB0000C5CBDE832402BE680B5FFF70BFEFFF748
:103EC00011FF10B96FF0040002BD816809B902202A
:103ED00002BD4068BEE0062881B00ADA0C225043D9
:103EE000DFF83826105A00281CBF4FF6F8729042AF
:103EF00002D14FF0FF3001E00880002001B0704790
:103F000030B5DFF828562A680C464FF47A71A1FBC9
:103F100000010023FCF7E0F9002399424FF0004232
:103F200001D8904202D36FF0020030BD2060002023
:103F300030BD014688684968084770B505460E4699
:103F4000FFF7C8FDFFF7E8FE040009D0FFF7D5FD35
:103F50000146002200F0B1F820B1521C062AF9D324
:103F6000FCF7B6F94FF6F87018805C600020986096
:103F70002A706068306000F01BFA002070BD10B538
:103F8000044604F10C00FFF703FE28B10481002170
:103F90000160FF2181720C3010BD0C383EE670B517
:103FA000044615461E460846FFF7DDFEFF2802D1EF
:103FB0004FF0FF3070BD014633462A462046BDE82B
:103FC000704084E070B582B00546164600F0A1F856
:103FD000040010D128886946C0B2FFF77CFF28B1E1
:103FE0003068FFF7DAFF6FF0050076BDBDF800001E
:103FF0002880FFF761FF204676BD38B50546FFF7FC
:1040000069FDFFF76FFE0446FCF7DEF9002818BFD4
:10401000012800D014B96FF0040032BD65B900204A
:104020000090009B60684FF000420021FFF746FDC2
:10403000401E8041C00F32BD15F1010F08BF4FF087
:10404000FF30EDD069462846FFF75AFF0028E8D038
:1040500032BD80B54FF00041FFF72CFD002002BDBE
:104060002DE9F84305460E4617469846FFF732FD00
:10407000FFF752FE04006FF002091CD0FFF73DFD70
:104080000146002200F019F840B1854211D0521CBF
:10409000062AF7D3FCF71CF9BDE8F2831D805C60AB
:1040A0009E603A706068C8F8000000F081F9002056
:1040B000F2E700F07DF94846EEE70C23DFF85C04F8
:1040C000534303441888704762E5A7E5E9E52DE905
:1040D000F8430E46062EBCBF0446062C15469846ED
:1040E0006FF0020906DAFFF708FD00F009FA19B9C6
:1040F000FFF70EFD48460AE0FFF70AFD00F0F6F96B
:10410000786840684FF00041FFF7D4FC0020BDE81C
:10411000F2832DE9F04106460F469046FFF7DAFCA0
:10412000FFF7E0FD050008BF6FF004001BD0FFF7AC
:10413000E4FCA968002441B10C46A4F10C010A6812
:10414000AA6000220A60FF228A72FFF7E1FC0CB924
:10415000022008E0A4F10C00017931704079387038
:10416000C8F800400020BDE8F08182B001218DF840
:1041700000109DF800000028FBD1FCF7A9F800BF53
:10418000FFF7ACBC10B5DFF8A40302686FF0004481
:10419000A4FB020100234FF47A72FCF79DF8002380
:1041A00099424FF0004201D8904200D3204610BD02
:1041B00070B582B00C4615461E466946FFF7A0FE54
:1041C00030B9009833462A46214600F002F8002014
:1041D00076BD2DE9F0431D4689B02C6880460E4619
:1041E00017462CBB0C20FFF7D3FC04006FF003092B
:1041F00018D00823242200216846FCF7D3F90020B8
:10420000ADF810000590069400236A464146DFF899
:104210002003FFF767FC206030B9FFF7A6FF2046B8
:10422000FFF7FCFC484617E06660A7602C600BE0D7
:10423000DFF800633068804705462068FCF7B6F970
:10424000A76028467168884720684146FCF7B2F9A4
:104250002068FCF7B3F9002009B0BDE8F08300281E
:104260001CBF0068FCF7A2B9704700B583B08DF899
:1042700004006846FCF7D8F89DF805000EBD00B5AF
:1042800083B001906846FCF705F90EBD00B583B018
:1042900001906846FCF708F90EBD2DE9F04385B0A2
:1042A0000446884616461F46FFF714FCFFF71AFD22
:1042B000054600200290FCF787F8002818BF012867
:1042C00000D015B96FF004006FE044B900200190F0
:1042D000FFF704FC814601980124814425E014F194
:1042E000010F08BF4FF0FF30F1D001A92046FFF7C2
:1042F00007FE0028ECD058E0039902A8FFF7C6FD9E
:1043000068684FF00051FFF7D5FB0199012411F1C6
:10431000010F0AD0080008D0FFF7E0FBB9EB00005E
:104320002ED0019981422BD30190019B68684FF0F8
:1043300000520021FFF7C2FB10B303AA69460DF13A
:104340000100FFF7E6FE0400DFD19DF801000DF14A
:104350000201FFF7C0FD0028CED1039A9DF800109E
:10436000BDF80200C0470028C6D016B1BDF8020053
:10437000308017B19DF8000038700C9803990160E7
:10438000FFF79AFD029EFFF7B8FB014656B1324691
:1043900000E0024652F80C0C0028FAD1A86842F856
:1043A0000C0CAE6000F004F8204605B0BDE8F083C8
:1043B0000846FFF7ADBB38B5FFF78CFB0446FCF7AA
:1043C00003F8002818BF012811D0FFF796FB00253D
:1043D000524A0C236B43D15A39B1D1184B68196832
:1043E000A14206D06D1C062DF3D3FFF791FBFF20F1
:1043F00032BDFFF78DFBE8B232BDFFF7D9FF204693
:10440000F2BD00B583B0ADF800008DF806100020B5
:1044100049490A68ADF802006846904710B99DF80E
:1044200007000EBDFF200EBD1078422801D10120EB
:104430007047002070470CB470B504460E4688B033
:10444000FBF7C2FF0CAD002814BF0128FFF78DFE5B
:104450001420ADF810000021FF2002918DF8120009
:1044600006960595FFF7A7FF05AB03222146FFF748
:1044700096FD002001A901900091002300222F4900
:1044800041F28830FFF709FF012805D020B90198D3
:1044900020B1FFF782FD01E0FFF767FE0598006895
:1044A00008B070BC5DF80CFB2DE9F8430E46062EF3
:1044B000BCBF0446062C154698466FF0020906DA82
:1044C000FFF71BFB00F01CF819B9FFF721FB48466A
:1044D0000AE0FFF71DFB00F009F8786840684FF02C
:1044E0000051FFF7E7FA0020BDE8F283A8F10800C9
:1044F000414604704670857078680830FFF7C6BC86
:104500000C21064A01FB06F7D719796870470000AD
:1045100024120020301B0020FF3F0020B811002093
:10452000C13D0000D002002081210100BC2B010010
:10453000333F00009C020020A40200202944000018
:10454000913D0000FB3A0000113B000070B5DFF820
:104550006447DFF864072568EE68002301223421F0
:10456000B04700B10120C0B270BDDFF850078068CD
:10457000704702460020022904D1012A06D140F2E8
:10458000EE207047012A08BF4FF47A707047DFF8B9
:104590002C1791F8E60020B1D1F81001002818BFBF
:1045A000004770472DE9FE43DFF8108708F1E10668
:1045B000B07900287CD1DFF80817DFF808770A689F
:1045C0009209012002F00102B071F271F87CDFF86B
:1045D000F856DFF8F89670717868C8F810016846E8
:1045E000FCF72DF8002101918DF8001002916B4627
:1045F00000220FF2115108F10C00FBF7F6FF6B4699
:1046000000220FF2F15108F13000FBF7EEFF6B468C
:1046100000220FF2255108F15400FBF7E6FFB968BC
:1046200001208847DFF8A80601786868C0F3815444
:10463000387D20B1032C02D10121317003E0032C1D
:1046400018BF022C0DD1022000F0ACF8032CD9F8D1
:1046500000100CBF4FF47A7042F21070B0FBF1F111
:1046600018E0012C02D100F04EFA1BE0D4B9022070
:1046700000F098F800F090FA9847012803D1002044
:1046800000F041FA0EE0D9F800003221B1FBF0F160
:10469000B1FBF0F108F15400FBF7D4FF08F154002E
:1046A000FBF7D2FF286840075CBF002000F07AF8D3
:1046B0000020BDE8FE8338B5002408B1150002D102
:1046C0006FF0020407E08160C26003610146DFF819
:1046D000EC05FBF7CBFF204632BD10B50446FCF7D6
:1046E00024F8DFF8D8150A1992F8E9305B1E82F831
:1046F000E930DBB233B98A68012303FA04F422EA11
:1047000004048C605FE0F8B50546FCF70EF804463B
:10471000DFF8A815481990F8F020521E80F8F02014
:10472000D2B27ABB0FF2F450DFF8A87500EB850225
:1047300010F825505688280615D539680A6A30467B
:1047400090473A68916A3046884739680A6B304624
:104750009047DFF8841501200860DFF880150868AD
:104760008007FCD507E0680611D501EB8601002023
:10477000D1F80421904705F03F053F2D1CBF284686
:10478000FFF7C1FF2046FBF7E0FF0020F2BD3968CC
:104790008A69304690473A68516B3046884702280C
:1047A000F9D1E8E710B50446FBF7BFFFDFF80C15B9
:1047B0008A680123A3401A438A60214491F8E920C2
:1047C000521C81F8E920FBF7C0FF002010BD2DE945
:1047D000F0410746FBF7A9FF0546DFF8E064F01952
:1047E00090F8F0104A1C80F8F02049BB0FF22C58CA
:1047F00018F8270000F03F003F2818BFFFF7E7FF39
:1048000008EB8700448818F82700DFF8C874010611
:104810000ED53968CA69204690473A68516A2046E1
:1048200088473968CA6A2046904700F01AF807E0BE
:1048300040060BD506EB84010120D1F804219047F6
:104840002846FBF782FF0020BDE8F08139684A69FD
:10485000204690473A68516B204688470128F9D195
:10486000EEE7DFF8741401200860DFF870140868C0
:104870008007FCD570472DE9F84F0746DFF8400464
:10488000DFF860540168002600244A06A0460DD5D2
:10489000287B58B9DFF85004DFF8501402680A404A
:1048A00042F081720260202000F07DF9012F18BFD4
:1048B0006FF0010957D12868012852D102212960DF
:1048C000FBF7B7FF012000F06EF95FEA00094BD15A
:1048D00000F08EFADFF81814DFF8F87300900C601F
:1048E0000120B96A0A689047012803D1002000F02E
:1048F000B5F90124DFF8FC13DFF8E4A3DFF8F823AF
:104900000E60DAF80010907808B14FF00108517885
:1049100009B148F00208107808B148F00408E87FAF
:1049200020B139680A6B4FF480609047A87F20B1AE
:1049300039680A6B4FF481609047DFF89C130120BF
:10494000086048F0200039688A699047DFF8AC13A6
:1049500001200860DFF86413087AC10709D5012631
:104960001FE06FF004097FE001202860FBF76CFF77
:104970007AE0396ADFF888038A6890478346BBF19A
:10498000040FF6D0BBF1010F05D13A6ADFF87003CE
:10499000536803219847DFF86C0301688908890090
:1049A0000160002000F032FADAF800003868816B0C
:1049B000884776B9BBF1010F05D13A6ADFF84003A9
:1049C000536801219847DFF83C03016841F0030177
:1049D00001600120DFF81C130860404639684A690D
:1049E0009047E87F20B13968CA6A4FF480609047E9
:1049F000A87F20B13968CA6A4FF481609047B649F0
:104A0000BE4A0120086000211160032028603A6836
:104A1000516B404688470128F9D1DAF8000004209C
:104A200000F0C1F80646B24901200860DAF800102B
:104A3000A34908688006FCD514B1012000F00EF9E6
:104A400000F03AFB082000F0AEF806430120286091
:104A5000009800F0D5F99B48008A00F0ACFAFBF70B
:104A6000F3FE0EB14FF0FF394846BDE8F28F38B57E
:104A70000446FBF75AFE054621469048FBF70AFE1E
:104A80002846BDE83240FBF760BE3EB50024012851
:104A900004D020D303281CD017D31CE06846FBF7B2
:104AA000CEFD864D984901948DF8004002946B46E6
:104AB000012205F17800FBF798FD0023934A2C2191
:104AC00005F19C00FBF70FFE05E000F011FB04462A
:104AD00001E000F0D1FB20463EBD38B5FBF725FED6
:104AE0007649054691F8E000012410B1FFF72EFD4C
:104AF00004462846FBF729FE204632BD002079E017
:104B0000000000007047F8B56A4C6B4D0320009020
:104B10001C23266877684FF0405200212846B8478A
:104B20000120009028462468656809234FF400722C
:104B30000021A847F1BD000010B500F02DF89847FE
:104B4000022818BF032805D1FFF7DDFFBDE810409C
:104B50000220C2E5012802D1BDE81040D3E76C482D
:104B60000168C1F38150032808BF4FF47A7004D064
:104B700002280CBF41F28830322054494F4C0A6859
:104B8000B0FBF2F104F15400FBF75CFD04F15400BA
:104B9000BDE81040FBF758BD5E490A681368042061
:104BA00070470020704738B50546444C2046FBF757
:104BB00053FD88B92046FBF755FD0446A0682842FE
:104BC00005D02269E36800212846984730B920467D
:104BD000FBF74AFD0400F1D1002032BD4FF0FF3059
:104BE00032BD4D4901280CBF40F2FF700020086023
:104BF0000020704770B5FBF798FD304D314E0446EC
:104C000095F8E00050B1287A410613D4FFF79EFCD6
:104C100080B100F0C0FC002085F8E0000220B568FB
:104C2000A84706461020FFF7BEFF012E11D1032032
:104C3000A8470EE025490A683220B0FBF2F101B91D
:104C4000012105F13000FBF7FDFC05F13000FBF719
:104C5000FBFC2046BDE87040FBF777BD38B5012866
:104C600023D12C490A681368984701281DD000F009
:104C700085FC124D012085F8E000287A810616D4C3
:104C8000124802683221B1FBF2F404B9012405F1A3
:104C90003000FBF7DBFC214605F13000FBF7D2FCCE
:104CA00005F13000FBF7D0FC01E000F09AFC002099
:104CB00032BD0000A401001000A00C40C40400207C
:104CC00014100940A4070100B03F00500C1A002046
:104CD000281B0020B8010010282008602820084068
:104CE0002C200940A005002004000940FFFFFCFC27
:104CF0000C40094000022243C30500208001044308
:104D00000040034024220840C153000055510000D8
:104D1000B43F0050E0010010000004608F0000006C
:104D20008F0001008F0002008F000300900000013F
:104D30008F00010190000002900000038F00010429
:104D40008F0000058F0008048F0000048A00000611
:104D5000510000007F0001003F0004003F000200FE
:104D60003F0001007F000200DFF800F011BF0110DA
:104D7000DFF800F011B00110DFF800F015C00110ED
:104D8000DFF800F015C10110DFF800F005B30110E5
:104D900020B1082328220021FFF7EEBF7047002131
:104DA00001604160C1604FF0FF318160704770B5B4
:104DB00014008AB005460E4603D1002200F0C4FC60
:104DC0000CE06846FFF7E4FF206804906A466068DC
:104DD0000590314600F004F800F0B6FC0AB070BD52
:104DE000E0680790A068069028467047FFF7C8BFA4
:104DF000FFF7BABF00F0B4BC00F0B8BCFFF7B8BF13
:104E0000FFF7C2BF1628A8BF203870472DE9F84F1A
:104E100080469748DFF85C920168974E8A0705D56F
:104E20000820B0719548C9F80000C2E094480168B4
:104E30000A6890478246934805682F1700247F1C14
:104E4000A80208D4CAF13E00C0100828C8BF082034
:104E50008742B8BF07468C480168C1F30460FFF77A
:104E6000D1FF834689480168C1F30440FFF7CAFFB8
:104E70005F44152F0146C8BF152704DC6FF00900F9
:104E80008742B8BF074607F01F00814A40F4F85038
:104E90001080804A106810F0030F18BF01244007EB
:104EA00048BF44F0020496F90700B8F1000F18BF9C
:104EB00044F00404AAEB0000042802DCB279944216
:104EC0005DD0AAF10F084FF0000BB8F1000FDC46DF
:104ED00004F00400704B24D408EB08184FEA282C87
:104EE000BCF1070F88BF4FF0070CE646BEF1070F75
:104EF00028BF4FF0060E1A1D52F82E2053F82EE050
:104F0000A2EB0E0E0EF0FF0B10B1CEF3072293446E
:104F1000A20744BFCEF307429344E20748BF0BEB1E
:104F20001E6B53F82C2002F0FF0310B1C2F30720D0
:104F3000C318A00744BFC2F30740C318E007A8EB9B
:104F40000C2048BF03EB126300FB0BF0CF1B80303B
:104F5000002F03EB1023D8BF0127342005F0FF05F5
:104F600047437D43B5FBF3F04FF6FF71884288BF9E
:104F700008460AF3070AB08086F807A0B4714748CC
:104F80000168B088316000211F2804D21F20B08042
:104F900004E04008491CB0F5007FFAD20F38000940
:104FA00041EAC0013E480143C9F800100020C9F899
:104FB0000400BDE8F18F38B505463A480468A4B24C
:104FC0003CB32F4801680A6890472B4991F90720A4
:104FD000904205DA6FF07F029042B8BF1046C87168
:104FE000A542888834BF641B0124844210D32B4A15
:104FF00013680A689A1A921C1F2A88BF1F22241A53
:105000005208D4402418B4F5803F28BF4FF6FF74EF
:105010008C8031BD2448006800B9704730B5234901
:105020008A6802F04063B3F1406F1FD0104B1C68D8
:10503000A5071BD44C68A50718D41C680968C1F3E0
:1050400003511C31090114F0050F04D088420DD220
:1050500024F0050409E0814208D2100158BF44F051
:105060000104500158BF44F004041C6030BD00002E
:105070000000094030100940241A0020FDFDA40062
:10508000EC010010B43F0050B81200503C11005029
:105090006E620840242208409C13005008200940FA
:1050A00000E7A4803410094028500940AC3F00506C
:1050B000EFF3108072B67047EFF3108062B670475E
:1050C0000138FDD17047704710B50C18FFF7F0FF9D
:1050D000411E8941C90FDFF8602410680028FCD008
:1050E00024680123136009B1FFF7E6FF204610BDD5
:1050F00038B5DFF8485428780024002802BFDFF8CC
:105100004014487D00280CD0FBF70FFB0146A8781F
:10511000002806BF0122AA7001240846FBF715FBF0
:105120000CB1002032BD0220FFF73CFB0E20FFF740
:105130004EFBDFF81014086808B1012032BDDFF81B
:1051400008044022C26002600120C861002068702B
:1051500032BD00002DE9F041DFF8EC1382B00020F1
:105160000860DFF8E81301F1D804A07A002837D0EE
:105170000128DFF8DC53DFF8DC2332D1DFF8D81365
:1051800016684BF2F52046430868360AC0F38140A2
:1051900001280BD1A86C0168884700F03AFA00F0AA
:1051A00053FA3509C010454306EBE536607B10B174
:1051B0000021617306E0DFF8A403006820F07F405F
:1051C00036187608DFF898030660360C4660012131
:1051D0008160DFF86C13487D002849D005212173D8
:1051E00048E0022809D11568284600F00CF9A5F21C
:1051F000FF55032D3CD308203BE003283AD110682B
:1052000001F1B806A0F5C0603168F061002948BF1F
:105210004942002848BF40428142A8BF002026DA08
:105220007068D04F80B200900823D5F800C0DCF839
:1052300004804FF47F4230213846C047B06880B2C6
:1052400000901223D5F800C0DCF804804FF4F80277
:1052500004213846C047B06980B200900A232D6807
:105260006E684FF4406220213846B047012020701C
:105270000B202073BDE8F3412DE9F843DFF8CC8221
:10528000B94EDFF8E092B94CB94FAF4808F1E105EB
:10529000E9784A1E0B2A00F29280DFE802F006301D
:1052A000415F74415F74415F7B8031680A682020F0
:1052B00090470F20E060072341F61D5020614FF416
:1052C000C072022000900021D6F804C0DCF804402F
:1052D0004846A04776684846D6F80C9007234FF416
:1052E000C0720021C847012038600220E87008F130
:1052F0007800BDE8F243FBF7A7B9BDE8F1830120D0
:10530000E061287800281DBF0021396103200620B4
:10531000E870032020600020786078688107E6D478
:1053200070684668E878032808D1022100910523B7
:10533000602200214846B04704200BE00020009086
:105340000523602200214846B047E87806280CBFB4
:1053500007200A20E87001207860C8E7042903D1FB
:105360002021A161012105E001220A29A2610CBFCF
:10537000032102216970002121600821C1600160C0
:1053800001202060B9E705290CBF06200920E8703C
:105390000020E1E70020386078600C20A6E70021BB
:1053A00001600120674908600E20FFF7ACF9022078
:1053B000FFF793F90120E8700020A8709DE7FEE751
:1053C00062496B4891F8E420921E0A2A1AD8DFE855
:1053D00002F0060A0E190A0E190A0E1912000268C6
:1053E0009107FCD548E741688A07FCD4FAE7416891
:1053F0008A07FCD5F6E702689107FCD441688A0762
:10540000FCD4EFE7FEE7F8B50446564D30212846B8
:10541000FFF75AFE4D4F07F1B806C0F30720706042
:1054200004212846FFF750FEC0F38440B0602021DD
:105430002846FFF749FEC0F38120B4F5C064B0618F
:10544000346003D1002087F8D800F1BD316997F8A6
:10545000D80028B97068B168F060F461B069706113
:10546000F06900284CBF6FF00102022200EB4000FF
:105470001018421000EB927001EBA0017268F2600C
:10548000002912DC7069032805D111F11502110001
:105490001EDA00211CE011F10B000100B8BF002151
:1054A000521E48BF0022F26007E01E2912DD70691B
:1054B00028B915391E29C8BF1E21032009E00B3960
:1054C0001E29C8BF1E21521C3F2AC8BF3F22F260BE
:1054D00000207061316108231D4CF06880B200909B
:1054E0004FF47F422768D7F804C030212846E047B0
:1054F0000120009011232768D7F804C04FF4003230
:1055000004212846E047306980B2009012232768C2
:10551000D7F804C04FF4F80204212846E047706928
:1055200080B200902846246865680A234FF44062E0
:105530002021A847F1BD000000800C40A5050020F7
:10554000A407010004800C402C500C40C40400202F
:10555000A401001008400C40B43F00501020094046
:105560003C600C4000A00C40A001001000400C402A
:1055700034600C403748006800F008B910B5374C6B
:10558000626D53680121032098472068C16A8847EB
:105590003349886010BD70B5304C616D0A680120D8
:1055A000904701281BD0A5692B48EE6800230122F3
:1055B0003421B047A0B1FFF7DDFF2068C16A8847FA
:1055C000274B9A6827491C68D860A4EB9404801A7A
:1055D0004843000C1860A04238BF204618600120E4
:1055E00070BD38B51D4C626D53680021032098478B
:1055F000616D0A680120904708B1FFF7BBFF206882
:10560000174DC16A88476860206E01688847286125
:1056100031BD10B501461448144B02681B681004D4
:1056200000161B394843C01000EB2240120601FB54
:1056300001F412161B06624361431B1600EBA22005
:10564000594300EBA14010BD00FB00F1C0EBA1509D
:1056500000B270478000001000A00C408C010010C8
:10566000101A002040420F0090130050A410005068
:1056700070B5044600F0A0F80646A08A002501286F
:1056800008D1FEF72BFA0546E068451BA068A84242
:1056900038BF0025304600F090F8284670BD808A5B
:1056A0007047012ADFF800F0BDAA0110F8B50446E2
:1056B0000B480C4F0668F8690D4650F82500B042BB
:1056C00009D1094800902046FFF7ECFFF86950F82F
:1056D0002500B04201D10020F2BD2046F2BD00BF3E
:1056E0001812000044010020E0020020102803D31B
:1056F00002491038C1F8000F704700BF00E000E019
:10570000816042607047042ADFF800F0E1BE0110BA
:1057100070B500F051F8094D0446A8680021FFF764
:10572000F3FF06466869861BA869B04238BF0026A9
:10573000204600F042F8304670BD00BF78010020DE
:10574000DFF800F079AD011010B50446034BFFF708
:10575000F7FFA06800B1204610BD00BFE0020020A6
:1057600001488068704700BFC801002038B5044672
:105770000D4600F02CF8616A0D43656200F028F8D0
:105780002046BDE83240FFF7F3BAA62A70B50446BA
:10579000FFF78EFC451EAD41ED0F064E3068002828
:1057A000FCD0A047012131601DB1BDE87040FFF77A
:1057B00083BC70BD00800C4000E005E0EFF3118079
:1057C000202181F31188704780F311887047F5E735
:1057D000FAE70000F2E7F7E70D49C20744BF0122EC
:1057E0000A60820744BF4FF480720A60400744BFDA
:1057F0004FF4803008607047064AC30748BF116005
:10580000830748BF5160400748BF91607047000060
:10581000042009401820094038B50546FAF785FFED
:105820002C680CB121682960FAF78FFF204632BD41
:10583000F8B506460F46346800201546386034B97E
:10584000FAF773FF376095B1012129700FE005B1B8
:105850002870FAF76AFF00E0246821680029FBD16C
:10586000BC4203D1FAF771FF0020F2BD2760FAF7BE
:105870006CFF0120F2BD70B5002306462824DFF836
:10588000740A5C43204400F12404B4F90050B5428A
:1058900004D10D0006D0E4780C4203D15B1C082B28
:1058A000ECD3002070BD10B50446FAF7CBFE2046BD
:1058B000BDE81040FAF7C8BE38B504460D4600F002
:1058C000C7FFA04231BF241A641E241A641CA40816
:1058D00005F57A70A04238BFB4F1405F05D2641B71
:1058E000012C98BF0124204632BD002032BD70B586
:1058F0000446DFF8040A006A0025D8B18268117BEB
:10590000012501F00F01022913D1C068DFF8EC393D
:10591000C16893F83F60192000FB06119068FFF7FB
:10592000CBFFDFF8DC1920600A68B0FBF2F22260DE
:1059300001E000202060284670BD30B5039C049D26
:1059400001600474C5604260836030BDF0B583B00F
:105950000446FAF7EAFE05468CB3DFF8A829607C16
:1059600013680121DF0701FA00F60FD5DFF8982947
:105970005368113001FA00F023EA0000506010680B
:10598000637C113301FA03F3984310600020DFF8C1
:10599000947BA074002394F911003A88814011434C
:1059A0003980002001900021009100222046FFF75D
:1059B000C4FFF878411EF970F0B200F0CDF8284627
:1059C000BDE8FE40FAF7C1BE032805DA1421DFF86E
:1059D0002C29484310447047002070472DE9F041BE
:1059E00006464FF0FF30002730600025DFF81049F1
:1059F000DFF80889E8B2FFF7E7FF00281CBF817CC9
:105A0000002917D0017C0127022919D0DFF8E828E6
:105A10008068516B98F83F20C968192303FB021175
:105A2000FFF74AFF2168B0FBF1F03168884288BF78
:105A3000084630606D1C032DDCD33846BDE8F0818C
:105A400000203060F9E738B504281BD1DFF8A848FA
:105A500004F1E8052846FAF7EBFD98B12846FAF775
:105A6000E5FDDFF89C180A685043B0F5967F09D22F
:105A70002846FAF7EBFD0520FEF794FE0120A077FB
:105A800000F0E5F8002032BD38B5002001F0BFF885
:105A9000DFF864480FF2A541002204F17C00FAF718
:105AA0004AFE00F038FB90470246A06B904231BF9F
:105AB000121A521E121A521CE06B1218E07D120BC1
:105AC000E26300281CBFA17D012903D0206CC00225
:105AD00090422BD20020A0750121E175DFF8A00BC8
:105AE00001680A0622D540F6090020800021607B6B
:105AF000616000F0D6FB6073207B00F0F000207343
:105B0000FAF713FEDFF87C1B4A6922F002024A61B1
:105B10006FF002020A610C600B699D07FCD50A61F7
:105B20004A6942F002024A61FAF70FFE0020A063C0
:105B300001F040F8DFF8481C0020086031BD10B5C6
:105B40000446FAF7F2FDDFF8B0170A7D14430C752E
:105B5000BDE81040FAF7F9BD70B582B00646FAF715
:105B6000E4FDDFF894570446287D38B3297D21EA07
:105B700006062E75287D010720D4287D01061DD438
:105B8000287DD8B1DFF8741791F83E00B0B96846A7
:105B9000FFF724FF00281CBF009800280ED0002625
:105BA000F0B2FFF711FF20B1817C022904BF01226E
:105BB0008274761C032EF3D300202875287D10B93B
:105BC000082100F077F92046FAF7BFFD73BD30B524
:105BD00083B0054601A8FFF78AFE04466846FFF732
:105BE000FDFE3CB10028019908D0009A914205D9E8
:105BF000114603E0002814BF0099002129602043CA
:105C000018BF01203EBD38B5DFF8EC46617E19B102
:105C10001920FAF78EFD31BDA17EB9B9FAF785FDDD
:105C200005466846FFF7D3FF70B1E07E10B1012151
:105C3000217609E0009828B1014604F1E800FFF759
:105C400032FE01E000F003F800F08CF831BD0421D1
:105C500004F14800FFF7D0B8F8B5DFF89C66DFF82C
:105C6000240B746A01F001F80546DFF8D40B0268D2
:105C7000076802F020022A4018BF002C07F46027B2
:105C80000BD0B462D4E906011143C4E906014FF414
:105C9000005106F14800FFF7AFF83D400ED0DFF8A5
:105CA0005C0690F83E1041EA554580F83E5006F1FA
:105CB0009800BDE8F4400021FFF79EB8F1BD2DE942
:105CC000F843FAF732FDDFF83486054698F83E00CF
:105CD000002448B1002098F83E1001228240114271
:105CE00010D1401C0328F6D300F03CF898F83E0091
:105CF00030B1BDE8F4430021DFF89C0BFFF77CB81E
:105D0000BDE8F18398F83E1010228240114218BF7E
:105D1000012498F83E1011228240914388F83E10E9
:105D2000C0B2FFF751FE0028DED00168477C46680C
:105D300089460CB18E6905E0017C022902D1C26856
:105D4000D1040AD4FFF702FE3CB100224FF00073E9
:105D50006FF0FE014846B047C6E700224FF00063EF
:105D60003946F7E72846FAF7F0BC2DE9F843DFF8A3
:105D70008855DFF810696C6A00F00CFF07466CB3B9
:105D8000D4E90401BA071AD500226A6240F002037E
:105D9000226A1F4017432762D4E906233A43C4E925
:105DA000062372698243726105F12C00F2688A430E
:105DB000F26021460022FFF73BFD02210CE0074084
:105DC0000CD0AC62206A07432762D4E9060138434D
:105DD000C4E906014FF4804100F06CF84FF0000870
:105DE000DFF818754FF001095FFA88F0FFF7ECFD56
:105DF00004002DD0A07C01282AD1B168607C11302C
:105E000009FA00F08143B160F068617C113109FA50
:105E100001F10843F06094F9110009FA00F0C0B2F2
:105E2000FFF78DFEE068002100F07EFC812802D1A2
:105E30000220A0740CE097F83E00112162569140B8
:105E4000084387F83E00002105F19800FEF7D4FFD3
:105E500008F10108B8F1020FC6D92C6A686A30BB94
:105E60001CB36846FFF743FD00281CBF00980028BC
:105E700003D00820FFF770FE19E00820FFF75FFE4F
:105E8000D4E904017269024372610020F2680A4396
:105E9000F260F061A0683060F0690028FCD005F184
:105EA0002000FFF7B9FC686201E000F002F8BDE8ED
:105EB000F183022105F14800FEF79EBF08204BE662
:105EC0002DE9F042074689463E6E14461D4606B14E
:105ED000B047D7E9160104400D400020854208BFB5
:105EE000844216D080214846FFF7C5FCC7E91A4511
:105EF00038B1D0E90623A243AB43C0E90623396E8B
:105F000041600020386607F13800BDE8F04200F03B
:105F100002BFBDE8F0820000704780B5FEF76AFF5F
:105F2000DFF8D4230146506B526CBDE8084010479F
:105F30000421DFF8700BFEF75FBF000080B500F0B2
:105F400029FEDFF8641B084204D0BDE804404FF08E
:105F50000051EEE701BD70B5DFF89C53EC6A002CF0
:105F600052D0A168202000291CBFC2B2002A51D003
:105F70000A8840F603039A421FBF40F604039A4280
