:020000040000FA
:10000000004400204D22010001C9011001C9011066
:1000100001C9011001C9011001C9011001C9011074
:1000200001C9011001C9011001C9011001C9011064
:1000300001C9011001C901103FC90110DFF800F02A
:1000400085BF0110DFF800F061C00110DFF800F09B
:1000500079BF0110DFF800F0A9C00110DFF800F04F
:1000600089AF011020B1082330220021FFF7EEBF35
:100070007047F0B51C008DB005460E46174603D1FB
:10008000002300F075FA0CE06846FFF7EBFF2068EC
:1000900005906B46606808903A4600F004F800F05E
:1000A00067FA0DB0F0BD207AADF818003146284649
:1000B0007047FFF7CFBFFFF7C1BFFFF7CFBF00F01B
:1000C00077BA00F07FBA002101604FF0FF31416044
:1000D000012101727047FFF7B5BFF0B40246106806
:1000E00095681318506803EB5004C00721D54D44A0
:1000F0001FE0F0BC02F10C00704713F8017B05F81B
:10010000017B491EF9D1A0B1B60813F8011B06F016
:100110000306032E08BF13F8016B01EB06214942C9
:10012000801C294405D011F8016B05F8016B401EB5
:10013000F9D1A342DDD013F8016B16F0030104BF1F
:1001400013F8011BC91C30090F28DAD113F8010B71
:100150000F30D6E7DFF800F0C1BF0110DFF800F084
:10016000B9BA0110DFF800F0E5C00110DFF800F0C7
:100170001FBE0110DFF800F0DDC00110DFF800F055
:1001800069B20110DFF800F091BE011020B1082320
:1001900024220021FFF7DEBF7047F0B51C0089B0B4
:1001A00005460E46174603D10023FFF7E7FF0AE096
:1001B0006846FFF7EBFFA06806906B463A4631466B
:1001C0002846FFF7DBFF0E480E4A016811602846FB
:1001D00009B0F0BDFFF7CEBFFFF7D4BF00F0FAB90A
:1001E00080B500F00EFA00B10120C0B202BD0021BE
:1001F00081607047FFF7B6BFFFF7B8BFFFF7AEBF2C
:1002000070230100C01800203A4908686AE03A4AA1
:1002100011680029FCD10023D3611060D069002847
:10022000FCD0D161506870473448016821F0020168
:1002300041F40071016003213148816041F23001D5
:1002400041610121C160502141610121C1604FF430
:10025000CA6141610121C16001607047294802689B
:100260000A6082684A60C2688A60406B20F0784009
:1002700040F08050C860704701461022224800F0CC
:1002800013B97047FEB50188B1F5C15F18D1426955
:100290001E4F0092002382690192C06902901C489F
:1002A0000268C2F303625DF8230098B1002550F89C
:1002B0002560BE4206D06D1CEDB2042DF7DD09E0CD
:1002C0000120FEBD042D05DC26F4702444EA02441E
:1002D00040F825405B1C032BE5DB0020FEBD0D49EB
:1002E0000A681040C2430A600A680242FAD17047A5
:1002F00000000000101004400010044000000460E2
:10030000004104404C130050180000210200F84442
:100310005413005008100440DFF800F011BF011022
:10032000DFF800F011B00110DFF800F015C0011087
:10033000DFF800F015C10110DFF800F005B301107F
:1003400020B1082328220021FFF7EEBF70470021CB
:1003500001604160C1604FF0FF318160704770B54E
:1003600014008AB005460E4603D1002203F0E6F9D8
:100370000CE06846FFF7E4FF206804906A46606876
:100380000590314600F004F803F0D8F90AB070BDCA
:10039000E0680790A068069028467047FFF7C8BF3E
:1003A000FFF7BABF03F0D6B903F0DAB9FFF7B8BF69
:1003B000FFF7C2BFDFF800F009C00110DFF800F05E
:1003C000D1B20110DFF800F0059B0110DFF800F05A
:1003D000E1A30110DFF800F05DB40110DFF800F0D8
:1003E00009C10110DFF800F00DC1011020B1082390
:1003F00024220021FFF7DEBF704730B589B00446E4
:100400000D4600F00BF801218DF818106A462946B8
:100410002046FFF7DFFF204609B030BD6846E5E71C
:1004200010B58AB00446FFF7F9FF01218DF81810C6
:100430002046034A6946FFF7C1FF0AB010BD00001D
:100440008403002080B500906846FFF7C7FF01BD18
:10045000FFF7C8BF80B5FFF7B5FF10B96FF0010017
:1004600002BD002002BDFFF7B1BF024681B0107887
:10047000022903D1517800EB012013E0032906D1B2
:100480005178927800EB012000EB02400AE0042949
:1004900008D15178937800EB0120D17800EB03402C
:1004A00000EB016001B0704762B38B0708D0521EA9
:1004B00011F8013B00F8013B00F024808B07F6D1D6
:1004C000830740F0208000BF103A07D330B4B1E872
:1004D0003810103AA0E83810F9D230BC530724BFC6
:1004E000B1E80810A0E8081044BF51F8043B40F8F8
:1004F000043BD20724BF31F8022B20F8022B44BF63
:100500000B7803707047121F17D35B0009D151F8A5
:10051000043B20F8023B1B0C121F20F8023BF6D2D2
:100520000BE051F8043B00F8013B1B0A20F8023BAA
:100530001B0C121F00F8013BF3D238BF121D521ED4
:1005400024BF11F8013B00F8013BF8D87047017057
:100550000A0A42700A0C090E8270C170001D7047B1
:10056000002203F011B9FF7FDFF800F0BDAA0110EF
:10057000F8B504460B480C4F0668F8690D4650F86C
:100580002500B04209D1094800902046FFF7ECFF52
:10059000F86950F82500B04201D10020F2BD204694
:1005A000F2BD00BF181200004401002084030020A7
:1005B000102803D302491038C1F8000F704700BF5C
:1005C00000E000E08160426070470000DFF800F06A
:1005D0009DB2011070B5044603F006F90646A08AE4
:1005E0000025012808D1FFF7F1FF0546E068451B0B
:1005F000A068A84238BF0025304603F0F6F8284628
:1006000070BD808A7047006808B9012070470020DB
:100610007047006870470068704738B504460D465B
:10062000FFF749FD00212960616869606168002960
:1006300014BF0D6025606560FFE7BDE83240FFF73D
:100640004ABD0A684B68002A0CBF436053604A6881
:1006500009680AB9016070471160704700400000E6
:10066000DFF800F031BF0110DFF800F0F5B701103E
:1006700030BF7047FCE738B502F07CFD02F02CFD7E
:1006800002F023F8054605F00C000C2853D068074B
:1006900029D403F0DDF804460121012002F019F805
:1006A0003349096801FB04F290421CD2F020B0FBF0
:1006B000F1F03049241A887C18B1C868A04238BFCC
:1006C00004462D4D214605F10C00FFF74BFD05F1C9
:1006D0000C00FFF74BFD012002F07DF905F10C0045
:1006E000FFF73CFD29E0280725D4244C2448216A43
:1006F0008A6890470428F8D0EA06224900D420B935
:10070000086840F00100086003E00A6852085200DF
:100710000A601D481D4D016841F003010160202061
:1007200022689169884728682068816B8847012181
:100730002960286801E0FFF79DFFBDE8314002F025
:100740001DBD10B5124CFFF78BFF206011480068EB
:1007500008B18047606010BD10B50F480C4C0168AF
:1007600009B1606888472068BDE81040FFF77CBF8A
:100770007023010040FD000068050020B801001052
:10078000004003408C210840242208402C200940CE
:10079000181800204C23010050230100DFF800F05E
:1007A000FD1E0110DFF800F029F10010DFF800F065
:1007B00095280110DFF800F0452C0110DFF800F05B
:1007C0006523011070B5524C236801468AB010228F
:1007D00003F1480007F06FFB2068C17800250A0785
:1007E00022D50179052903D100F0A4F800208CE07E
:1007F000012914BF0629002300F1700506D0836883
:100800002978CB4003F0010343F0800302AA009251
:1008100000F14802686800F12001A868FFF7C6FFF0
:10082000050007D0082070E000F1480102AA083056
:100830000EF0D4FB206800F13801102202A807F066
:1008400044FB01285FD12068C1780A0742D50179AD
:1008500001291FD0062900F1700613D101AA0092C8
:100860000021019100F1480300F128027068B1688D
:100870002030FFF79FFF2068019AC0880321FFF70F
:100880008DFF41E03078401C3070206890F8701087
:10089000142902D100F04EF836E0102128300CF077
:1008A00021FF206800F1700400F11801009100F1AF
:1008B0002802836821786068CB4003F00103A168B7
:1008C00043F080032030FFF771FFFFF76BFFD8B1D3
:1008D000082519E000F1280200F1480106AB0830B4
:1008E000FFF76CFF50B90CF001FF00900023206867
:1008F000C088002206A90EF0E7FB00B10825216898
:100900000620487000E0042528460AB070BD00BFEC
:10091000304F0020DFF800F0B9F20010DFF800F0EF
:1009200015F20010DFF800F0F9ED0010DFF800F02C
:1009300035F4001010B5174C206800F1480182B062
:100940002830FFF7EBFF082806D1206808218DF832
:1009500000106946C08814E020680179052906BFA7
:10096000826E921C00F1080200F148010123283038
:10097000FFF7D0FF40B1082022688DF800006946DB
:10098000D088FFF7CFFF13BDFFF7D0FF21681720F6
:10099000487013BD304F0020000000000000000030
:1009A0000000000000000000000000000000000047
:1009B0000000000000000000000000000000000037
:1009C0000000000000000000000000000000000027
:1009D0000000000000000000000000000000000017
:10100000B41200001810000015AB0110FDB3011060
:101010006DC00110FDAE011099B501100000000077
:10102000000000002D000000B01200003C10000085
:10103000B1C00110A9BF011067C0011069B801104B
:10104000000000000000000030000000B0120000AE
:1010500060100000BDC00110CDB30110D9BD01105A
:101060006DB301100000000000000000310000001E
:1010700000000000A40300200400000000000000A5
:1010800000000000200000007C1B01003000000078
:1010900028100000C403002004000000000000002D
:1010A000000000000C0000008C210100180000006E
:1010B0004C100000CC0300200400000000000000E1
:1010C0000000000024000000A4210100180000001E
:1010D000000000000C0400200400000000000000DC
:1010E00000000000100000004C1C01002C0000005B
:1010F0000010000028040020040000000000000090
:101100000000000020000000241E01002400000058
:10111000FFFFFFFF3004002004000000000000007B
:101120000000000028000000481E0100240000000C
:10113000FFFFFFFF58040020040000000000000033
:101140000000000014000000BC2101001800000095
:10115000FFFFFFFF6004002004000000000000000B
:1011600000000000580000008C190100340000004D
:10117000FFFFFFFF680400200400000000000000E3
:101180000000000010000000D42101001800000041
:10119000FFFFFFFF700400200400000000000000BB
:1011A000000000001C0000006C1E01002400000074
:1011B000FFFFFFFF78040020040000000000000093
:1011C00000000000380000005C1D01002800000045
:1011D000FFFFFFFFE004002004000000000000000B
:1011E00000000000540000008C1601003C000000CC
:1011F00001000000742301000100000000000E0047
:1012000000000F003200000001000000AC030020CD
:10121000000200000000000001C9011000000000F1
:10122000000000000800000000002200D40300209D
:10123000000000000000000008000000380400204A
:101240000000000000000000080000000000000096
:10125000000000000000000000000000010000008D
:10126000800400200600000001000000E8040020C7
:10127000000000000000000000020000000000006C
:10128000290001002500300031002D00010001007F
:10129000040000008C22010000000000000000009B
:1012A000000001000000030013C40110E5BE0000AF
:1012B000B8120000B8120000000000001C0400205A
:1012C00085BD00002000000064220100841D010093
:1012D00029C10110DFA8000037C80000A1C7011014
:1012E000A3C7011000000000D0EC00003411010081
:1012F0004C1101001C110100020009000100000056
:1013000001000000291D0100FD1C010099200100C1
:10131000711A01004B1B010065110100AD0A0100AB
:1013200005220100FDBC00001DBF000021BF000020
:1013300038B50546FEF7BFFE2C680CB12168296060
:10134000FEF7C9FE204632BDF8B506460F463468A2
:1013500000201546386034B9FEF7ADFE376095B110
:10136000012129700FE005B12870FEF7A4FE00E00E
:10137000246821680029FBD1BC4203D1FEF7ABFEF3
:101380000020F2BD2760FEF7A6FE0120F2BD70B579
:10139000002306462824DFF8740A5C43204400F149
:1013A0002404B4F90050B54204D10D0006D0E4780D
:1013B0000C4203D15B1C082BECD3002070BD10B590
:1013C0000446FEF717FF2046BDE81040FEF714BFA5
:1013D00038B504460D4600F0C7FFA04231BF241ABD
:1013E000641E241A641CA40805F57A70A04238BF54
:1013F000B4F1405F05D2641B012C98BF0124204644
:1014000032BD002032BD70B50446DFF8040A006A20
:101410000025D8B18268117B012501F00F01022956
:1014200013D1C068DFF8EC39C16893F83F60192028
:1014300000FB06119068FFF7CBFFDFF8DC19206096
:101440000A68B0FBF2F2226001E00020206028462A
:1014500070BD30B5039C049D01600474C56042609A
:10146000836030BDF0B583B00446FEF724FE054628
:101470008CB3DFF8A829607C13680121DF0701FA2B
:1014800000F60FD5DFF898295368113001FA00F003
:1014900023EA000050601068637C113301FA03F303
:1014A000984310600020DFF8947BA074002394F927
:1014B00011003A88814011433980002001900021B9
:1014C000009100222046FFF7C4FFF878411EF97012
:1014D000F0B200F0CDF82846BDE8FE40FEF7FBBDB7
:1014E000032805DA1421DFF82C29484310447047FB
:1014F000002070472DE9F04106464FF0FF300027ED
:1015000030600025DFF81049DFF80889E8B2FFF7FE
:10151000E7FF00281CBF817C002917D0017C012730
:10152000022919D0DFF8E8288068516B98F83F202D
:10153000C968192303FB0211FFF74AFF2168B0FBBA
:10154000F1F03168884288BF084630606D1C032D79
:10155000DCD33846BDE8F08100203060F9E738B5CB
:1015600004281BD1DFF8A84804F1E8052846FEF757
:1015700037FE98B12846FEF731FEDFF89C180A685E
:101580005043B0F5967F09D22846FEF737FE052076
:1015900001F0B8F90120A07700F0E5F8002032BD95
:1015A00038B50020FEF76DFEDFF864480FF2A54164
:1015B000002204F17C00FEF784FD00F038FB904728
:1015C0000246A06B904231BF121A521E121A521CD0
:1015D000E06B1218E07D120BE26300281CBFA17DB6
:1015E000012903D0206CC00290422BD20020A075AC
:1015F0000121E175DFF8A00B01680A0622D540F64B
:10160000090020800021607B616000F0D6FB6073E0
:10161000207B00F0F0002073FEF74DFDDFF87C1B0F
:101620004A6922F002024A616FF002020A610C600C
:101630000B699D07FCD50A614A6942F002024A61C2
:10164000FEF749FD0020A063FEF7EEFDDFF8481C21
:101650000020086031BD10B50446FEF72CFDDFF810
:10166000B0170A7D14430C75BDE81040FEF733BD7A
:1016700070B582B00646FEF71EFDDFF894570446AB
:10168000287D38B3297D21EA06062E75287D0107BD
:1016900020D4287D01061DD4287DD8B1DFF8741729
:1016A00091F83E00B0B96846FFF724FF00281CBF40
:1016B000009800280ED00026F0B2FFF711FF20B1ED
:1016C000817C022904BF01228274761C032EF3D38D
:1016D00000202875287D10B9082100F077F92046F0
:1016E000FEF7F9FC73BD30B583B0054601A8FFF7DE
:1016F0008AFE04466846FFF7FDFE3CB100280199CA
:1017000008D0009A914205D9114603E0002814BF81
:10171000009900212960204318BF01203EBD38B543
:10172000DFF8EC46617E19B11920FEF7C8FC31BD27
:10173000A17EB9B9FEF7BFFC05466846FFF7D3FFA7
:1017400070B1E07E10B10121217609E0009828B146
:10175000014604F1E800FFF732FE01E000F003F873
:1017600000F08CF831BD042104F14800FEF71CBEE6
:10177000F8B5DFF89C66DFF8240B746AFEF7AFFD5E
:101780000546DFF8D40B0268076802F020022A4001
:1017900018BF002C07F460270BD0B462D4E906010F
:1017A0001143C4E906014FF4005106F14800FEF769
:1017B000FBFD3D400ED0DFF85C0690F83E1041EA9C
:1017C000554580F83E5006F19800BDE8F4400021F0
:1017D000FEF7EABDF1BD2DE9F843FEF76CFCDFF83A
:1017E0003486054698F83E00002448B1002098F859
:1017F0003E1001228240114210D1401C0328F6D332
:1018000000F03CF898F83E0030B1BDE8F443002108
:10181000DFF89C0BFEF7C8BDBDE8F18398F83E10D9
:1018200010228240114218BF012498F83E10112264
:101830008240914388F83E10C0B2FFF751FE002865
:10184000DED00168477C466889460CB18E6905E0A8
:10185000017C022902D1C268D1040AD4FFF702FE3A
:101860003CB100224FF000736FF0FE014846B047D4
:10187000C6E700224FF000633946F7E72846FEF737
:101880002ABC2DE9F843DFF88855DFF810696C6A47
:10189000FEF7BAFC07466CB3D4E90401BA071AD5BF
:1018A00000226A6240F00203226A1F401743276247
:1018B000D4E906233A43C4E906237269824372617C
:1018C00005F12C00F2688A43F26021460022FFF7FE
:1018D0003BFD02210CE007400CD0AC62206A0743BC
:1018E0002762D4E906013843C4E906014FF4804178
:1018F00000F06CF84FF00008DFF818754FF00109A0
:101900005FFA88F0FFF7ECFD04002DD0A07C0128E1
:101910002AD1B168607C113009FA00F08143B160CE
:10192000F068617C113109FA01F10843F06094F923
:10193000110009FA00F0C0B2FFF78DFEE068002147
:1019400000F07EFC812802D10220A0740CE097F800
:101950003E00112162569140084387F83E00002165
:1019600005F19800FEF720FD08F10108B8F1020F1B
:10197000C6D92C6A686A30BB1CB36846FFF743FDC2
:1019800000281CBF0098002803D00820FFF770FE35
:1019900019E00820FFF75FFED4E9040172690243F1
:1019A00072610020F2680A43F260F061A068306062
:1019B000F0690028FCD005F12000FFF7B9FC68624F
:1019C00001E000F002F8BDE8F183022105F14800D2
:1019D000FEF7EABC08204BE62DE9F04207468946AF
:1019E0003E6E14461D4606B1B047D7E916010440C5
:1019F0000D400020854208BF844216D08021484611
:101A0000FFF7C5FCC7E91A4538B1D0E90623A24360
:101A1000AB43C0E90623396E41600020386607F108
:101A20003800BDE8F042FEF71EBDBDE8F0820000C0
:101A3000704780B5FEF7B6FCDFF8D4230146506B43
:101A4000526CBDE8084010470421DFF8700BFEF728
:101A5000ABBC000080B5FEF7D7FBDFF8641B084283
:101A600004D0BDE804404FF00051EEE701BD70B571
:101A7000DFF89C53EC6A002C52D0A168202000298A
:101A80001CBFC2B2002A51D00A8840F603039A4212
:101A90001FBF40F604039A424968401EEFD140E060
:101AA00000224FF08043B4F92410E0686668B04724
:101AB000FEF701FB0646688E401CC0F30B006886EB
:101AC0000020E96A81F8270005F12C00FFF730FCBF
:101AD0003046FEF700FBB5F93200E26802F19401EE
:101AE000B1F9003098421BD1887808B9106828B93C
:101AF000002088700820BDE87040B9E5696B0B686C
:101B000013F1010F0CD0C44C2168BDE87040B0FB4C
:101B1000F1F1012998BF012102F17000FFF74FBCDC
:101B200070BDE06818222030FEF7CEFC226A00204B
:101B3000206260680028BBD094F82700002300F0E2
:101B40000700012842F0020207D00228A8D004288A
:101B500004BF00224FF08053A5E700224FF000534E
:101B6000A1E738B50D46A807A94C18D5FFF77FFFA8
:101B7000E06A25F0020510B145F0020109E06807AE
:101B800002D4206A002851D004F1E800FEF736FBA9
:101B9000042104F14800BDE83440FEF705BC6807A5
:101BA00044D50120E077042000F0ACFE00F03FF8BF
:101BB0009047A063206A08B1C0686063606B4168A9
:101BC000DFF8540A0A780260022000F09BFE112020
:101BD00000F0ADFE0120A076606B017C002919BFEA
:101BE000E07D00280E2000F0A2FE606BDFF8AC253F
:101BF00040688168002904BFC068002804D0002123
:101C0000D161DFF8180A106040F2FF70DFF8881623
:101C1000086000219161DFF8A80950610FF21900F6
:101C200060641920BDE83240FEF747BA31BDDFF8E5
:101C3000F80901680A6B70472DE9FF4104468800E6
:101C400040F18F80724D686B4068406800B18047FA
:101C5000686BDFF8486542689068002804BFD16867
:101C600000290DD000F0A3F8906800B18047686BA0
:101C70004068C06800B18047DFF8A409FEF7C7FAE2
:101C80000020F06140F60A08DFF898093060012072
:101C9000FEF7F7FA0FF28D106864002100206880CB
:101CA000A5F800806960287B00F0F0002873687B4D
:101CB00000F083F86873A26817467980E97D09B15E
:101CC000607CA0B1108840F60201884218BFB0F5D0
:101CD000C15F05D1398A4FF60F400140398204E0D7
:101CE000398B4FF60F4001403983002060746946FC
:101CF0001046FEF7B3FA6846FEF7BEFA786890B36E
:101D00000188414518BF0746F8D12CE0208C0028F7
:101D10003BD000216184616204F12C00427801789B
:101D200002F0F00201F0F00142F001020170427095
:101D300004F120006860687B00F0F000687324E024
:101D4000DFF8E8180A68136801209847012806D0D0
:101D5000787B00F032F878730FF269006864A0684D
:101D60003060BDE8FF817D6040F60301787B00F0C4
:101D7000F0007873286A8068008888421CBF40F6AB
:101D800004018842C2D10020A86300F010F84FF689
:101D9000FF30A1680A8A02400A82A87F0028CFD0BB
:101DA00000F04BFF0028FBD000F058FFD7E7F069A8
:101DB0000028FCD00021F161704700F0F00040F0F5
:101DC00001007047DFF86828114200D17047DFF842
:101DD0005C18012010B50A680D4C1368984701285B
:101DE00006D10FF241006064DFF8B003046010BD5B
:101DF00009490A683220B0FBF2F104F1E800BDE8BD
:101E00001040012998BF0121FFF7D9BA800A0020AC
:101E1000A4150020C4160020C0180020402108404E
:101E2000081004402DE9F04105460C46600484B0DA
:101E3000DFF8006819D5FEF73EF9B56A85B12F6A5B
:101E4000B9070DD400212962FEF745F9686848B149
:101E5000B5F92410E8686D683A460023A84701E008
:101E6000FEF739F924F48044E0E0A00709D5FFF734
:101E7000FEFDF06A002824F0020401D044F00204C0
:101E8000D4E0A0007BD5F07F20B1042000F0D5FC89
:101E90000020F07740F60202A8680188914218BF3E
:101EA000B1F5C15F05D1028A2D2161F309120282C9
:101EB00004E0028B2D2161F309120283B06B30B371
:101EC000DFF86487D8F854100A6804209047F0B10E
:101ED000D8F80000B76B016B8847874231BFC71B3A
:101EE000401EC71B7F1C688AE96800EB17308842D8
:101EF000E86002D209184908E96040F2D171E86847
:101F0000A0F5FA70884224BF40F6C411E960707BE6
:101F100010F00F0F02BF688C40F60901884207D10C
:101F2000AF6900224FF000736FF480712846B84704
:101F30000022DFF8041706F17C00FEF7C2F8B07D3E
:101F400068B10221ADF800106846FEF760F9BDF8EF
:101F50000800DFF8E816400988870020B0750120E6
:101F6000707624F000540020B076FFF7D8FB2846A6
:101F70006D6900224FF080630021A84756E02007DA
:101F800043D5707F10B1002171773BE0706B7030EA
:101F9000FEF734F96846FFF7A6FB20B1009906F179
:101FA000E800FFF70CFA002070760120F076DFF8E9
:101FB00090067064FFF7F4FA707D20B9716B01F13F
:101FC0003800FEF750FA022000F037FC112000F034
:101FD0004AFC287C10B90E2000F045FCB07F012897
:101FE00004D10021B177052000F027FC0020F07615
:101FF0003077307E30B10021317606F1480004217F
:10200000FEF7D2F924F0080410E0A0040ED5756A9A
:10201000002D1CBF6868002806D0B5F92410E868B8
:102020006D6800222023A84724F4005424B12146DF
:1020300006F14800FEF7B8F9BDE8FF81001700205F
:1020400030B585B000F05EFBDFF8F805DFF8F84545
:102050000168DFF8E05541F0020101606846FEF7D3
:1020600076F9A078DFF8E41502906A4605F1480099
:10207000FEF775F96846FEF726F82178DFF8D025D7
:10208000019100208DF808006B46192105F17C00B4
:10209000FDF7EFFF6846FEF75AF9E078DFF8B41570
:1020A00002906A4605F19800FEF759F96846FEF776
:1020B0000AF801208DF808006B466078DFF8982553
:1020C00001901A2105F1CC00FDF7D3FF0023002277
:1020D000DFF8881505F1E800FEF75FF8DFF8600526
:1020E000DFF87C2568640023042105F5867000F084
:1020F00092FBDFF848154FF6FF7088870122002019
:10210000E8756883E861A863AA750520286405B0AE
:1021100030BDF8B5DFF81C65306A0C4600278442F4
:10212000154616D19CB194F8271041F0040184F8AB
:10213000271006F12000FFF7FBF80022214606F1E8
:102140002C00FFF701F97F1C346A2800EAD13846D9
:10215000F2BD316A31B1086820B10A68A24201D0EB
:102160000968F7E70C4600E02468002CEFD02068EF
:102170000028F9D0216891F8270040F0040081F888
:10218000270006F12C000A6822607F1C0022FFF75E
:10219000DBF82800EBD1DAE700000440001004402F
:1021A0002DE9F04781468A4602F0010403275608CC
:1021B000FDF781FF1AF1010F06F001068046DFF8F6
:1021C000745405D1686A00280CBF286A686A03E065
:1021D00000215046FFF7DBF868B390F827100A0695
:1021E00028D5696A884215D190F827100122A240AB
:1021F000114380F82710002C14BFDFF86804DFF8C3
:102200006804FEF704F89EB1296A32464846FFF793
:1022100080FF0DE0014632464846FFF77AFF48B19D
:1022200005F1E800FDF7EAFFA87E08B9FFF7CDFB4E
:10223000832700E0042700F02EF93846BDE8F08738
:1022400010B5DFF8F0230C46517E59B1FDF7DFFFE2
:1022500004B1206000F0FF00012801D1812010BDF1
:10226000022010BD012010BDF8B504460D461646EB
:10227000FDF721FF0746DFF8BC03416B8C4218BF16
:10228000032404D131462846FFF7DAFF04463846D6
:10229000FDF721FF2046F2BD0000046020000E0083
:1022A000F0B50746DFF8C4038BB00E001546006892
:1022B00018BF002D1C464CD03278D040C00748D5FE
:1022C00000212846FDF7DEFF7E60BD60FDF7F3FECE
:1022D00000F044F83BD1FFF7B3FE707D401C7075F1
:1022E000FFF7CCFA34B903A80FF2A4311C22FEF791
:1022F000EBF803AC2068DFF8781338600A466068B2
:10230000F860207C387401207874608A7882E068F4
:1023100000B10146B961A06800B102467A61782136
:1023200007F12000FEF71CF9002107F13800FEF745
:1023300064F86846FDF75BFF02976B460022DFF802
:10234000341307F17000FDF728FF384602E0FFF76D
:1023500095FA00200BB0F0BD0C100440DFF8D462F9
:102360000546707D00287047F8B5FDF7A4FEDFF83C
:10237000C442617E29B1DFF800231468FDF7ABFE8B
:1023800014E0FDF7A8FEFFF752FC904710F500326D
:10239000DFF8E80241F10003A0FB026700FB0377CE
:1023A00021690020341847EB01052C462046F2BD78
:1023B0003C1600202DE9F04782B082460F46914638
:1023C0001C46FDF778FE804600202822DFF8B01278
:1023D00042438D1895F827100A0608D5401C082896
:1023E000F3D300F058F86FF00100BDE8F6870AF16A
:1023F0007000FDF703FFDFF83C62308E401CC0F335
:102400000B003086281D476005F1100787F81690ED
:102410000460318EB982C0F808A0DDE90A42DFF815
:102420006402202120401140C7E900016A460020D3
:10243000F875C7E90200294606F12000FEF784FF7F
:102440000028CED00AF19400B98A01808178012950
:1024500002D100228270B275F87D40F08000F875DC
:102460009DF8000001280AD1317F00291CBF707E31
:10247000002804D00121002071773077B07500F07A
:102480000AF89DF8000018B1716A09B9FFF747F919
:10249000B7F91400A9E74046FDF71DBE2DE9F0414C
:1024A0000C46002C054616461F4601D500201CE0B0
:1024B000FDF776FF804680212046FEF768FF040086
:1024C00003D094F82700010602D400F03DF80BE099
:1024D00094F8270010F0070F09D000F035F894F8B1
:1024E000270010F0070FFAD1022000212AE0D4E9DA
:1024F000060146F00206304039400022914208BFF2
:10250000904210D000F020F8D4E906013040394064
:10251000C5E91A01D4E9062322EA000023EA0101F1
:10252000C4E906010CE061685748814202D0616845
:1025300029666060C5E9166700F006F800F007F844
:10254000D5E91A01BDE8F0814046FDF731BF4FF0F3
:10255000FF3105F13800FDF77DBFDCB5DDE9066729
:102560000446CDE90067180008BF474B2046FFF737
:1025700021FF0146204602B0BDE8D04000224FF0C6
:10258000E0438BE70CE642F0020209E60FF200118D
:102590001C22FDF799BF00E000BF002264E680B571
:1025A0006A463A49FFF760FE812803D1009800028D
:1025B000001602BD6FF07F0002BD0000EC15002088
:1025C0000200004070B50E461546FDF774FD8324E9
:1025D000184A1EB1022E0ED005D30FE0516A41B148
:1025E000526A918C03E0917D19B9144A918F298028
:1025F00005E0802403E0517E297000E00324FDF70C
:102600006AFD204670BD80B508468021FEF7BFFEFA
:1026100000B1806802BD0000D021084051000706CB
:102620000100070601010E048C010010E0010010FA
:1026300004000020A415002083180000C416002008
:10264000631B00000020094058FD0000331A000001
:10265000551A0000D717000071170000491A000032
:102660005F1500000100020401000104D4210840AC
:10267000311A0000D51900000430044000093D0063
:10268000800A0020F1EFFF9FD91900000100030428
:10269000FFFFFFFFC4090000000000000000000071
:1026A00001003A01000000000000000070B5DFF8F2
:1026B0006447DFF864072568EE68002301223421AF
:1026C000B04700B10120C0B270BDDFF8500780688C
:1026D000704702460020022904D1012A06D140F2A7
:1026E000EE207047012A08BF4FF47A707047DFF878
:1026F0002C1791F8E60020B1D1F81001002818BF7E
:10270000004770472DE9FE43DFF8108708F1E10626
:10271000B07900287CD1DFF80817DFF808770A685D
:102720009209012002F00102B071F271F87CDFF829
:10273000F856DFF8F89670717868C8F810016846A6
:10274000FDF755FD002101918DF8001002916B46B7
:1027500000220FF2115108F10C00FDF71EFD6B462F
:1027600000220FF2F15108F13000FDF716FD6B4623
:1027700000220FF2255108F15400FDF70EFDB96853
:1027800001208847DFF8A80601786868C0F3815403
:10279000387D20B1032C02D10121317003E0032CDC
:1027A00018BF022C0DD1022000F0ACF8032CD9F890
:1027B00000100CBF4FF47A7042F21070B0FBF1F1D0
:1027C00018E0012C02D100F04EFA1BE0D4B902202F
:1027D00000F098F800F090FA9847012803D1002003
:1027E00000F041FA0EE0D9F800003221B1FBF0F11F
:1027F000B1FBF0F108F15400FDF7FCFC08F15400C6
:10280000FDF7FAFC286840075CBF002000F07AF86A
:102810000020BDE8FE8338B5002408B1150002D1C0
:102820006FF0020407E08160C26003610146DFF8D7
:10283000EC05FDF7F2FE204632BD10B50446FDF76B
:102840003AFCDFF8D8150A1992F8E9305B1E82F8D5
:10285000E930DBB233B98A68012303FA04F422EACF
:1028600004048C605FE0F8B50546FDF724FC0446DF
:10287000DFF8A815481990F8F020521E80F8F020D3
:10288000D2B27ABB0FF2F450DFF8A87500EB8502E4
:1028900010F825505688280615D539680A6A30463A
:1028A00090473A68916A3046884739680A6B3046E3
:1028B0009047DFF8841501200860DFF8801508686C
:1028C0008007FCD507E0680611D501EB86010020E2
:1028D000D1F80421904705F03F053F2D1CBF284645
:1028E000FFF7C1FF2046FDF7F6FB0020F2BD396877
:1028F0008A69304690473A68516B304688470228CB
:10290000F9D1E8E710B50446FDF7D5FBDFF80C1563
:102910008A680123A3401A438A60214491F8E92080
:10292000521C81F8E920FDF7D6FB002010BD2DE9EF
:10293000F0410746FDF7BFFB0546DFF8E064F019FC
:1029400090F8F0104A1C80F8F02049BB0FF22C5888
:1029500018F8270000F03F003F2818BFFFF7E7FFF7
:1029600008EB8700448818F82700DFF8C8740106D0
:102970000ED53968CA69204690473A68516A2046A0
:1029800088473968CA6A2046904700F01AF807E07D
:1029900040060BD506EB84010120D1F804219047B5
:1029A0002846FDF798FB0020BDE8F08139684A69A8
:1029B000204690473A68516B204688470128F9D154
:1029C000EEE7DFF8741401200860DFF8701408687F
:1029D0008007FCD570472DE9F84F0746DFF8400423
:1029E000DFF860540168002600244A06A0460DD591
:1029F000287B58B9DFF85004DFF8501402680A4009
:102A000042F081720260202000F07DF9012F18BF92
:102A10006FF0010957D12868012852D1022129609D
:102A2000FDF78FFE012000F06EF95FEA00094BD13F
:102A3000FDF7B6FCDFF81814DFF8F87300900C60AF
:102A40000120B96A0A689047012803D1002000F0EC
:102A5000B5F90124DFF8FC13DFF8E4A3DFF8F8236D
:102A60000E60DAF80010907808B14FF00108517844
:102A700009B148F00208107808B148F00408E87F6E
:102A800020B139680A6B4FF480609047A87F20B16D
:102A900039680A6B4FF481609047DFF89C1301207E
:102AA000086048F0200039688A699047DFF8AC1365
:102AB00001200860DFF86413087AC10709D50126F0
:102AC0001FE06FF004097FE001202860FDF744FE5D
:102AD0007AE0396ADFF888038A6890478346BBF159
:102AE000040FF6D0BBF1010F05D13A6ADFF870038D
:102AF000536803219847DFF86C030168890889004F
:102B00000160002000F0E4F9DAF800003868816B19
:102B1000884776B9BBF1010F05D13A6ADFF8400367
:102B2000536801219847DFF83C03016841F0030135
:102B300001600120DFF81C130860404639684A69CB
:102B40009047E87F20B13968CA6A4FF480609047A7
:102B5000A87F20B13968CA6A4FF481609047B649AE
:102B6000BE4A0120086000211160032028603A68F5
:102B7000516B404688470128F9D1DAF8000004205B
:102B800000F0C1F80646B24901200860DAF80010EA
:102B9000A34908688006FCD514B1012000F00EF9A5
:102BA00000F0ECFA082000F0AEF80643012028609F
:102BB0000098FDF7FDFB9B48008A00F05EFAFDF7E8
:102BC000CBFD0EB14FF0FF394846BDE8F28F38B566
:102BD0000446FDF770FA054621469048FDF731FDA1
:102BE0002846BDE83240FDF776BA3EB500240128FC
:102BF00004D020D303281CD017D31CE06846FDF76F
:102C0000F6FA864D984901948DF8004002946B467F
:102C1000012205F17800FDF7C0FA0023934A2C2128
:102C200005F19C00FDF725FA05E000F0C3FA044623
:102C300001E000F083FB20463EBD38B5FDF73BFACE
:102C40007649054691F8E000012410B1FFF72EFD0A
:102C500004462846FDF73FFA204632BD002079E0C1
:102C6000000000007047F8B56A4C6B4D03200090DF
:102C70001C23266877684FF0405200212846B84749
:102C80000120009028462468656809234FF40072EB
:102C90000021A847F1BD000010B500F02DF89847BD
:102CA000022818BF032805D1FFF7DDFFBDE810405B
:102CB0000220C2E5012802D1BDE81040D3E76C48EC
:102CC0000168C1F38150032808BF4FF47A7004D023
:102CD00002280CBF41F28830322054494F4C0A6818
:102CE000B0FBF2F104F15400FDF784FA04F1540052
:102CF000BDE81040FDF780BA5E490A6813680420F9
:102D000070470020704738B50546444C2046FDF713
:102D10007AFC88B92046FDF77CFC0446A06828426E
:102D200005D02269E36800212846984730B920463B
:102D3000FDF771FC0400F1D1002032BD4FF0FF30EF
:102D400032BD4D4901280CBF40F2FF7000200860E1
:102D50000020704770B5FDF7AEF9304D314E044696
:102D600095F8E00050B1287A410613D4FFF79EFC95
:102D700080B100F072FC002085F8E0000220B56808
:102D8000A84706461020FFF7BEFF012E11D10320F1
:102D9000A8470EE025490A683220B0FBF2F101B9DC
:102DA000012105F13000FDF725FA05F13000FDF7AE
:102DB00023FA2046BDE87040FDF78DB938B50128EB
:102DC00023D12C490A681368984701281DD000F0C8
:102DD00037FC124D012085F8E000287A810616D4D0
:102DE000124802683221B1FBF2F404B9012405F162
:102DF0003000FDF703FA214605F13000FDF7FAF93E
:102E000005F13000FDF7F8F901E000F04CFC00207E
:102E100032BD0000A401001000A00C406805002095
:102E20001410094040FD0000B03F0050C0180020C1
:102E3000D4190020B801001028200860282008407C
:102E40002C2009404406002004000940FFFFFCFC40
:102E50000C40094000022243670600208001044321
:102E6000004003402422084085340000193200004D
:102E7000B43F0050E0010010000004608F0000002B
:102E80008F0001008F0002008F00030090000001FE
:102E90008F00010190000002900000038F000104E8
:102EA0008F0000058F0008048F0000048A000006D0
:102EB000510000007F0001003F0004003F000200BD
:102EC0003F0001007F0002001628A8BF203870478D
:102ED0002DE9F84F80469748DFF85C920168974EDD
:102EE0008A0705D50820B0719548C9F80000C2E0EE
:102EF000944801680A6890478246934805682F17EE
:102F000000247F1CA80208D4CAF13E00C010082883
:102F1000C8BF08208742B8BF07468C480168C1F384
:102F20000460FFF7D1FF834689480168C1F304407C
:102F3000FFF7CAFF5F44152F0146C8BF152704DC01
:102F40006FF009008742B8BF074607F01F00814AAB
:102F500040F4F8501080804A106810F0030F18BF3A
:102F60000124400748BF44F0020496F90700B8F175
:102F7000000F18BF44F00404AAEB0000042802DC90
:102F8000B27994425DD0AAF10F084FF0000BB8F16E
:102F9000000FDC4604F00400704B24D408EB081842
:102FA0004FEA282CBCF1070F88BF4FF0070CE6460C
:102FB000BEF1070F28BF4FF0060E1A1D52F82E2043
:102FC00053F82EE0A2EB0E0E0EF0FF0B10B1CEF375
:102FD00007229344A20744BFCEF307429344E2077B
:102FE00048BF0BEB1E6B53F82C2002F0FF0310B10F
:102FF000C2F30720C318A00744BFC2F30740C31899
:10300000E007A8EB0C2048BF03EB126300FB0BF0BA
:10301000CF1B8030002F03EB1023D8BF01273420B3
:1030200005F0FF0547437D43B5FBF3F04FF6FF7115
:10303000884288BF08460AF3070AB08086F807A0CE
:10304000B47147480168B088316000211F2804D25C
:103050001F20B08004E04008491CB0F5007FFAD280
:103060000F38000941EAC0013E480143C9F8001089
:103070000020C9F80400BDE8F18F38B505463A488C
:103080000468A4B23CB32F4801680A6890472B49F2
:1030900091F90720904205DA6FF07F029042B8BFA5
:1030A0001046C871A542888834BF641B012484423D
:1030B00010D32B4A13680A689A1A921C1F2A88BFD9
:1030C0001F22241A5208D4402418B4F5803F28BF88
:1030D0004FF6FF748C8031BD2448006800B97047FA
:1030E00030B523498A6802F04063B3F1406F1FD0C6
:1030F000104B1C68A5071BD44C68A50718D41C6886
:103100000968C1F303511C31090114F0050F04D003
:1031100088420DD224F0050409E0814208D2100152
:1031200058BF44F00104500158BF44F004041C602F
:1031300030BD00000000094030100940D8180020C0
:10314000FDFDA400EC010010B43F0050B812005087
:103150003C1100506E620840242208409C1300502D
:103160000820094000E7A480341009402850094095
:10317000AC3F0050EFF3108072B67047EFF3108051
:1031800062B670470138FDD17047704710B50C1812
:10319000FFF7F0FF411E8941C90FDFF86024106876
:1031A0000028FCD024680123136009B1FFF7E6FF73
:1031B000204610BD38B5DFF8485428780024002890
:1031C00002BFDFF84014487D00280CD0FCF773FFE5
:1031D0000146A878002806BF0122AA7001240846EB
:1031E000FCF779FF0CB1002032BD0220FFF78AFB0B
:1031F0000E20FFF79CFBDFF81014086808B10120CF
:1032000032BDDFF808044022C26002600120C861BC
:103210000020687032BD00002DE9F041DFF8EC13AA
:1032200082B000200860DFF8E81301F1D804A07A2A
:10323000002837D00128DFF8DC53DFF8DC2332D157
:10324000DFF8D81316684BF2F52046430868360AB3
:10325000C0F3814001280BD1A86C0168884700F0B9
:103260003AFA00F053FA3509C010454306EBE5364B
:10327000607B10B10021617306E0DFF8A4030068F1
:1032800020F07F4036187608DFF898030660360C89
:10329000466001218160DFF86C13487D002849D029
:1032A0000521217348E0022809D11568284600F05D
:1032B0000CF9A5F2FF55032D3CD308203BE0032871
:1032C0003AD1106801F1B806A0F5C0603168F0612C
:1032D000002948BF4942002848BF40428142A8BF58
:1032E000002026DA7068D04F80B200900823D5F80D
:1032F00000C0DCF804804FF47F4230213846C047DC
:10330000B06880B200901223D5F800C0DCF80480C9
:103310004FF4F80204213846C047B06980B20090EB
:103320000A232D686E684FF4406220213846B0476A
:10333000012020700B202073BDE8F3412DE9F843F4
:10334000DFF8CC82B94EDFF8E092B94CB94FAF4804
:1033500008F1E105E9784A1E0B2A00F29280DFE8C5
:1033600002F00630415F74415F74415F7B803168D9
:103370000A68202090470F20E060072341F61D5087
:1033800020614FF4C072022000900021D6F804C0E2
:10339000DCF804404846A04776684846D6F80C90CA
:1033A00007234FF4C0720021C84701203860022073
:1033B000E87008F17800BDE8F243FCF71DBFBDE8F6
:1033C000F1830120E061287800281DBF00213961C8
:1033D00003200620E87003202060002078607868D1
:1033E0008107E6D470684668E878032808D102218E
:1033F00000910523602200214846B04704200BE0DD
:10340000002000900523602200214846B047E8785C
:1034100006280CBF07200A20E87001207860C8E762
:10342000042903D12021A161012105E001220A29FB
:10343000A2610CBF032102216970002121600821D3
:10344000C160016001202060B9E705290CBF06209A
:103450000920E8700020E1E70020386078600C2047
:10346000A6E7002101600120674908600E20FFF7F0
:10347000FAF90220FFF7E1F90120E8700020A870B6
:103480009DE7FEE762496B4891F8E420921E0A2A04
:103490001AD8DFE802F0060A0E190A0E190A0E19E8
:1034A000120002689107FCD548E741688A07FCD4FE
:1034B000FAE741688A07FCD5F6E702689107FCD471
:1034C00041688A07FCD4EFE7FEE7F8B50446564D9D
:1034D00030212846FFF75AFE4D4F07F1B806C0F3DA
:1034E0000720706004212846FFF750FEC0F3844097
:1034F000B06020212846FFF749FEC0F38120B4F5D3
:10350000C064B061346003D1002087F8D800F1BDF9
:10351000316997F8D80028B97068B168F060F46133
:10352000B0697061F06900284CBF6FF0010202229F
:1035300000EB40001018421000EB927001EBA0016C
:103540007268F260002912DC7069032805D111F15C
:10355000150211001EDA00211CE011F10B00010020
:10356000B8BF0021521E48BF0022F26007E01E29AA
:1035700012DD706928B915391E29C8BF1E21032024
:1035800009E00B391E29C8BF1E21521C3F2AC8BFA3
:103590003F22F26000207061316108231D4CF06809
:1035A00080B200904FF47F422768D7F804C03021E2
:1035B0002846E0470120009011232768D7F804C06F
:1035C0004FF4003204212846E047306980B2009071
:1035D00012232768D7F804C04FF4F80204212846C4
:1035E000E047706980B200902846246865680A2325
:1035F0004FF440622021A847F1BD000000800C403C
:103600004906002040FD000004800C402C500C4076
:1036100068050020A401001008400C40B43F005091
:10362000102009403C600C4000A00C40A00100109C
:1036300000400C4034600C403748006800F020B96E
:1036400010B5374C626D53680121032098472068FC
:10365000C16A88473349886010BD70B5304C616DD0
:103660000A680120904701281BD0A5692B48EE6805
:10367000002301223421B047A0B1FFF7DDFF20680D
:10368000C16A8847274B9A6827491C68D860A4EB11
:103690009404801A4843000C1860A04238BF2046AA
:1036A0001860012070BD38B51D4C626D5368002153
:1036B00003209847616D0A680120904708B1FFF721
:1036C000BBFF2068174DC16A88476860206E01689B
:1036D0008847286131BD10B501461448144B026873
:1036E0001B68100400161B394843C01000EB224031
:1036F000120601FB01F412161B06624361431B16FE
:1037000000EBA220594300EBA14010BD00FB00F1EB
:10371000C0EBA15000B270478000001000A00C4028
:103720008C010010C418002040420F00901300507C
:10373000A4100050DFF800F079AD011010B5044678
:10374000034BFFF7F7FFA06800B1204610BD00BF94
:103750008403002001488068704700BFC801002032
:1037600038B504460D4600F04AF8616A0D436562BB
:1037700000F046F82046BDE83240FCF7D1BD001805
:1037800062F30F2262F31F42401810F0030308D0C7
:10379000C91A1FD3DB0748BF00F8012D28BF20F846
:1037A000022D130030B414461546103928BF20E905
:1037B0003C00FAD8490728BF20E90C0048BF40F870
:1037C000042D890028BF20F8022D48BF00F8012DE4
:1037D00030BC7047C91818BF00F8012DCB0728BFAF
:1037E00000F8012D7047011800E005E0EFF31180AB
:1037F000202181F31188704780F311887047F5E725
:10380000FAE70000F2E7F7E70D49C20744BF0122DB
:103810000A60820744BF4FF480720A60400744BFC9
:103820004FF4803008607047064AC30748BF1160F4
:10383000830748BF5160400748BF91607047000050
:103840000420094018200940DFF800F0E1BE011013
:1038500070B5FFF7C9FF094D0446A8680021FFF7BE
:10386000F3FF06466869861BA869B04238BF002688
:103870002046FFF7BAFF304670BD00BF7801002038
:1038800070B50446FFF776FC451EAD41ED0F064EC0
:1038900030680028FCD0A047012131601DB1BDE88F
:1038A0007040FFF76BBC70BD00800C40DFF800F08B
:1038B00021C00110DFF800F019AE0110DFF800F0B0
:1038C000F99B0110DFF800F055A40110DFF800F0BB
:1038D0004FBF0110DFF800F005840110DFF800F0A1
:1038E0008984011000B58FB008233C22002168466E
:1038F000FFF7DCFFDFF8A00B00F1500107914FF458
:10390000587201210892069100236A460FF2751140
:10391000FFF7D0FF0FB000BD30B5DFF8804B83B0AC
:1039200004F12401204601F0B0F904F1500001F047
:10393000F7FCA06200230020019000904FF47A72FF
:103940000FF6F121DFF8585B04F12C0001F0A4FC24
:103950000FF6ED2001F044FD00214FF0804001F012
:103960009FFD20626A464FF6FF70E0810121002032
:10397000206108208DF8000040F2044001F0EEFDC7
:103980004FF47A630222294600F007FC4FF47A6371
:103990000322294600F001FC0FF6AC20DFF8041BDF
:1039A000DFF8045B009015230022102001F0DDFBFE
:1039B000012000218DF807008DF806108DF8051004
:1039C0000DF1070001218DF80410009001234FF440
:1039D000806200F0ADF80DF106000090012340F286
:1039E000024200F0A5F80DF105000090012340F21D
:1039F000034200F09DF801A80090012340F2064226
:103A000000F096F8DFF8A41A102001F0AEFB00F0E9
:103A100031F80246DFF8981A00F030F84FF0FF3224
:103A2000DFF8901A00F02AF84FF0FF32DFF8881A1A
:103A300000F024F804F15C0001F076FD04F160026E
:103A4000DFF8781A00F01AF800F014F80246DFF8F0
:103A5000701A00F013F800F00DF80246DFF8641A4F
:103A600000F00CF8206A0FF690230022002101F0EC
:103A70004AFD37BD2178502001F05DBB102001F0D8
:103A800074BB00007FB5FFF747FFDFF83C5ADFF853
:103A90000C6A22E0B06A01F064FC040004D000F07B
:103AA00078F8204601F0ABF9B06AFFF70FFF002865
:103AB000F0D039E0002070833083F08201207071F3
:103AC000B08B011FADF80C105020317801F033FBA2
:103AD000009003ABB28A00F02BF8706ADFF8EC2993
:103AE0004FF0FF330021FFF7E9FE00280090F4D0EB
:103AF0000021029102AA01A90DF1060001F0FCF8D3
:103B000078B9BDF80600102802BF9DF8041030787F
:103B1000814204BF029800F00FF8029808B101F04A
:103B2000D6F800984100BFD40098C107D5D5C1E7A9
:103B30002946102001F019BB80B50178912909D0E0
:103B4000B02904D0D02923D1BDE802409AE0BDE8D5
:103B5000024031E341780E2902D0102912D001BD74
:103B6000818841F20542914212D180680FF60443E8
:103B700090F90310DFF82409006A4942009100F02F
:103B80006BFB01BDBDE804400021082001F0AEBE82
:103B900001BD70B582B0DFF8041904462288086AB6
:103BA000012A08D0022A0ED0042A10D0082A26D0D2
:103BB000102A4CD073BD6068FFF7BEFF6068BDE897
:103BC000764001F084B8A178BDE87C4028E16468C3
:103BD00062884FF6FF70824253D0012300F0DBFA77
:103BE00000284ED02188606801F07DFB6288DFF8F4
:103BF000E01802B0BDE87040102001F0B6BA61686C
:103C0000A2780978130008BF0FF6783314D0012A80
:103C100007D111B90FF67C330EE000910FF6843313
:103C200010E0022A03D139BB0FF68C3304E0032ADB
:103C300022D121B90FF6903300F0E8F81CE0009192
:103C40000FF698330022022101F05DFC14E0626857
:103C50008D8A1178DFF87C6831B1009600220FF66A
:103C60009433042101F04FFC009600232A46DFF82C
:103C70006818102001F079FA6068BDE8764001F01C
:103C8000BEB873BD2DE9F041DFF8104882B005469B
:103C9000206AA9780FF678060FF6C0084FF0FF37B4
:103CA0004FF6FE7259B101293FD0052950D006299F
:103CB00078D0072900F09C800D2911D0A0E06889F8
:103CC000A083E81C01F05AFB0346206A0022012170
:103CD00001F019FC206A0FF62C0300F097F87EE043
:103CE0002969287B0844421E00E001449142E5D244
:103CF00011F8010B0028F9D00B78022B18BF032B09
:103D0000F3D1491C401EC0B201287BDD914279D21B
:103D10000B78F02B07BF4C78FF2C891C801EF2D14A
:103D20002979681DBDE8FC4133E30021E1700022E0
:103D300061780FF2E8730091022101F0E4FB6078F2
:103D400020B1206A0FF2E87300F032FAA77046E063
:103D50006978C9B9022020716889A0820120207287
:103D6000608B18B904F12C0001F0BBFA206A0FF245
:103D7000D07300F04BF8281D01F000FB00F016FA9C
:103D8000BDE8FC4108214BE000212171A282617154
:103D900000220FF2B873022101F0B5FB687800F041
:103DA00039F82BE000202071607160832072A282BC
:103DB00004206072A770A88800F052FA206A0FF2FF
:103DC000A87300F023F8A87900F024F801F09BFB19
:103DD00000F0D6F9206A0022062101F08DFB206A4E
:103DE000334602B0BDE8F0410022052101F08BBB53
:103DF000E9780FF2847300910022022101F083FB25
:103E0000BDE8F381012800D1491C6FE7002202219F
:103E100001F079BB00904346206A002203217047DD
:103E20005FF000002DE9F041DFF87046DFF8AC6686
:103E3000227994F809E0206A94F902C00B46E178EF
:103E40001D0786B0CDA74FF0FF385ED5002A0FF2D0
:103E500054752ED1002940F08D810CF10103A3701F
:103E600059B2627891420DDB84F802803B46FFF73D
:103E7000CDFF206A3B4600F09BF90FF294630022CD
:103E800005215FE1491C009100220FF2007302211D
:103E900001F039FB94F90210B01C00EBC10001F0F5
:103EA0006DFA00F083F9206A0FF2EC6300F07AF902
:103EB00027E0022A4ED1BEF1040F0CBF4FF0000ED6
:103EC0000EF1010E84F809E01022072101F014FB25
:103ED000617A206A042914D8DFE801F00306090C8E
:103EE0000F000FF2D0630AE00FF2DC6307E00FF27D
:103EF000EC6304E00FF2FC6301E00FF20C7300F0DE
:103F000051F92B46002206211CE1DB0622D5002AAE
:103F10003FD11CF1010F1ED100291BD10121E170FD
:103F20000021617002210FF2F06301F0ECFA206AC7
:103F30003B4600F03DF900F028F900F031F9206A25
:103F40003B460022062101F0DEFA00220121032077
:103F500001F081FB0EE1B01C00EBCC0501202071CB
:103F60002B46701C002110F83C20002001F03EFB85
:103F7000206A0FF2B463FFF749FF284601F0FEF90B
:103F800000F014F900F0FCF80020607084F8028062
:103F9000F0E0022AFCD1A68ABEF1040FF8D8DFE8CF
:103FA0000EF00348818DD500618B0029F0D0227A74
:103FB000002AEDD1E07928B30023012212213046F6
:103FC000FFF788FC002802901BD0608BADF804003E
:103FD0000121ADF806100299A07908700020ADF813
:103FE0000C0000F0D2F9009001ABA28ADFF8F014C7
:103FF000102001F0BAF8C0B298B1122101A8FFF761
:104000006DFCB7E0ADF8041000F0BFF9009001AB13
:10401000A28ADFF8D014102001F0A7F8C0B200285F
:1040200006D101202072E079401E8041C00FE0716E
:10403000A0E0304600F030F970BB0123324600F0BA
:10404000AAF80028F4D0304600F026F905004FF415
:104050007A7704D0686801F056F92F8017E0E0897C
:104060004FF6FF71884216D1242000F0C7FE0028C9
:10407000206110D0002101910022009200230FF254
:10408000E13101F009F9E68104F10C05A781394617
:10409000686801F028F96DE0304600F0E1F80FF2B1
:1040A00094534DE04FF41670009000234FF4487283
:1040B0004FF4C871304601F0B9FA5BE00F2000F010
:1040C0009DFE05003AD02B460022DFF81C1400F0BC
:1040D00064F828680FF26C5300900022206A0721D0
:1040E00001F011FAA8880FF2705300900022206AA4
:1040F000082101F008FAB5F807000FF27453029096
:104100000022687A01900921A8790090206A01F0C4
:10411000FAF9A87A0FF2785304900022E87A039013
:104120000A21287B0290687B0190A87B0090206A7E
:1041300001F0E9F9284600F062FE1BE00FF26C5333
:1041400000220421206A01F0DEF913E0032020712F
:10415000304601F03BFA206A0FF29453FFF756FE07
:10416000206A3B4600F024F800F00FF800F018F841
:104170000020607206B0BDE8F08100000000000081
:10418000206A0022042101F0B7B9206A3B460022D0
:10419000042101F0B8B9DFF85413102000F0E5BF96
:1041A000206A3B460022052101F0ADB90346206A92
:1041B0000022032101F0A7B970B5B84D0446287953
:1041C000022882B041D166782179286A162E03D15F
:1041D00000910FF22C5330E00B2908D001290CD1AB
:1041E000217A0A2916D1217B0FF2285317E0E168C2
:1041F0000FF230530A78009207E0132911D1A97900
:104200000FF2405300914A1CAA7100F025F80020DB
:1042100028721AE0122913D1217B0FF21853009152
:10422000F3E77E2903D1217A0FF2285304E07F2996
:1042300006D121890FF22C53009100F00DF804E013
:10424000687910B1204600F030F8217904F10800B7
:10425000BDE87C40FFF742BB0022042101F053B9C6
:1042600038B5044600F018F8A0B140688B4D01F055
:104270004AF8E889A0420BD1286930B1FBF77AFFF0
:10428000286900F0BCFD002028614FF6FF70E8812E
:10429000002032BD122032BD8049CA89824202D13B
:1042A00001F10C0070470020704710B57B4C61791C
:1042B000012988B01BD10079032864D10FF2445141
:1042C0000FF2A0430988ADF80810172000900022D3
:1042D000206A042101F017F90221617100F055F8FC
:1042E00001900220A28A8249009002AB2CE00229B0
:1042F00031D1017907292BD1018951B1C1680A78DF
:104300004B7802EB0322E2828A78C97802EB012221
:10431000228340781A2836D1E08AA0B30321617144
:10432000ADF804000221208B8DF80810ADF80600CE
:10433000FF21F1208DF80A108DF8090000F025F812
:10434000A28A6C49009001AB102000F00EFF1AE029
:10435000012918D1E0E7032915D10279092A10D1E2
:10436000018971B1C0680FF2A0430178407801EB78
:10437000002161830022206A022101F0C4F800209C
:1043800020720020607108B010BD5020217800F02C
:10439000D2BE2DE9F047414D6C78A146B9F1080F26
:1043A000824688461DDA00264C4F00E0761CF0B2AB
:1043B000A0420AD2B81CF6B200EBC6010622504653
:1043C00001F034FB0028F1D10BE0B81C0622514665
:1043D00000EBC900FCF768F8781C641C00F8398011
:1043E0006C70BDE8F08780B502460021012000F026
:1043F0003FF8401E8041C00F02BD38B50C4615463F
:10440000012000F0FBFC30B1214605700246BDE8FA
:10441000384008202CE031BD10B51C46012000F0CA
:10442000EDFC30B104700246BDE8104000211020C0
:104430001EE010BD1948406A0121FFF743BA000091
:1044400001460022022013E053696D706C65204321
:10445000656E7472616C00000000000000000000D6
:104460000E4901EBC00101F10C0200215FF00400D4
:1044700070B504460D461646082000F0BFFC50B14A
:104480000480857046600246BDE87040034B596A5F
:10449000986A00F04CBF70BDB81000201C030020CB
:1044A000BD840110C17F000059C800003D05010016
:1044B000FD220100911E010051200100D5200100C4
:1044C000518801103181011025180100010000C040
:1044D00025AB001040E20100C9190100681400205A
:1044E000A5230100A123010081090100B17F011072
:1044F000190B010019E70000424C452043656E741A
:1045000072616C00496E697469616C697A656400F6
:10451000446973636F766572202D3E004465766949
:1045200063657320466F756E64202564000000008B
:104530003C2D20546F2053656C65637400000000AF
:10454000436F6E6E6563746564000000436F6E6E4A
:10455000656374204661696C65640000526561732F
:104560006F6E3A2025640000446973636F6E6E6558
:104570006374656400000000506172616D205570C5
:10458000646174653A202564000000004465766922
:104590006365202564000000436F6E6E65637420C0
:1045A0002D3E00003C2D204E657874204F707469BC
:1045B0006F6E00004741545420526561642F57725A
:1045C000697465202D3E0000546F67676C6520524A
:1045D0006561642052535349202D3E00436F6E6E37
:1045E000656374696F6E20557064617465202D3E3B
:1045F00000000000436F6E6E656374696F6E204942
:104600006E666F202D3E0000446973636F6E6E65A9
:104610006374202D3E000000446973636F766572F9
:10462000696E672E2E2E0000436F6E6E656374698F
:104630006E670000525353492043616E63656C6C92
:1046400065640000416363657373416464726573FC
:10465000733A203078257800436F6E6E6563746915
:104660006F6E20496E74657276616C3A2025640025
:10467000486F7056616C3A25642C206E78744368DC
:104680003A25642C206D5343413A25640000000014
:104690004368616E4D61703A202225783A25783A58
:1046A00025783A25783A2578220000004552524F65
:1046B000523A204661696C656420746F20616C6CAD
:1046C0006F63617465206D656D6F727920666F72BE
:1046D0002072657475726E20636F6E6E65637469A7
:1046E0006F6E20696E666F726D6174696F6E000027
:1046F000446973636F6E6E656374696E6700000072
:10470000415454205273702064726F70706564203D
:104710002564000052656164204572726F72202525
:104720006400000052656164207273703A20256451
:10473000000000005772697465204572726F722024
:104740002564000057726974652073656E743A20A1
:104750002564000046432056696F6C617465643AB5
:10476000202564004D54552053697A653A2025640C
:104770000000000052535349202D64423A20256422
:104780000000000050616972696E67207374617285
:104790007465640050616972696E67207375636344
:1047A0006573730050616972696E67206661696C38
:1047B0003A20256400000000426F6E64696E672035
:1047C0007375636365737300426F6E642073617603
:1047D000652073756363657373000000426F6E64D8
:1047E0002073617665206661696C65643A20256492
:1047F0000000000050617373636F64653A202564A4
:1048000000000000F0FF000053696D706C652053DC
:10481000766320466F756E6400000000DFF800F0DC
:104820002DB40110DFF800F0CDAC0110DFF800F07E
:104830002DC00110DFF800F0FDB1011020B10823F8
:104840003C220021FFF732B8704780B5FBF708FF24
:10485000ADF80000FBF7F2FBADF80200009802BDD6
:1048600001B5BDF80200FBF7EDFBBDF80000BDE8A7
:104870000240FBF7F9BE38B5DFF8C84920780128B7
:104880002DD0DFF8C429DFF8C40992089200801AFD
:10489000A061012121706261104602E0002340F80E
:1048A000043BA3699D18A842F8D39B0802EB83013F
:1048B000002041F8040CE8201060A0698008800006
:1048C000EC38C2F8E80002F1E800A060002000F037
:1048D00007F8E0606069A060A069001F206131BD39
:1048E000F8B500250026071D17F003001CBF391D71
:1048F0000F1AFFF7AAFFDFF84C2901465160112F6C
:1049000034BF9468D4682068002803D580F0004044
:1049100000261AE0330014D02B68D4F800C063449A
:10492000BB422B6011D32C461846ECB1C01B0428A7
:1049300011D3E05147F0004020601069C71B176198
:1049400011E0B842F1D2012625460444206800282F
:10495000DAD1002408E0136920681B1A136120686B
:1049600040F000402060241D00F0E1BB10B504467B
:10497000FFF76BFFDFF8CC18486054F8042C22F0E6
:10498000004244F8042C0B69D2180A61221F8B687C
:104990009A4238BF8A60BDE8104061E72DE9F041D6
:1049A00082B0FFF752FFDFF89C18CA684860002603
:1049B0000027002400250AE00C460127164605E0E2
:1049C0003B00F9D03368CB1833600C190A441168E6
:1049D000A846A54238BFA046002905D0F0D581F0F1
:1049E000004100274546F1E7FFF73AFF4046BDE8A2
:1049F000F68110B50446DFF84C0881692160006932
:104A00006060FFF7CBFF09282CBF08380020A060AA
:104A100010BD80B5FFF72FFF4BF6BE2002BD084644
:104A20005EE70846A2E702B56846FFF7E2FF01BD70
:104A30000120704738B50446FFF707FF00220C231A
:104A4000DFF80C185343CD18A96C21B18C4206D065
:104A5000521C032AF3D3FFF703FF002032BDFFF7F8
:104A6000FFFE05F1480032BD70B582B00546FFF784
:104A7000ECFE044600210C22DFF8D4074A438618D6
:104A8000B06C48B1854210D0491C0329F3D32046AD
:104A9000FFF7E6FE002076BD3065B5640021FFF724
:104AA000BDFEF06408B900F0F9FF2046FFF7D8FE1C
:104AB00006F1480076BD38B50446FFF7C6FE00256E
:104AC000DFF88C270C216943515A21B18C4206D062
:104AD0006D1C062DF6D3FFF7C3FEFF2032BD22E387
:104AE00010B504462088FFF7E6FFFF2802D14FF0FB
:104AF000FF3010BD0C21DFF858274843104481686F
:104B000011B96FF0010010BD2046BDE81040084704
:104B100002460FF26070104710B500200C21DFF83C
:104B20003027002401FB00F31344401C03289C643D
:104B30001C65F7D30020002301FB00F4401C135335
:104B40000628F9D3BDE8104095E62DE9F04790B06E
:104B500081468846FBF784FD05460027DFF8F466AA
:104B600047451FD26846FFF769FE09EB0710416809
:104B70000691816808916946026804920022C06823
:104B800005903046FFF74EFE040011D0FFF75DFEA2
:104B900082462046FFF768FF50B15046FFF760FE9F
:104BA0007F1CDDE72846FBF75FFD10B0BDE8F0870E
:104BB00000F074FF00BF00B585B068460521416074
:104BC0004FF47A718160DFF89026DFF8901600913B
:104BD000C2600121FFF7B9FF05B000BD38B504463A
:104BE0000D46FFF732FE002145F80C1C226812B971
:104BF000256006E00A4652F80C1C0029FAD142F85A
:104C00000C5CBDE832402BE680B5FFF70FFEFFF7E6
:104C100011FF10B96FF0040002BD816809B90220CC
:104C200002BD4068B0E0062881B00ADA0C22504389
:104C3000DFF81C26105A00281CBF4FF6F87290426D
:104C400002D14FF0FF3001E00880002001B0704732
:104C500030B5DFF80C562A680C464FF47A71A1FB88
:104C60000001002300F01EFF002399424FF0004294
:104C700001D8904202D36FF0020030BD20600020C6
:104C800030BD014688684968084770B505460E463C
:104C9000FFF7CCFDFFF7E8FE040009D0FFF7D5FDD4
:104CA0000146002200F0A3F820B1521C062AF9D3D5
:104CB00000F0F4FE4FF6F87018805C6000209860F9
:104CC0002A706068306000F00DFA002070BD0C386A
:104CD0004CE670B5044615461E460846FFF7EBFE47
:104CE000FF2802D14FF0FF3070BD014633462A46FF
:104CF0002046BDE8704084E070B582B00546164697
:104D000000F0A1F8040010D128886946C0B2FFF76E
:104D10008AFF28B13068FFF7DAFF6FF0050076BD33
:104D2000BDF800002880FFF76FFF204676BD38B53C
:104D30000546FFF77BFDFFF77DFE044600F02AFFE6
:104D4000002818BF012800D014B96FF0040032BD4C
:104D500065B900200090009B60684FF00042002180
:104D6000FEF7ACFD401E8041C00F32BD15F1010FB2
:104D700008BF4FF0FF30EDD069462846FFF768FFC7
:104D80000028E8D032BD80B54FF00041FEF79AFD13
:104D9000002002BD2DE9F84305460E461746984609
:104DA000FFF744FDFFF760FE04006FF002091CD01E
:104DB000FFF74BFD0146002200F019F840B1854293
:104DC00011D0521C062AF7D300F068FEBDE8F2832A
:104DD0001D805C609E603A706068C8F8000000F05A
:104DE00081F90020F2E700F07DF94846EEE70C2358
:104DF000DFF85C04534303441888704770E5B5E559
:104E0000F7E52DE9F8430E46062EBCBF0446062CF6
:104E1000154698466FF0020906DAFFF716FD00F016
:104E200009FA19B9FFF71CFD48460AE0FFF718FD1B
:104E300000F0F6F9786840684FF00041FEF742FD57
:104E40000020BDE8F2832DE9F04106460F4690466A
:104E5000FFF7ECFCFFF7EEFD050008BF6FF0040064
:104E60001BD0FFF7F2FCA968002441B10C46A4F165
:104E70000C010A68AA6000220A60FF228A72FFF70A
:104E8000EFFC0CB9022008E0A4F10C0001793170AC
:104E900040793870C8F800400020BDE8F08182B049
:104EA00001218DF800109DF800000028FBD100F0D2
:104EB000F5FD00BFFBF78ABB10B5DFF8A40302685D
:104EC0006FF00044A4FB020100234FF47A7200F05B
:104ED000E9FD002399424FF0004201D8904200D3EF
:104EE000204610BD70B582B00C4615461E46694678
:104EF000FFF7AEFE30B9009833462A46214600F04F
:104F000002F8002076BD2DE9F0431D4689B02C68DB
:104F100080460E4617462CBB0C20FFF7E1FC040030
:104F20006FF0030918D00823242200216846FBF7FC
:104F300011F90020ADF810000590069400236A4690
:104F40004146DFF82003FFF775FC206030B9FFF71A
:104F5000A6FF2046FFF70AFD484617E06660A760F7
:104F60002C600BE0DFF8006330688047054620685E
:104F7000FBF7F4F8A7602846716888472068414627
:104F8000FBF7F0F82068FBF7F1F8002009B0BDE866
:104F9000F08300281CBF0068FBF7E0B8704700B53D
:104FA00083B08DF80400684600F024FE9DF80500EB
:104FB0000EBD00B583B00190684600F051FE0EBDF5
:104FC00000B583B00190684600F054FE0EBD2DE997
:104FD000F04385B00446884616461F46FFF726FC78
:104FE000FFF728FD05460020029000F0D3FD0028C1
:104FF00018BF012800D015B96FF004006FE044B964
:1050000000200190FBF7E2FA8146019801248144D7
:1050100025E014F1010F08BF4FF0FF30F1D001A9D6
:105020002046FFF715FE0028ECD058E0039902A8AF
:10503000FFF7D4FD68684FF00051FEF743FC01997B
:10504000012411F1010F0AD0080008D0FBF7BEFAC5
:10505000B9EB00002ED0019981422BD30190019B26
:1050600068684FF000520021FEF728FC10B303AA35
:1050700069460DF10100FFF7E6FE0400DFD19DF85F
:1050800001000DF10201FFF7CEFD0028CED1039AF9
:105090009DF80010BDF80200C0470028C6D016B128
:1050A000BDF80200308017B19DF8000038700C98F0
:1050B00003990160FFF7A8FD029EFFF7C6FB0146BA
:1050C00056B1324600E0024652F80C0C0028FAD1E4
:1050D000A86842F80C0CAE6000F004F8204605B059
:1050E000BDE8F0830846FFF7BBBB38B5FFF79EFB72
:1050F000044600F04FFD002818BF012811D0FFF72B
:10510000A4FB0025524A0C236B43D15A39B1D11864
:105110004B681968A14206D06D1C062DF3D3FFF72A
:105120009FFBFF2032BDFFF79BFBE8B232BDFFF7CC
:10513000D9FF2046F2BD00B583B0ADF800008DF870
:105140000610002049490A68ADF8020068469047F9
:1051500010B99DF807000EBDFF200EBD1078422843
:1051600001D101207047002070470CB470B504468F
:105170000E4688B000F00EFD0CAD002814BF0128CB
:10518000FFF78DFE1420ADF810000021FF200291E2
:105190008DF8120006960595FFF7A7FF05AB0322D1
:1051A0002146FFF796FD002001A901900091002300
:1051B00000222F4941F28830FFF709FF012805D06E
:1051C00020B9019820B1FFF782FD01E0FFF767FEEB
:1051D0000598006808B070BC5DF80CFB2DE9F84339
:1051E0000E46062EBCBF0446062C154698466FF0A8
:1051F000020906DAFFF729FB00F01CF819B9FFF7DE
:105200002FFB48460AE0FFF72BFB00F009F878680F
:1052100040684FF00051FEF755FB0020BDE8F283D7
:10522000A8F108004146047046708570786808301F
:10523000FFF7D4BC0C21064A01FB06F7D7197968A1
:105240007047000094100020E4190020FF3F002068
:1052500028100020114B00000C030020391A010017
:1052600070230100834C0000E4020020EC020020C7
:105270005D510000E14A00004B4800006148000019
:10528000DFF800F0A1B60110DFF800F035BD011025
:10529000DFF800F019BD01102DE9F04389B0804618
:1052A000894617461D46109C119E08232422002182
:1052B0006846FAF74FFF434906964FF47A700A683A
:1052C000B0FBF2F0454305954743ADF810406B46FF
:1052D0003A4649464046FAF751FF404609B0BDE814
:1052E000F083FAF743BF38B504460D46FBF789F95A
:1052F00010B12046FAF732FF00F007F82046BDE86B
:105300003240FAF733BFFAF729BF2E4A10684FF43C
:105310007A71B1FBF0F0454329462046FAF722BFE7
:1053200010B504460021FFF7ABFF204610BD70B555
:1053300005460C4616460C20FFF760FD01000BD019
:105340008E602846FFF7A0FF24B14FF08041204631
:10535000FEF7B8FA012070BD3046FFF750FD00207F
:1053600070BD10B50446FFF793FFA04204D08468D7
:10537000FFF745FD204610BD002010BD70B586B07A
:10538000044668460FF244011422FBF79DF80E48CC
:1053900030250570831C78254570A21D062112F862
:1053A000015D2D09491E1DF8056003F8016B167893
:1053B00006F00F061DF8065003F8015BEFD106B0AA
:1053C00070BD000070230100A8140020303132337A
:1053D00034353637383941424344454600000000F1
:1053E00030B50446294D83B005F1300105F13C008C
:1053F00000F0B9FDA8600FF2510100F065FEA86849
:10540000234A4FF4E02100F063FEA868214A4FF4DC
:10541000E02100F05DFEA8681F4A4FF0C05100F087
:1054200057FEA8681D4A4FF0C05100F051FE002001
:10543000019000900023C8220FF2410105F10C00F9
:10544000FFF72AFF6C6037BD10B5104C00202070AC
:105450000D2000F0FEFD18B9217841F008012170FF
:105460000E2000F0F6FD18B9207840F010002070F2
:1054700004F10C00BDE81040FFF733BF034841685A
:1054800000291CBF00780847704700006402002014
:105490000D0005800E0005800D0000100E000010AC
:1054A0002DE9F04306461D4807785FEA010908BF69
:1054B0000FF2700981B000259FB1DFF86480444687
:1054C000AE4204D02068C1698847304205D02268C6
:1054D000536849462046984738B96D1C0C34BD4284
:1054E000EED3002001B0BDE8F08305EB450008EBEA
:1054F000800001B0BDE8F08300B9704710B50368C3
:10550000DC68A04710BD00B9704730B581B004AC6D
:10551000009404682569A84701B030BD34FD00003F
:1055200028FD0000030000281FB5DFF8304300B15C
:10553000A060217800F077F804F12001029104F1D5
:105540000C0204F11001019103920246617800916E
:105550000823DFF80C1300F00CF979E070B50B4666
:1055600000244FF480661146801B82B01A46DFF893
:10557000EC5208D0401E0BD0401E10D0801E13D01D
:10558000401E18D01FE0102B13D105F1100003E0CE
:10559000102B0ED105F12000FAF786FF14E0042B42
:1055A00007D10868E8600FE0012B02D10878687025
:1055B0000AE0182408E039B1012B05D10878022847
:1055C00002DCA87000E00224204676BD10B5A34A94
:1055D0001178044682B000F026F813220092234688
:1055E0000246A04900F0C5F8C0B216BDFEB514468B
:1055F0009A4A0F46064611781D4600F014F88DF8B9
:1056000000008DF801608DF802708DF803400622CD
:10561000294601A8FAF748FF6A4693491020FFF788
:10562000A4FDC0B2FEBD5020FFF785BD10B584B00B
:10563000069CADF80000ADF80210ADF80420ADF8FE
:105640000630ADF808406A4688491020FFF78DFD06
:10565000C0B204B010BD70B51646804A0D4604466F
:10566000117882B0FFF7DFFF8DF800008DF8014060
:105670008DF802508DF803606A467D491020FFF7CF
:1056800074FDC0B276BD00B58FB008233C22002166
:105690006846FEF70BF9774800F1500107914FF487
:1056A000DC7203210892069100236A460FF2090179
:1056B000FEF700F90FB000BD70B5684D84B0291D2C
:1056C0002846FFF7E2FA05F11000009010236A4C1B
:1056D000022200F04DF805F1200000901023032273
:1056E00000F046F805F10C0000900423042200F0BD
:1056F0003FF8624E09E00178D02935D100F03CF83E
:10570000044631E00CB1FFF7E2FA68684FF0FF336E
:105710004FF000420021FEF7D1F80028F5D000201C
:10572000029002AA01A90DF10600FFF7E5FA002890
:10573000EBD1BDF806000124102802BF9DF804102B
:105740002878814210D1029801884FF6FF72914269
:10575000D1D14088410407D505F10C010091042303
:105760000422314600F005F802980028CDD0C9E7A0
:1057700021461020FFF7F9BC70B5044684B0A0782C
:10578000364D40B1052821D006282DD00C2831D027
:10579000112836D055E06078002852D105F110016B
:1057A00000911023354E02223146FFF7E2FF05F14A
:1057B00020010091102303223146FFF7DAFF062271
:1057C000E11C05F13000FAF76FFE3AE0607800283E
:1057D00037D108210191231D6089294900901020AB
:1057E000E278FFF7C2FC2CE0A28826491020FFF7E0
:1057F000BCFC26E0237BA28823491020FFF7B5FCE0
:105800001FE0A8782149012810D1A088ADF8000038
:10581000E288ADF8022001222089ADF804006089F9
:10582000ADF80600A089ADF8080004E048B9A088EA
:10583000ADF8000000228DF80A2010206A46FFF71C
:1058400094FCA86800281CBF0168002902D02046EB
:10585000884700E0012004B070BD0000AC020020C9
:1058600049120100E5140110F5F600007D15011044
:105870002D030100180E0020457E0000857E0000EB
:10588000F1F4000081DB0000F9DA000005160110D8
:10589000DFF800F0B1BE011010B50FF251003A4C24
:1058A00000F068FC394800F092FA012201212046FC
:1058B00000F072FC364A136820465C680121A0475C
:1058C000344C3548E26801681160FFF7F5FAE16889
:1058D0004860FFF721F9FFF76EF9FFF7D4FEFEF7F6
:1058E00001F8FFF7D5FF002010BD000070B52B4E6A
:1058F000326882B004460D462AB900214FF00040BC
:10590000FFF7CEFD3060002230680FF29C030021CB
:10591000FFF7F9FD30680FF2A003022C10D0042C21
:1059200002D0052C18D01DE000F03AF80FF29403D5
:10593000306802B0BDE8704000220221FFF7E3BDED
:10594000012D04D100F02CF80FF28C03F0E700F0E9
:1059500027F80FF29C03EBE700F022F830680FF213
:10596000A40304E000F01CF830680FF2A803002242
:105970000221FFF7C8FD01218DF800109DF80000FD
:105980000028FBD173BD000000400340781C0100DB
:10599000D80100100C030020702301003C030020FC
:1059A00000220021FFF7AFBD3E3E3E535441434B22
:1059B00020415353455254002A2A2A4552524F52ED
:1059C0002A2A2A003E3E204F5554204F46204D455E
:1059D0004D4F5259210000003E3E20494E54455241
:1059E0004E414C204657204552524F522100000054
:1059F0003E3E20494E5445524E414C204552524F56
:105A0000522100003E3E204943414C4C2041424F30
:105A1000525421003E3E2044454641554C542053AB
:105A200050494E4C4F434B21000000000300002022
:105A300013F0030F09D0521E22BF13F8010B11F807
:105A400001CBB0EB0C00F3D0704711F0030F14D171
:105A5000121F22BF53F8040B51F804CB6045F7D056
:105A6000121D0AD200BA9CFA8CFCB0EB0C0038BFB5
:105A70006FF0000088BF01207047521E22BF13F84C
:105A8000010B11F801CBB0EB0C00F6D0521C08BF93
:105A900010467047DFF800F01D9A01100120FFF753
:105AA000F9BF01281B4213D1094236D12AB18446DD
:105AB000B0FBF2F002FB10C2704700F079BBFCD3E0
:105AC0000022002370470B000200002100207047D5
:105AD000904271EB030CF6D370B5B1FA81F4B3FACE
:105AE00083F52C1BA340C4F1200532FA05F633439D
:105AF000A2405FF00046E64002E05B085FEA320247
:105B0000841A71EB030524BF204629467641F4D35D
:105B100002000B003000002170BD012ACFD970B502
:105B2000140C20D0B1FA81F4B2FA82F5C4F1200449
:105B30006419B4F12006D6D3B2405FF00044F440BB
:105B4000002502E052085FEA3303C61A71EB020E29
:105B500024BF3046714664416D41F3D302000B000F
:105B60002000290070BD0C46B1FBF2F102FB11458B
:105B70002D0445EA1045B5FBF2F402FB145580B242
:105B800040EA0545B5FBF2F002FB105240EA044042
:105B900070BD02280148007D704700BFA4010020AD
:105BA00010B5044601E0FCF7ADFEB4FA84F02028FD
:105BB00006D000F017F8F6DB401FFCF7B8FEF4E75C
:105BC00010BD10B5044601E0FCF737FEB4FA84F0CE
:105BD000202806D000F006F8F6DB401FFCF743FE55
:105BE000F4E710BDC0F11F00C0B2012181404C405C
:105BF0000528704738B5044601206071244D20798E
:105C0000A8B1FEF722FE04462878FF2805D12046D9
:105C1000FEF726FE6FF0060032BD401C2870C0B2B1
:105C2000012804BF6868FFF7BBFF204614E0FEF7B9
:105C30000CFE297821B9FEF713FE6FF0070032BD84
:105C4000491E2970C9B239B9FEF70AFE6868FFF724
:105C5000B8FF0020607101E0FEF702FE002032BDB7
:105C600080B5406810F07F4F00D00DE0FFF798FF3F
:105C7000002002BD80B5406810F07F4F00D003E0E7
:105C8000FFF79FFF002002BD6FF0020002BD000081
:105C9000F402002090FAA0F0B0FA80F0704770B5DE
:105CA000FAF780FB05460026DFF87C440DE025FA74
:105CB00006F0C00708D504EB8600406820B10268F2
:105CC00011001CBF31469047761C2068F6B2B042E6
:105CD000EDD270BDDFF85404DFF854240168DFF81A
:105CE00054041160FAF760BB2DE9F0475FEA010840
:105CF000DFF8441406465FFA88F401EB840144BFE0
:105D000088F0204080F4C0480A68DFF8300406EAD2
:105D1000080788EA0203B243074033403A4306F4D7
:105D2000E0201B0EB0F5E02F03F0010302D1D301F8
:105D300005D411E016F4E02F08BF002B0CD002F4BC
:105D4000E020B0F5A02F04D0B0F5C02F04D105207D
:105D500000E0062060F31242DFF8E4730A6004F109
:105D600080403D68E54000F5083915F001054FEA2F
:105D7000985000F0010A03D1700248BF89F800A0D2
:105D800030020ED5FAF797F90122A24039685FEA8E
:105D900008234CBF13460023914319433960FAF797
:105DA0009AF91DB1700248BF89F800A0BDE8F087DC
:105DB000DFF8842302EB80020029106848BF00212D
:105DC000800901F03F0141EA8011116070472DE91F
:105DD000F04788B08146FCF795FCDFF86C03DFF8EC
:105DE0006C63017800F002FA0024002818BF012833
:105DF0004FF0000A08D00A2812D00C2804D00D2831
:105E00000AD00E280CD00EE000F0D4F902280AD1F6
:105E100001203062012406E003203062072402E002
:105E2000052030621F24DFF82803C2680121C2F375
:105E30008152012A04D10068000E01FA00F00443E7
:105E4000DFF80023DFF8E0721368326A03F07F03A3
:105E50009B185B1E3B600020FF253554401C83428D
:105E6000FBD2002559F8250000F0FF0CBCF1FE0F15
:105E700039D000F0FF0EBEF1FF0F0ED0634528BFF2
:105E800094453ED324FA00FE5FEACE7E39D401FA6F
:105E900000F006F80C5040EA0A0A6D1CE2E72AFA04
:105EA00005F0C00759BF05F0FF0141F4C041705D26
:105EB00059F820104046FFF717FF4FF0FF31E8B2C6
:105EC000FFF776FF391D002041F825006D1C38686A
:105ED000A84218D324FA05F0C007E0D53A1D0421E2
:105EE00042F82510F2E70920FCF721FDC7F8809061
:105EF000012107F1B800FAF780FA0025DFF8548293
:105F0000E5E702202CE06846FAF7DDF8DFF84842C2
:105F1000DFF84822207801906B46102106F124001A
:105F2000FAF7A7F803A8FAF712FA606805900021BB
:105F3000069103AADFF8281207F18400FAF70FFA96
:105F4000DFF82002DFF82022016821F47C5141F4BF
:105F5000005101600120DFF8141208601060002079
:105F600008B0BDE8F0872DE9F042DFF8BC510746E4
:105F70000C4605F1B8094FF0FF314846FAF76AFAC6
:105F800000214CBB002038607860B86000214CB321
:105F90001AE0FF2806D02A68824222D32A1D52F82E
:105FA0002000F0B9491C17E02A1D012342F8207097
:105FB00083407A681A437A60384654F82120DFF823
:105FC000941100F085F8314614F82100FE2809D01C
:105FD0004E1CFF28E8D1F6E714F82100FE28D8D19E
:105FE000D0E700274846FAF73EFA3846BDE8F08287
:105FF00010B50C46F0B1416821FA04F2D20719D568
:106000000122A24091434160002047490A1D42F805
:1060100024004E48025D4F48FF2A0EBF44F0204145
:10602000D1F8801051F82210FFF75EFE4FF0FF31DB
:10603000204671E0022010BD10B5044605E0FFF7D0
:1060400029FEC1B22046FFF7D3FF60680028F6D1D1
:1060500010BD014646482FE038B50C46324915467A
:106060000A68A24204D301EB84014A68824201D04B
:10607000022032BDFAF71FF831490A680123A34014
:106080009A4305FA04F414430C6049E010B5264B1A
:106090001C688C4204D303EB81035C68844201D00A
:1060A000022010BD01F18041100001F5083118BF38
:1060B00001200870002010BD0068C84000F00100F9
:1060C000704701600020704700B1FAE70220704776
:1060D00038B5154C25680B46114601F0FF02954274
:1060E00004D304EB82025468844201D0022032BD02
:1060F0001846FFF7F9FD002032BD0B4610B51146DA
