:020000040000FA
:10000000004400208D18010001C9011001C9011030
:1000100001C9011001C9011001C9011001C9011074
:1000200001C9011001C9011001C9011001C9011064
:1000300001C9011001C901103FC90110DFF800F02A
:1000400085BF0110DFF800F061C00110DFF800F09B
:1000500079BF0110DFF800F0A9C00110DFF800F04F
:1000600089AF011020B1082330220021FFF7EEBF35
:100070007047F0B51C008DB005460E46174603D1FB
:10008000002300F055FA0CE06846FFF7EBFF20680C
:1000900005906B46606808903A4600F004F800F05E
:1000A00047FA0DB0F0BD207AADF818003146284669
:1000B0007047FFF7CFBFFFF7C1BFFFF7CFBF00F01B
:1000C00057BA00F05FBA002101604FF0FF31416084
:1000D000012101727047FFF7B5BFF0B40246106806
:1000E00095681318506803EB5004C00721D54D44A0
:1000F0001FE0F0BC02F10C00704713F8017B05F81B
:10010000017B491EF9D1A0B1B60813F8011B06F016
:100110000306032E08BF13F8016B01EB06214942C9
:10012000801C294405D011F8016B05F8016B401EB5
:10013000F9D1A342DDD013F8016B16F0030104BF1F
:1001400013F8011BC91C30090F28DAD113F8010B71
:100150000F30D6E7DFF800F0C1BF0110DFF800F084
:10016000B9BA0110DFF800F0E5C00110DFF800F0C7
:100170001FBE0110DFF800F069B20110DFF800F0D7
:10018000DDC00110DFF800F091BE011020B108239E
:1001900024220021FFF7DEBF7047F0B51C0089B0B4
:1001A00005460E46174603D10023FFF7E3FF0AE09A
:1001B0006846FFF7EBFFA06806906B463A4631466B
:1001C0002846FFF7D7FF0E480E4A016811602846FF
:1001D00009B0F0BDFFF7D2BFFFF7D4BF00F0DAB926
:1001E00080B500F0EEF900B10120C0B202BD0021DF
:1001F00081607047FFF7B6BFFFF7B8BFFFF7AEBF2C
:10020000D41901003C1D00203A4908686AE03A4AC6
:1002100011680029FCD10023D3611060D069002847
:10022000FCD0D161506870473448016821F0020168
:1002300041F40071016003213148816041F23001D5
:1002400041610121C160502141610121C1604FF430
:10025000CA6141610121C16001607047294802689B
:100260000A6082684A60C2688A60406B20F0784009
:1002700040F08050C860704701461022224800F0CC
:10028000F3B87047FEB50188B1F5C15F18D1426976
:100290001E4F0092002382690192C06902901C489F
:1002A0000268C2F303625DF8230098B1002550F89C
:1002B0002560BE4206D06D1CEDB2042DF7DD09E0CD
:1002C0000120FEBD042D05DC26F4702444EA02441E
:1002D00040F825405B1C032BE5DB0020FEBD0D49EB
:1002E0000A681040C2430A600A680242FAD17047A5
:1002F00000000000101004400010044000000460E2
:10030000004104404C130050180000210200F84442
:100310005413005008100440DFF800F011BF011022
:10032000DFF800F011B00110DFF800F015C0011087
:10033000DFF800F015C10110DFF800F005B301107F
:1003400020B1082328220021FFF7EEBF70470021CB
:1003500001604160C1604FF0FF318160704770B54E
:1003600014008AB005460E4603D1002203F090F82F
:100370000CE06846FFF7E4FF206804906A46606876
:100380000590314600F004F803F082F80AB070BD21
:10039000E0680790A068069028467047FFF7C8BF3E
:1003A000FFF7BABF03F080B803F084B8FFF7B8BF17
:1003B000FFF7C2BFDFF800F009C00110DFF800F05E
:1003C000059B0110DFF800F0E1A30110DFF800F059
:1003D0005DB40110DFF800F00DC1011020B1082359
:1003E00024220021FFF7E6BF704730B589B00446EC
:1003F0000D4600F00BF801218DF818106A462946C9
:100400002046FFF7E3FF204609B030BD6846E5E728
:10041000FFF7E0BF80B5FFF7D1FF10B96FF0010023
:1004200002BD002002BDFFF7CDBF024681B01078AB
:10043000022903D1517800EB012013E0032906D1F2
:100440005178927800EB012000EB02400AE0042989
:1004500008D15178937800EB0120D17800EB03406C
:1004600000EB016001B0704762B38B0708D0521EE9
:1004700011F8013B00F8013B00F024808B07F6D116
:10048000830740F0208000BF103A07D330B4B1E8B2
:100490003810103AA0E83810F9D230BC530724BF06
:1004A000B1E80810A0E8081044BF51F8043B40F838
:1004B000043BD20724BF31F8022B20F8022B44BFA3
:1004C0000B7803707047121F17D35B0009D151F8E6
:1004D000043B20F8023B1B0C121F20F8023BF6D213
:1004E0000BE051F8043B00F8013B1B0A20F8023BEB
:1004F0001B0C121F00F8013BF3D238BF121D521E15
:1005000024BF11F8013B00F8013BF8D87047017097
:100510000A0A42700A0C090E8270C170001D7047F1
:10052000002202F0DBBF0A05DFF800F0BDAA0110CF
:10053000F8B504460B480C4F0668F8690D4650F8AC
:100540002500B04209D1094800902046FFF7ECFF92
:10055000F86950F82500B04201D10020F2BD2046D4
:10056000F2BD00BF18120000440100206407002003
:10057000102803D302491038C1F8000F704700BF9C
:1005800000E000E08160426070470000DFF800F0AA
:100590009DB2011070B5044602F0D0FF0646A08A55
:1005A0000025012808D1FFF7F1FF0546E068451B4B
:1005B000A068A84238BF0025304602F0C0FF284698
:1005C00070BD808A7047006808B90120704700201C
:1005D0007047006870470068704738B504460D469C
:1005E000FFF769FD00212960616869606168002981
:1005F00014BF0D6025606560FFE7BDE83240FFF77E
:100600006ABD0A684B68002A0CBF436053604A68A1
:1006100009680AB901607047116070470000000066
:10062000DFF800F031BF0110DFF800F0F5B701107E
:1006300030BF7047FCE738B502F046FC00F096F991
:1006400002F043F8054605F00C000C2853D068076B
:1006500029D402F0ABFF04460121012002F039F851
:100660003349096801FB04F290421CD2F020B0FB30
:10067000F1F03049241A887C18B1C868A04238BF0C
:1006800004462D4D214605F10C00FFF76BFD05F1E9
:100690000C00FFF76BFD012002F09DF905F10C0045
:1006A000FFF75CFD29E0280725D4244C2448216A63
:1006B0008A6890470428F8D0EA06224900D420B975
:1006C000086840F00100086003E00A685208520020
:1006D0000A601D481D4D016841F0030101602020A2
:1006E00022689169884728682068816B88470121C2
:1006F0002960286801E0FFF79DFFBDE8314002F066
:10070000E7BB10B5124CFFF78BFF20601148006863
:1007100008B18047606010BD10B50F480C4C0168EF
:1007200009B1606888472068BDE81040FFF77CBFCA
:10073000D41901000C01010048090020B801001083
:10074000004003408C210840242208402C2009400E
:100750001C1C0020B0190100B41901001628A8BF04
:10076000203870472DE9F84F80469748DFF85C92B3
:100770000168974E8A0705D50820B0719548C9F8D9
:100780000000C2E0944801680A6890478246934896
:1007900005682F1700247F1CA80208D4CAF13E0068
:1007A000C0100828C8BF08208742B8BF07468C4839
:1007B0000168C1F30460FFF7D1FF834689480168EF
:1007C000C1F30440FFF7CAFF5F44152F0146C8BFBD
:1007D000152704DC6FF009008742B8BF074607F011
:1007E0001F00814A40F4F8501080804A106810F0D1
:1007F000030F18BF0124400748BF44F0020496F9D4
:100800000700B8F1000F18BF44F00404AAEB000081
:10081000042802DCB27994425DD0AAF10F084FF0AF
:10082000000BB8F1000FDC4604F00400704B24D438
:1008300008EB08184FEA282CBCF1070F88BF4FF0CF
:10084000070CE646BEF1070F28BF4FF0060E1A1D33
:1008500052F82E2053F82EE0A2EB0E0E0EF0FF0BF6
:1008600010B1CEF307229344A20744BFCEF3074250
:100870009344E20748BF0BEB1E6B53F82C2002F0A9
:10088000FF0310B1C2F30720C318A00744BFC2F38F
:100890000740C318E007A8EB0C2048BF03EB126326
:1008A00000FB0BF0CF1B8030002F03EB1023D8BFD1
:1008B0000127342005F0FF0547437D43B5FBF3F0E6
:1008C0004FF6FF71884288BF08460AF3070AB080D6
:1008D00086F807A0B47147480168B08831600021EC
:1008E0001F2804D21F20B08004E04008491CB0F546
:1008F000007FFAD20F38000941EAC0013E480143A7
:10090000C9F800100020C9F80400BDE8F18F38B51F
:1009100005463A480468A4B23CB32F4801680A6807
:1009200090472B4991F90720904205DA6FF07F023A
:100930009042B8BF1046C871A542888834BF641B76
:100940000124844210D32B4A13680A689A1A921C15
:100950001F2A88BF1F22241A5208D4402418B4F535
:10096000803F28BF4FF6FF748C8031BD244800685B
:1009700000B9704730B523498A6802F04063B3F18B
:10098000406F1FD0104B1C68A5071BD44C68A507EF
:1009900018D41C680968C1F303511C31090114F013
:1009A000050F04D088420DD224F0050409E08142ED
:1009B00008D2100158BF44F00104500158BF44F060
:1009C00004041C6030BD00000000094030100940E4
:1009D000541D0020FDFDA400EC010010B43F0050A8
:1009E000B81200503C1100506E62084024220840AA
:1009F0009C1300500820094000E7A48034100940EF
:100A000028500940AC3F00502DE9F04F83B000F072
:100A1000E3F800245FEA000803D00DF00BFB4FF071
:100A2000FF385F48006828B1804703E05D490968E6
:100A300001B188475C4F5D4E3B6853F81C5F01AACB
:100A400069460DF10100A84759495A4D0A78002816
:100A50002ED10198A0F10C0999F806100329E5D0D0
:100A60009DF800000025114600E06D1C8D4206D265
:100A70003269525D8242F8D1EDB2FF2D04D138685F
:100A800050F8081F8847D5E799F804000DF0EAFBF5
:100A900099F80610012902D10199087003E0022992
:100AA00004BF01998870019928460BF07BFAC1E7D1
:100AB0002868E4B230F8140018B9641CE0B290421F
:100AC000F6D3E0B290428DF80020DFF8EC90DFF82A
:100AD000ECA023D2DAF8000080472968E4B231F8AC
:100AE00014B0002221F81420D9F800108847344AA5
:100AF0003470594652F82420204690478346FF2000
:100B00003070DAF800008047296831F814204BEA89
:100B1000020221F81420D9F80010884700F05CF890
:100B2000044644451ED004B9264C27480068DAF82C
:100B30000010A04238BF04468847396851F8202F7A
:100B40008046B0689047F2682049521CF260204607
:100B50003C6854F80CCF06F10803E047D9F80010C0
:100B6000404688471A491B4E086828B139683068E2
:100B700051F8242F904711E000240AE02868E4B2DD
:100B800030F8140020B13968306851F8242F9047AC
:100B9000641C9DF80010E0B28842EFD3BDE8F78FE7
:100BA000601D0020641D0020F01D0020E40B0020CB
:100BB0007B8E0000741D0020500400204C04002097
:100BC000201401008EC2F528701D002059BF0000BE
:100BD0005C1D0020681D00200648016841B10648E0
:100BE0004A680968824298BF10460029F8D17047C8
:100BF00000207047F41D00208EC2F5280000000080
:100C000000000000000000000000000000000000E4
:100C100000000000000000000000000000000000D4
:100C200000000000000000000000000000000000C4
:100C300000000000000000000000000000000000B4
:10100000B41200001810000015AB0110FDB3011060
:101010006DC00110FDAE011099B501100000000077
:10102000000000002D000000B01200003C10000085
:10103000B1C00110A9BF011067C0011069B801104B
:10104000000000000000000030000000B0120000AE
:1010500060100000BDC00110CDB30110D9BD01105A
:101060006DB301100000000000000000310000001E
:1010700000000000840700200400000000000000C1
:1010800000000000200000002412010030000000D9
:1010900028100000A4070020040000000000000049
:1010A000000000000C000000CC1701001800000038
:1010B0004C100000AC0700200400000000000000FD
:1010C0000000000024000000E417010018000000E8
:1010D00000000000EC0700200400000000000000F9
:1010E0000000000010000000C41201002C000000ED
:1010F00000100000080800200400000000000000AC
:101100000000000020000000C814010024000000BE
:10111000FFFFFFFF10080020040000000000000097
:101120000000000028000000EC1401002400000072
:10113000FFFFFFFF3808002004000000000000004F
:101140000000000014000000FC170100180000005F
:10115000FFFFFFFF40080020040000000000000027
:10116000000000005800000068100100340000007A
:10117000FFFFFFFF480800200400000000000000FF
:10118000000000001000000014180100180000000A
:10119000FFFFFFFF500800200400000000000000D7
:1011A000000000001C0000001015010024000000D9
:1011B000FFFFFFFF580800200400000000000000AF
:1011C0000000000038000000A81301002800000003
:1011D000FFFFFFFFC0080020040000000000000027
:1011E0000000000054000000F00D01003C00000071
:1011F00001000000D81901000100000000000E00ED
:1012000000000F0032000000010000008C070020E9
:10121000000200000000000001C9011000000000F1
:10122000000000000800000000002200B4070020B9
:101230000000000000000000080000001808002066
:101240000000000000000000080000000000000096
:10125000000000000000000000000000010000008D
:10126000600800200600000001000000C8080020FF
:10127000000000000000000000020000000000006C
:10128000290001002500300031002D00010001007F
:1012900004000000E0180100000000000000000051
:1012A000000001000000030013C4011035E4000039
:1012B000B8120000B812000000000000FC07002077
:1012C00095E3000020000000A4180100D0130100E5
:1012D00029C10110EB6E00000F7B0000A1C70110B7
:1012E000A3C70110000000007A8E00001C0C010052
:1012F000340C0100040C0100020009000100000090
:10130000010000007513010049130100D916010006
:10131000D5100100F31101004D0C0100350401004E
:10132000451801000DE300006DE4000071E40000C9
:1013300038B50546FEF7BFFE2C680CB12168296060
:10134000FEF7C9FE204632BDF8B506460F463468A2
:1013500000201546386034B9FEF7ADFE376095B110
:10136000012129700FE005B12870FEF7A4FE00E00E
:10137000246821680029FBD1BC4203D1FEF7ABFEF3
:101380000020F2BD2760FEF7A6FE0120F2BD70B579
:10139000002306462824DFF8740A5C43204400F149
:1013A0002404B4F90050B54204D10D0006D0E4780D
:1013B0000C4203D15B1C082BECD3002070BD10B590
:1013C0000446FEF717FF2046BDE81040FEF714BFA5
:1013D00038B504460D4600F0C7FFA04231BF241ABD
:1013E000641E241A641CA40805F57A70A04238BF54
:1013F000B4F1405F05D2641B012C98BF0124204644
:1014000032BD002032BD70B50446DFF8040A006A20
:101410000025D8B18268117B012501F00F01022956
:1014200013D1C068DFF8EC39C16893F83F60192028
:1014300000FB06119068FFF7CBFFDFF8DC19206096
:101440000A68B0FBF2F2226001E00020206028462A
:1014500070BD30B5039C049D01600474C56042609A
:10146000836030BDF0B583B00446FEF724FE054628
:101470008CB3DFF8A829607C13680121DF0701FA2B
:1014800000F60FD5DFF898295368113001FA00F003
:1014900023EA000050601068637C113301FA03F303
:1014A000984310600020DFF8947BA074002394F927
:1014B00011003A88814011433980002001900021B9
:1014C000009100222046FFF7C4FFF878411EF97012
:1014D000F0B200F0CDF82846BDE8FE40FEF7FBBDB7
:1014E000032805DA1421DFF82C29484310447047FB
:1014F000002070472DE9F04106464FF0FF300027ED
:1015000030600025DFF81049DFF80889E8B2FFF7FE
:10151000E7FF00281CBF817C002917D0017C012730
:10152000022919D0DFF8E8288068516B98F83F202D
:10153000C968192303FB0211FFF74AFF2168B0FBBA
:10154000F1F03168884288BF084630606D1C032D79
:10155000DCD33846BDE8F08100203060F9E738B5CB
:1015600004281BD1DFF8A84804F1E8052846FEF757
:1015700037FE98B12846FEF731FEDFF89C180A685E
:101580005043B0F5967F09D22846FEF737FE052076
:1015900001F0B8F90120A07700F0E5F8002032BD95
:1015A00038B50020FEF76DFEDFF864480FF2A54164
:1015B000002204F17C00FEF784FD00F038FB904728
:1015C0000246A06B904231BF121A521E121A521CD0
:1015D000E06B1218E07D120BE26300281CBFA17DB6
:1015E000012903D0206CC00290422BD20020A075AC
:1015F0000121E175DFF8A00B01680A0622D540F64B
:10160000090020800021607B616000F0D6FB6073E0
:10161000207B00F0F0002073FEF74DFDDFF87C1B0F
:101620004A6922F002024A616FF002020A610C600C
:101630000B699D07FCD50A614A6942F002024A61C2
:10164000FEF749FD0020A063FEF7EEFDDFF8481C21
:101650000020086031BD10B50446FEF72CFDDFF810
:10166000B0170A7D14430C75BDE81040FEF733BD7A
:1016700070B582B00646FEF71EFDDFF894570446AB
:10168000287D38B3297D21EA06062E75287D0107BD
:1016900020D4287D01061DD4287DD8B1DFF8741729
:1016A00091F83E00B0B96846FFF724FF00281CBF40
:1016B000009800280ED00026F0B2FFF711FF20B1ED
:1016C000817C022904BF01228274761C032EF3D38D
:1016D00000202875287D10B9082100F077F92046F0
:1016E000FEF7F9FC73BD30B583B0054601A8FFF7DE
:1016F0008AFE04466846FFF7FDFE3CB100280199CA
:1017000008D0009A914205D9114603E0002814BF81
:10171000009900212960204318BF01203EBD38B543
:10172000DFF8EC46617E19B11920FEF7C8FC31BD27
:10173000A17EB9B9FEF7BFFC05466846FFF7D3FFA7
:1017400070B1E07E10B10121217609E0009828B146
:10175000014604F1E800FFF732FE01E000F003F873
:1017600000F08CF831BD042104F14800FEF71CBEE6
:10177000F8B5DFF89C66DFF8240B746AFEF7AFFD5E
:101780000546DFF8D40B0268076802F020022A4001
:1017900018BF002C07F460270BD0B462D4E906010F
:1017A0001143C4E906014FF4005106F14800FEF769
:1017B000FBFD3D400ED0DFF85C0690F83E1041EA9C
:1017C000554580F83E5006F19800BDE8F4400021F0
:1017D000FEF7EABDF1BD2DE9F843FEF76CFCDFF83A
:1017E0003486054698F83E00002448B1002098F859
:1017F0003E1001228240114210D1401C0328F6D332
:1018000000F03CF898F83E0030B1BDE8F443002108
:10181000DFF89C0BFEF7C8BDBDE8F18398F83E10D9
:1018200010228240114218BF012498F83E10112264
:101830008240914388F83E10C0B2FFF751FE002865
:10184000DED00168477C466889460CB18E6905E0A8
:10185000017C022902D1C268D1040AD4FFF702FE3A
:101860003CB100224FF000736FF0FE014846B047D4
:10187000C6E700224FF000633946F7E72846FEF737
:101880002ABC2DE9F843DFF88855DFF810696C6A47
:10189000FEF7BAFC07466CB3D4E90401BA071AD5BF
:1018A00000226A6240F00203226A1F401743276247
:1018B000D4E906233A43C4E906237269824372617C
:1018C00005F12C00F2688A43F26021460022FFF7FE
:1018D0003BFD02210CE007400CD0AC62206A0743BC
:1018E0002762D4E906013843C4E906014FF4804178
:1018F00000F06CF84FF00008DFF818754FF00109A0
:101900005FFA88F0FFF7ECFD04002DD0A07C0128E1
:101910002AD1B168607C113009FA00F08143B160CE
:10192000F068617C113109FA01F10843F06094F923
:10193000110009FA00F0C0B2FFF78DFEE068002147
:1019400000F07EFC812802D10220A0740CE097F800
:101950003E00112162569140084387F83E00002165
:1019600005F19800FEF720FD08F10108B8F1020F1B
:10197000C6D92C6A686A30BB1CB36846FFF743FDC2
:1019800000281CBF0098002803D00820FFF770FE35
:1019900019E00820FFF75FFED4E9040172690243F1
:1019A00072610020F2680A43F260F061A068306062
:1019B000F0690028FCD005F12000FFF7B9FC68624F
:1019C00001E000F002F8BDE8F183022105F14800D2
:1019D000FEF7EABC08204BE62DE9F04207468946AF
:1019E0003E6E14461D4606B1B047D7E916010440C5
:1019F0000D400020854208BF844216D08021484611
:101A0000FFF7C5FCC7E91A4538B1D0E90623A24360
:101A1000AB43C0E90623396E41600020386607F108
:101A20003800BDE8F042FEF7FEBCBDE8F0820000E1
:101A3000704780B5FEF7B6FCDFF8D4230146506B43
:101A4000526CBDE8084010470421DFF8700BFEF728
:101A5000ABBC000080B5FEF7D7FBDFF8641B084283
:101A600004D0BDE804404FF00051EEE701BD70B571
:101A7000DFF89C53EC6A002C52D0A168202000298A
:101A80001CBFC2B2002A51D00A8840F603039A4212
:101A90001FBF40F604039A424968401EEFD140E060
:101AA00000224FF08043B4F92410E0686668B04724
:101AB000FEF701FB0646688E401CC0F30B006886EB
:101AC0000020E96A81F8270005F12C00FFF730FCBF
:101AD0003046FEF700FBB5F93200E26802F19401EE
:101AE000B1F9003098421BD1887808B9106828B93C
:101AF000002088700820BDE87040B9E5696B0B686C
:101B000013F1010F0CD0C44C2168BDE87040B0FB4C
:101B1000F1F1012998BF012102F17000FFF74FBCDC
:101B200070BDE06818222030FEF7AEFC226A00206B
:101B3000206260680028BBD094F82700002300F0E2
:101B40000700012842F0020207D00228A8D004288A
:101B500004BF00224FF08053A5E700224FF000534E
:101B6000A1E738B50D46A807A94C18D5FFF77FFFA8
:101B7000E06A25F0020510B145F0020109E06807AE
:101B800002D4206A002851D004F1E800FEF736FBA9
:101B9000042104F14800BDE83440FEF705BC6807A5
:101BA00044D50120E077042000F0ACFE00F03FF8BF
:101BB0009047A063206A08B1C0686063606B4168A9
:101BC000DFF8540A0A780260022000F09BFE112020
:101BD00000F0ADFE0120A076606B017C002919BFEA
:101BE000E07D00280E2000F0A2FE606BDFF8AC253F
:101BF00040688168002904BFC068002804D0002123
:101C0000D161DFF8180A106040F2FF70DFF8881623
:101C1000086000219161DFF8A80950610FF21900F6
:101C200060641920BDE83240FEF747BA31BDDFF8E5
:101C3000F80901680A6B70472DE9FF4104468800E6
:101C400040F18F80724D686B4068406800B18047FA
:101C5000686BDFF8486542689068002804BFD16867
:101C600000290DD000F0A3F8906800B18047686BA0
:101C70004068C06800B18047DFF8A409FEF7C7FAE2
:101C80000020F06140F60A08DFF898093060012072
:101C9000FEF7F7FA0FF28D106864002100206880CB
:101CA000A5F800806960287B00F0F0002873687B4D
:101CB00000F083F86873A26817467980E97D09B15E
:101CC000607CA0B1108840F60201884218BFB0F5D0
:101CD000C15F05D1398A4FF60F400140398204E0D7
:101CE000398B4FF60F4001403983002060746946FC
:101CF0001046FEF7B3FA6846FEF7BEFA786890B36E
:101D00000188414518BF0746F8D12CE0208C0028F7
:101D10003BD000216184616204F12C00427801789B
:101D200002F0F00201F0F00142F001020170427095
:101D300004F120006860687B00F0F000687324E024
:101D4000DFF8E8180A68136801209847012806D0D0
:101D5000787B00F032F878730FF269006864A0684D
:101D60003060BDE8FF817D6040F60301787B00F0C4
:101D7000F0007873286A8068008888421CBF40F6AB
:101D800004018842C2D10020A86300F010F84FF689
:101D9000FF30A1680A8A02400A82A87F0028CFD0BB
:101DA00000F04BFF0028FBD000F058FFD7E7F069A8
:101DB0000028FCD00021F161704700F0F00040F0F5
:101DC00001007047DFF86828114200D17047DFF842
:101DD0005C18012010B50A680D4C1368984701285B
:101DE00006D10FF241006064DFF8B003046010BD5B
:101DF00009490A683220B0FBF2F104F1E800BDE8BD
:101E00001040012998BF0121FFF7D9BA58100020CE
:101E1000A8190020C81A00203C1D002040210840BD
:101E2000081004402DE9F04105460C46600484B0DA
:101E3000DFF8006819D5FEF73EF9B56A85B12F6A5B
:101E4000B9070DD400212962FEF745F9686848B149
:101E5000B5F92410E8686D683A460023A84701E008
:101E6000FEF739F924F48044E0E0A00709D5FFF734
:101E7000FEFDF06A002824F0020401D044F00204C0
:101E8000D4E0A0007BD5F07F20B1042000F0D5FC89
:101E90000020F07740F60202A8680188914218BF3E
:101EA000B1F5C15F05D1028A2D2161F309120282C9
:101EB00004E0028B2D2161F309120283B06B30B371
:101EC000DFF86487D8F854100A6804209047F0B10E
:101ED000D8F80000B76B016B8847874231BFC71B3A
:101EE000401EC71B7F1C688AE96800EB17308842D8
:101EF000E86002D209184908E96040F2D171E86847
:101F0000A0F5FA70884224BF40F6C411E960707BE6
:101F100010F00F0F02BF688C40F60901884207D10C
:101F2000AF6900224FF000736FF480712846B84704
:101F30000022DFF8041706F17C00FEF7C2F8B07D3E
:101F400068B10221ADF800106846FEF760F9BDF8EF
:101F50000800DFF8E816400988870020B0750120E6
:101F6000707624F000540020B076FFF7D8FB2846A6
:101F70006D6900224FF080630021A84756E02007DA
:101F800043D5707F10B1002171773BE0706B7030EA
:101F9000FEF734F96846FFF7A6FB20B1009906F179
:101FA000E800FFF70CFA002070760120F076DFF8E9
:101FB00090067064FFF7F4FA707D20B9716B01F13F
:101FC0003800FEF730FA022000F037FC112000F054
:101FD0004AFC287C10B90E2000F045FCB07F012897
:101FE00004D10021B177052000F027FC0020F07615
:101FF0003077307E30B10021317606F1480004217F
:10200000FEF7D2F924F0080410E0A0040ED5756A9A
:10201000002D1CBF6868002806D0B5F92410E868B8
:102020006D6800222023A84724F4005424B12146DF
:1020300006F14800FEF7B8F9BDE8FF81041B002057
:1020400030B585B000F05EFBDFF8F805DFF8F84545
:102050000168DFF8E05541F0020101606846FEF7D3
:1020600076F9A078DFF8E41502906A4605F1480099
:10207000FEF775F96846FEF726F82178DFF8D025D7
:10208000019100208DF808006B46192105F17C00B4
:10209000FDF7EFFF6846FEF75AF9E078DFF8B41570
:1020A00002906A4605F19800FEF759F96846FEF776
:1020B0000AF801208DF808006B466078DFF8982553
:1020C00001901A2105F1CC00FDF7D3FF0023002277
:1020D000DFF8881505F1E800FEF75FF8DFF8600526
:1020E000DFF87C2568640023042105F5867000F084
:1020F00092FBDFF848154FF6FF7088870122002019
:10210000E8756883E861A863AA750520286405B0AE
:1021100030BDF8B5DFF81C65306A0C4600278442F4
:10212000154616D19CB194F8271041F0040184F8AB
:10213000271006F12000FFF7FBF80022214606F1E8
:102140002C00FFF701F97F1C346A2800EAD13846D9
:10215000F2BD316A31B1086820B10A68A24201D0EB
:102160000968F7E70C4600E02468002CEFD02068EF
:102170000028F9D0216891F8270040F0040081F888
:10218000270006F12C000A6822607F1C0022FFF75E
:10219000DBF82800EBD1DAE700000440001004402F
:1021A0002DE9F04781468A4602F0010403275608CC
:1021B000FDF781FF1AF1010F06F001068046DFF8F6
:1021C000745405D1686A00280CBF286A686A03E065
:1021D00000215046FFF7DBF868B390F827100A0695
:1021E00028D5696A884215D190F827100122A240AB
:1021F000114380F82710002C14BFDFF86804DFF8C3
:102200006804FEF704F89EB1296A32464846FFF793
:1022100080FF0DE0014632464846FFF77AFF48B19D
:1022200005F1E800FDF7EAFFA87E08B9FFF7CDFB4E
:10223000832700E0042700F02EF93846BDE8F08738
:1022400010B5DFF8F0230C46517E59B1FDF7DFFFE2
:1022500004B1206000F0FF00012801D1812010BDF1
:10226000022010BD012010BDF8B504460D461646EB
:10227000FDF721FF0746DFF8BC03416B8C4218BF16
:10228000032404D131462846FFF7DAFF04463846D6
:10229000FDF721FF2046F2BD0000046020000E0083
:1022A000F0B50746DFF8C4038BB00E001546006892
:1022B00018BF002D1C464CD03278D040C00748D5FE
:1022C00000212846FDF7DEFF7E60BD60FDF7F3FECE
:1022D00000F044F83BD1FFF7B3FE707D401C7075F1
:1022E000FFF7CCFA34B903A80FF2A4311C22FEF791
:1022F000CBF803AC2068DFF8781338600A466068D2
:10230000F860207C387401207874608A7882E068F4
:1023100000B10146B961A06800B102467A61782136
:1023200007F12000FEF7FCF8002107F13800FEF766
:102330005CF86846FDF75BFF02976B460022DFF80A
:10234000341307F17000FDF728FF384602E0FFF76D
:1023500095FA00200BB0F0BD0C100440DFF8D462F9
:102360000546707D00287047F8B5FDF7A4FEDFF83C
:10237000C442617E29B1DFF800231468FDF7ABFE8B
:1023800014E0FDF7A8FEFFF752FC904710F500326D
:10239000DFF8E80241F10003A0FB026700FB0377CE
:1023A00021690020341847EB01052C462046F2BD78
:1023B000401A00202DE9F04782B082460F46914630
:1023C0001C46FDF778FE804600202822DFF8B01278
:1023D00042438D1895F827100A0608D5401C082896
:1023E000F3D300F058F86FF00100BDE8F6870AF16A
:1023F0007000FDF703FFDFF83C62308E401CC0F335
:102400000B003086281D476005F1100787F81690ED
:102410000460318EB982C0F808A0DDE90A42DFF815
:102420006402202120401140C7E900016A460020D3
:10243000F875C7E90200294606F12000FEF784FF7F
:102440000028CED00AF19400B98A01808178012950
:1024500002D100228270B275F87D40F08000F875DC
:102460009DF8000001280AD1317F00291CBF707E31
:10247000002804D00121002071773077B07500F07A
:102480000AF89DF8000018B1716A09B9FFF747F919
:10249000B7F91400A9E74046FDF71DBE2DE9F0414C
:1024A0000C46002C054616461F4601D500201CE0B0
:1024B000FDF776FF804680212046FEF768FF040086
:1024C00003D094F82700010602D400F03DF80BE099
:1024D00094F8270010F0070F09D000F035F894F8B1
:1024E000270010F0070FFAD1022000212AE0D4E9DA
:1024F000060146F00206304039400022914208BFF2
:10250000904210D000F020F8D4E906013040394064
:10251000C5E91A01D4E9062322EA000023EA0101F1
:10252000C4E906010CE061685748814202D0616845
:1025300029666060C5E9166700F006F800F007F844
:10254000D5E91A01BDE8F0814046FDF731BF4FF0F3
:10255000FF3105F13800FDF75DBFDCB5DDE9066749
:102560000446CDE90067180008BF474B2046FFF737
:1025700021FF0146204602B0BDE8D04000224FF0C6
:10258000E0438BE70CE642F0020209E60FF200118D
:102590001C22FDF779BF00E000BF002264E680B591
:1025A0006A463A49FFF760FE812803D1009800028D
:1025B000001602BD6FF07F0002BD0000F019002080
:1025C0000200004070B50E461546FDF774FD8324E9
:1025D000184A1EB1022E0ED005D30FE0516A41B148
:1025E000526A918C03E0917D19B9144A918F298028
:1025F00005E0802403E0517E297000E00324FDF70C
:102600006AFD204670BD80B508468021FEF7BFFEFA
:1026100000B1806802BD0000D021084051000706CB
:102620000100070601010E048C010010E0010010FA
:1026300004000020A819002083180000C81A0020F8
:10264000631B00000020094024010100331A000030
:10265000551A0000D717000071170000491A000032
:102660005F1500000100020401000104D4210840AC
:10267000311A0000D51900000430044000093D0063
:1026800058100020F1EFFF9FD9190000010003044A
:10269000FFFFFFFFC4090000000000000000000071
:1026A00001003A01000000000000000070B5DFF8F2
:1026B0006447DFF864072568EE68002301223421AF
:1026C000B04700B10120C0B270BDDFF8500780688C
:1026D000704702460020022904D1012A06D140F2A7
:1026E000EE207047012A08BF4FF47A707047DFF878
:1026F0002C1791F8E60020B1D1F81001002818BF7E
:10270000004770472DE9FE43DFF8108708F1E10626
:10271000B07900287CD1DFF80817DFF808770A685D
:102720009209012002F00102B071F271F87CDFF829
:10273000F856DFF8F89670717868C8F810016846A6
:10274000FDF755FD002101918DF8001002916B46B7
:1027500000220FF2115108F10C00FDF71EFD6B462F
:1027600000220FF2F15108F13000FDF716FD6B4623
:1027700000220FF2255108F15400FDF70EFDB96853
:1027800001208847DFF8A80601786868C0F3815403
:10279000387D20B1032C02D10121317003E0032CDC
:1027A00018BF022C0DD1022000F0ACF8032CD9F890
:1027B00000100CBF4FF47A7042F21070B0FBF1F1D0
:1027C00018E0012C02D100F04EFA1BE0D4B902202F
:1027D00000F098F800F090FA9847012803D1002003
:1027E00000F041FA0EE0D9F800003221B1FBF0F11F
:1027F000B1FBF0F108F15400FDF7FCFC08F15400C6
:10280000FDF7FAFC286840075CBF002000F07AF86A
:102810000020BDE8FE8338B5002408B1150002D1C0
:102820006FF0020407E08160C26003610146DFF8D7
:10283000EC05FDF7D2FE204632BD10B50446FDF78B
:102840003AFCDFF8D8150A1992F8E9305B1E82F8D5
:10285000E930DBB233B98A68012303FA04F422EACF
:1028600004048C605FE0F8B50546FDF724FC0446DF
:10287000DFF8A815481990F8F020521E80F8F020D3
:10288000D2B27ABB0FF2F450DFF8A87500EB8502E4
:1028900010F825505688280615D539680A6A30463A
:1028A00090473A68916A3046884739680A6B3046E3
:1028B0009047DFF8841501200860DFF8801508686C
:1028C0008007FCD507E0680611D501EB86010020E2
:1028D000D1F80421904705F03F053F2D1CBF284645
:1028E000FFF7C1FF2046FDF7F6FB0020F2BD396877
:1028F0008A69304690473A68516B304688470228CB
:10290000F9D1E8E710B50446FDF7D5FBDFF80C1563
:102910008A680123A3401A438A60214491F8E92080
:10292000521C81F8E920FDF7D6FB002010BD2DE9EF
:10293000F0410746FDF7BFFB0546DFF8E064F019FC
:1029400090F8F0104A1C80F8F02049BB0FF22C5888
:1029500018F8270000F03F003F2818BFFFF7E7FFF7
:1029600008EB8700448818F82700DFF8C8740106D0
:102970000ED53968CA69204690473A68516A2046A0
:1029800088473968CA6A2046904700F01AF807E07D
:1029900040060BD506EB84010120D1F804219047B5
:1029A0002846FDF798FB0020BDE8F08139684A69A8
:1029B000204690473A68516B204688470128F9D154
:1029C000EEE7DFF8741401200860DFF8701408687F
:1029D0008007FCD570472DE9F84F0746DFF8400423
:1029E000DFF860540168002600244A06A0460DD591
:1029F000287B58B9DFF85004DFF8501402680A4009
:102A000042F081720260202000F07DF9012F18BF92
:102A10006FF0010957D12868012852D1022129609D
:102A2000FDF76FFE012000F06EF95FEA00094BD15F
:102A3000FDF7B6FCDFF81814DFF8F87300900C60AF
:102A40000120B96A0A689047012803D1002000F0EC
:102A5000B5F90124DFF8FC13DFF8E4A3DFF8F8236D
:102A60000E60DAF80010907808B14FF00108517844
:102A700009B148F00208107808B148F00408E87F6E
:102A800020B139680A6B4FF480609047A87F20B16D
:102A900039680A6B4FF481609047DFF89C1301207E
:102AA000086048F0200039688A699047DFF8AC1365
:102AB00001200860DFF86413087AC10709D50126F0
:102AC0001FE06FF004097FE001202860FDF724FE7D
:102AD0007AE0396ADFF888038A6890478346BBF159
:102AE000040FF6D0BBF1010F05D13A6ADFF870038D
:102AF000536803219847DFF86C030168890889004F
:102B000001600020FDF72EFEDAF800003868816BC6
:102B1000884776B9BBF1010F05D13A6ADFF8400367
:102B2000536801219847DFF83C03016841F0030135
:102B300001600120DFF81C130860404639684A69CB
:102B40009047E87F20B13968CA6A4FF480609047A7
:102B5000A87F20B13968CA6A4FF481609047B649AE
:102B6000BE4A0120086000211160032028603A68F5
:102B7000516B404688470128F9D1DAF8000004205B
:102B800000F0C1F80646B24901200860DAF80010EA
:102B9000A34908688006FCD514B1012000F00EF9A5
:102BA00000F096F9082000F0AEF8064301202860F6
:102BB0000098FDF7FDFB9B48008AFDF7A8FEFDF796
:102BC000ABFD0EB14FF0FF394846BDE8F28F38B586
:102BD0000446FDF770FA054621469048FDF711FDC1
:102BE0002846BDE83240FDF776BA3EB500240128FC
:102BF00004D020D303281CD017D31CE06846FDF76F
:102C0000F6FA864D984901948DF8004002946B467F
:102C1000012205F17800FDF7C0FA0023934A2C2128
:102C200005F19C00FDF725FA05E000F06DF904467A
:102C300001E000F02DFA20463EBD38B5FDF73BFA25
:102C40007649054691F8E000012410B1FFF72EFD0A
:102C500004462846FDF73FFA204632BD002079E0C1
:102C6000000000007047F8B56A4C6B4D03200090DF
:102C70001C23266877684FF0405200212846B84749
:102C80000120009028462468656809234FF40072EB
:102C90000021A847F1BD000010B500F02DF89847BD
:102CA000022818BF032805D1FFF7DDFFBDE810405B
:102CB0000220C2E5012802D1BDE81040D3E76C48EC
:102CC0000168C1F38150032808BF4FF47A7004D023
:102CD00002280CBF41F28830322054494F4C0A6818
:102CE000B0FBF2F104F15400FDF784FA04F1540052
:102CF000BDE81040FDF780BA5E490A6813680420F9
:102D000070470020704738B50546444C2046FDF713
:102D10005AFC88B92046FDF75CFC0446A0682842AE
:102D200005D02269E36800212846984730B920463B
:102D3000FDF751FC0400F1D1002032BD4FF0FF300F
:102D400032BD4D4901280CBF40F2FF7000200860E1
:102D50000020704770B5FDF7AEF9304D314E044696
:102D600095F8E00050B1287A410613D4FFF79EFC95
:102D700080B100F01CFB002085F8E0000220B5685F
:102D8000A84706461020FFF7BEFF012E11D10320F1
:102D9000A8470EE025490A683220B0FBF2F101B9DC
:102DA000012105F13000FDF725FA05F13000FDF7AE
:102DB00023FA2046BDE87040FDF78DB938B50128EB
:102DC00023D12C490A681368984701281DD000F0C8
:102DD000E1FA124D012085F8E000287A810616D428
:102DE000124802683221B1FBF2F404B9012405F162
:102DF0003000FDF703FA214605F13000FDF7FAF93E
:102E000005F13000FDF7F8F901E000F0F6FA0020D6
:102E100032BD0000A401001000A00C4048090020B1
:102E2000141009400C010100B03F00503C1D00206F
:102E3000211E0020B801001028200860282008402A
:102E40002C200940240A002004000940FFFFFCFC5C
:102E50000C40094000022243470A0020800104433D
:102E60000040034024220840D93100006D2F0000AB
:102E7000B43F0050E0010010000004608F0000002B
:102E80008F0001008F0002008F00030090000001FE
:102E90008F00010190000002900000038F000104E8
:102EA0008F0000058F0008048F0000048A000006D0
:102EB000510000007F0001003F0004003F000200BD
:102EC0003F0001007F000200EFF3108072B67047F0
:102ED000EFF3108062B670470138FDD1704770473C
:102EE00010B50C18FFF7F0FF411E8941C90FDFF83C
:102EF000602410680028FCD024680123136009B105
:102F0000FFF7E6FF204610BD38B5DFF848542878B3
:102F10000024002802BFDFF84014487D00280CD0B0
:102F2000FDF7C9F80146A878002806BF0122AA705B
:102F300001240846FDF7CFF80CB1002032BD022075
:102F4000FFF7E0FC0E20FFF7F2FCDFF81014086832
:102F500008B1012032BDDFF808044022C2600260DF
:102F60000120C8610020687032BD00002DE9F041E9
:102F7000DFF8EC1382B000200860DFF8E81301F1FD
:102F8000D804A07A002837D00128DFF8DC53DFF816
:102F9000DC2332D1DFF8D81316684BF2F520464314
:102FA0000868360AC0F3814001280BD1A86C01687B
:102FB000884700F03AFA00F053FA3509C01045434B
:102FC00006EBE536607B10B10021617306E0DFF8A7
:102FD000A403006820F07F4036187608DFF89803D5
:102FE0000660360C466001218160DFF86C13487D75
:102FF000002849D00521217348E0022809D115682D
:10300000284600F00CF9A5F2FF55032D3CD308200B
:103010003BE003283AD1106801F1B806A0F5C06082
:103020003168F061002948BF4942002848BF40424A
:103030008142A8BF002026DA7068D04F80B200908D
:103040000823D5F800C0DCF804804FF47F4230211B
:103050003846C047B06880B200901223D5F800C04F
:10306000DCF804804FF4F80204213846C047B06908
:1030700080B200900A232D686E684FF440622021D0
:103080003846B047012020700B202073BDE8F34183
:103090002DE9F843DFF8CC82B94EDFF8E092B94C65
:1030A000B94FAF4808F1E105E9784A1E0B2A00F252
:1030B0009280DFE802F00630415F74415F74415F47
:1030C0007B8031680A68202090470F20E06007234A
:1030D00041F61D5020614FF4C07202200090002183
:1030E000D6F804C0DCF804404846A0477668484655
:1030F000D6F80C9007234FF4C0720021C847012076
:1031000038600220E87008F17800BDE8F243FDF76E
:1031100073B8BDE8F1830120E061287800281DBF65
:103120000021396103200620E87003202060002080
:10313000786078688107E6D470684668E878032884
:1031400008D1022100910523602200214846B047A2
:1031500004200BE000200090052360220021484657
:10316000B047E87806280CBF07200A20E870012045
:103170007860C8E7042903D12021A161012105E07D
:1031800001220A29A2610CBF0321022169700021DA
:1031900021600821C160016001202060B9E7052994
:1031A0000CBF06200920E8700020E1E7002038600D
:1031B00078600C20A6E700210160012067490860C3
:1031C0000E20FFF750FB0220FFF737FB0120E870CD
:1031D0000020A8709DE7FEE762496B4891F8E42063
:1031E000921E0A2A1AD8DFE802F0060A0E190A0E01
:1031F000190A0E19120002689107FCD548E74168C8
:103200008A07FCD4FAE741688A07FCD5F6E702682A
:103210009107FCD441688A07FCD4EFE7FEE7F8B5D4
:103220000446564D30212846FFF75AFE4D4F07F110
:10323000B806C0F30720706004212846FFF750FE4F
:10324000C0F38440B06020212846FFF749FEC0F358
:103250008120B4F5C064B061346003D1002087F8E8
:10326000D800F1BD316997F8D80028B97068B16805
:10327000F060F461B0697061F06900284CBF6FF0D4
:103280000102022200EB40001018421000EB927085
:1032900001EBA0017268F260002912DC706903285A
:1032A00005D111F1150211001EDA00211CE011F107
:1032B0000B000100B8BF0021521E48BF0022F2607F
:1032C00007E01E2912DD706928B915391E29C8BF0B
:1032D0001E21032009E00B391E29C8BF1E21521CE4
:1032E0003F2AC8BF3F22F26000207061316108238D
:1032F0001D4CF06880B200904FF47F422768D7F8E9
:1033000004C030212846E04701200090112327689F
:10331000D7F804C04FF4003204212846E047306952
:1033200080B2009012232768D7F804C04FF4F80247
:1033300004212846E047706980B20090284624683E
:1033400065680A234FF440622021A847F1BD0000C0
:1033500000800C40290A00200C01010004800C4070
:103360002C500C4048090020A401001008400C40DB
:10337000B43F0050102009403C600C4000A00C40BD
:10338000A001001000400C4034600C403748006839
:1033900000F024B910B5374C626D53680121032049
:1033A00098472068C16A88473349886010BD70B566
:1033B000304C616D0A680120904701281BD0A56937
:1033C0002B48EE68002301223421B047A0B1FFF75B
:1033D000DDFF2068C16A8847274B9A6827491C6827
:1033E000D860A4EB9404801A4843000C1860A042F3
:1033F00038BF20461860012070BD38B51D4C626D85
:103400005368002103209847616D0A6801209047A6
:1034100008B1FFF7BBFF2068174DC16A8847686095
:10342000206E01688847286131BD10B501461448F7
:10343000144B02681B68100400161B394843C01067
:1034400000EB2240120601FB01F412161B06624338
:1034500061431B1600EBA220594300EBA14010BDB5
:1034600000FB00F1C0EBA15000B2704780000010DB
:1034700000A00C408C010010401D002040420F00B5
:1034800090130050A4100050DFF800F079AD011047
:1034900010B50446034BFFF7F7FFA06800B12046C4
:1034A00010BD00BF6407002001488068704700BF5E
:1034B000C801002038B504460D4600F04AF8616A9C
:1034C0000D43656200F046F82046BDE83240FCF747
:1034D00027BF020162F30F2262F31F42401810F06F
:1034E000030308D0C91A1FD3DB0748BF00F8012D1A
:1034F00028BF20F8022D130030B4144615461039A9
:1035000028BF20E93C00FAD8490728BF20E90C0071
:1035100048BF40F8042D890028BF20F8022D48BF7D
:1035200000F8012D30BC7047C91818BF00F8012DF4
:10353000CB0728BF00F8012D7047000000E005E030
:10354000EFF31180202181F31188704780F31188F7
:103550007047F5E7FAE70000F2E7F7E70000EFE76A
:10356000F4E70E49C20744BF01220A60820744BF44
:103570004FF480720A60400744BF4FF48030086007
:103580007047074AC30748BF1160830748BF5160AF
:10359000400748BF916070470000000004200940C8
:1035A00018200940DFF800F0E1BE011070B5FFF708
:1035B000C5FF094D0446A8680021FFF7F3FF064642
:1035C0006869861BA869B04238BF00262046FFF70D
:1035D000B6FF304670BD00BF7801002070B50446CC
:1035E000FFF772FC451EAD41ED0F064E3068002816
:1035F000FCD0A047012131601DB1BDE87040FFF74C
:1036000067BC70BD00800C40DFF800F089840110B9
:10361000DFF800F005840110DFF800F001C10110AF
:10362000DFF800F005C1011010B5DFF8844B002071
:10363000207082B004F1100001F02DF9A06004F1B7
:103640001C0001F028F9E0605020DFF8684B217879
:1036500001F021FE0246DFF8601B00F023FA21781A
:10366000502001F018FE0246DFF8501B00F01AFA55
:103670000FF25400DFF8381C00901523002200F0F0
:103680005FFD4FF0FF32DFF82C1C00F00BFA4FF01B
:10369000FF32DFF8241C00F005FA01F0A3FEBDE8BC
:1036A0001640002038B5DFF8144C00202070A069C7
:1036B00040B1056801F053FC2800FAD1A16900204F
:1036C0000860A06131BD0000534E500000000000B2
:1036D00000000000000000000000000000000000EA
:1036E00030B5044683B020791E2814D1608800F0DC
:1036F000FF01000A01EB0021ADF805100DF10505F1
:1037000060788DF804000095022301AA89215520D4
:1037100002F0D0F815E07F2813D160888DF8000002
:103720006B466188090A8DF80110042221898DF801
:10373000021000212089000A8DF80300202002F0E9
:103740000DF9217904F10800FFF75EFF37BD01286C
:1037500000D0704710B5DFF8644B6078122882B053
:1037600003D018280FD0FE2827D1A069D0B1872117
:103770008DF8001000228E218DF8012000F085F9CF
:10378000A088FFF78FFFA06960B141790091038A9B
:10379000C2884169C06800F093FDA06900210171F1
:1037A000406908E06078A389628821690090A06878
:1037B00000F086FD206902F0EBFD13BDF8B5DFF8DF
:1037C000C05BDFF8C06BDFF8E8791EE06069A0B18C
:1037D00060680222314602F005FE28B160680222CC
:1037E000294602F0FFFD30B960694068B0F5801FDE
:1037F000A8BF01F0B4FB00F047FA6068B0F5801F85
:10380000A8BF01F0ACFB00F03CFAB86801F064F826
:103810000400DBD101207870F1BD70B586B005469B
:103820000E4602A940F20E3002F06CFFDFF88C4A1F
:103830002178002909D0002020702878932805D10C
:1038400000202061A088FFF72DFF75E098B1607817
:10385000A168A2888DF800006B464889ADF8020087
:10386000102029788DF80410DFF8741C01F02DFD6C
:103870000020206160E06088B04254D3607808285E
:103880003FD00A2802D00C281BD04CE0A08800238F
:1038900032460B21FFF7BCFE049010B900F05BF834
:1038A0003EE000F050F8A288DFF8801C00F047F8F6
:1038B000002841D000F0D8FD012100F0E4F80B21F0
:1038C0001BE0A088002332460D21FFF7A1FE0490E3
:1038D00010B900F040F823E000F035F8A288DFF8D6
:1038E000501C00F02CF8C1B2002925D000F03AF8A5
:1038F0008DF8020000F0CBF80D2103A8FFF784FE3D
:103900001AE0A068418901910096D5F80730A28895
:10391000DFF8201C00F014FCC1B269B100F022F8FD
:103920008DF8020006E000F09FFD84218DF8000074
:103930008DF8021000F0ABF8002006B070BD03ABAC
:10394000102001F0C2BCADF80C60D5F80710049847
:103950003246FCF789BD872000218DF800008DF8E4
:1039600001107047872100228DF800108DF801208A
:10397000704700BF30B5DFF844592978002983B07B
:1039800070D00178932910D091B16978AA688DF828
:1039900000106B465189AA88ADF802100078DFF854
:1039A000401B8DF80400FFF7CBFF00F077F859E0DB
:1039B000AA88B0F80100904206D08DF80110882046
:1039C000842100F060F84DE06878122804D01828AF
:1039D00007D0FE2826D027E000202870DFF8141C2E
:1039E0001DE0AC69DFF8101CBCB1207900283BD188
:1039F0002068002818BF0446F7D135E01820009051
:103A0000238AE2886169E06800F05AFC0020207196
:103A1000606902F0BDFC012005E00020287000F084
:103A200041F801E000202870A86841680A784978C8
:103A300002EB012292B242F602139A4210D1C06800
:103A40000068297D8170AA8802806878FE2807D0E6
:103A500000911020A9684B89DFF8A01B01F035FC0C
:103A60000020286100203EBD2379002B04BF206880
:103A70000028C3D12B7000F015F8286902F088FCEB
:103A800000F00CF8D0E78DF800008DF802106B46BE
:103A9000032200214FF4004001F060BF00202861A4
:103AA000A888FFE5102001F010BC2DE9F8438046FE
:103AB00089461446872604B126700DF1010100F0F5
:103AC000B6F99DF8011019B154B18620207007E0B5
:103AD000DFF8DC767878012804D10CB186212170DA
:103AE000862040E00120787000F028F9050039D0E8
:103AF00000F0FFF80220287098F80000012802D09A
:103B0000022832D034E0DFF87C0868600120287297
:103B1000002068810820288201F020FA00286861CE
:103B200037D06A46494608F1010003F0F1FC80B342
:103B30006A699DF800101170696948606869DFF86A
:103B4000601CE860102001F0C0FBB8802A4638787D
:103B5000401C38700021B86800F0A4FE68B100264F
:103B600004B126703046BDE8F283DFF81408CCE7D4
:103B70000CB1842020708420F5E7686948B1406862
:103B8000B0F5801FA8BF01F0EAF9686908B101F03B
:103B9000E6F9284601F0E3F9E4E711B581B000F059
:103BA000CDF804001CD000F0A4F802202070DFF84B
:103BB000F40B00F060F80120208201F0CFF9606181
:103BC00060B1E06001A861690278DFF8DC0B0A707F
:103BD000224600F011F828B900F056F800F051F82C
:103BE000002016BD012016BD9DF8000028706C60F5
:103BF0002E722A46DFF8B00B8068002100F052BE1A
:103C000018B50FB481B000F099F804002ED000F080
:103C100070F802202070DFF8940B00F02CF80620DA
:103C2000208201F09BF96061F0B1E06001A9606958
:103C30000A78027002A9421C0B78137003A9821C37
:103C40000B7813704B78537004A9021D0B78137016
:103C500008A90A7800F8052F4A7842702246FFF733
:103C6000C9FF28B900F010F800F00BF8002000E0C0
:103C7000012006B010BD606001202072002060812C
:103C80007047204601F06BB9606901F068B92DE911
:103C9000F04107460E461546984600F04FF80400DE
:103CA00022D000F026F80220207007F0CF07DFF8BE
:103CB000000B60602772002060812682304601F090
:103CC0004DF9606170B1E0602A4660694146FCF7D9
:103CD000CBFBDFF8D40A80682246FFF78EFF28B9B5
:103CE000FFF7D2FFFFF7CDFF002000E00120BDE885
:103CF000F0811821FCF714BCF8B514461F4601F0FA
:103D0000CF0600F01BF8050014D0FFF7F2FF6A465B
:103D10002146384603F0FCFB040008D0FFF764FF9F
:103D200050B9B4F5801FA4BF204601F018F9284609
:103D300001F015F90020F2BD0120F2BD182001F0BC
:103D40000DB9F8B500F0CF060C461746FFF7F6FFA1
:103D5000050014D0FFF7CDFF6A463946204603F030
:103D6000D7FB040008D0FFF73FFF50B9B4F5801F20
:103D7000A4BF204601F0F3F8284601F0F0F8002037
:103D8000F2BD0120F2BD38B50546FFF7D7FF0400AC
:103D900036D0FFF7AEFF0220207005F0CF05DFF828
:103DA000140A606045F00105257200206081DFF88B
:103DB000085A28788000001D2082208A01F0CEF861
:103DC0006061D8B1011D016000216069E060606937
:103DD000001D07E0FF2220F8212000EB81030022D4
:103DE0009A70491C2A789142F4DBDFF8BC0980689C
:103DF0002246FFF702FF28B9FFF746FFFFF741FF12
:103E0000002032BD012032BD10B582B004466946A3
:103E100000F00DF89DF80000002802BFDFF88819B7
:103E20004878012802D086212170002016BD40F27A
:103E30001A3002F067BC70B582B0054687200E4686
:103E400014468DF800001CB10021A4F80110207068
:103E50006846FFF7D9FF40B9FFF7B0FC14B19DF8F1
:103E6000000020709DF8000076BDB5F80100C0B2DA
:103E7000FFF793FE10B9FFF7A1FC0BE02978A888A3
:103E8000AB1D3246FFF738FF30B9FFF797FC0CB196
:103E900087202070872076BDDFF80C090178891C07
:103EA00001704CB18288C9B28918491E00F09AF895
:103EB000A4F801100021217000218170002076BD3E
:103EC000F0B583B0044687200D468DF80400002726
:103ED000217811F0700F68D101A8FFF795FF002835
:103EE0005ED0DFF8C4682078B178014201D0862026
:103EF000FEBDC0070ED5D4F80100C11C0078022217
:103F0000FFF71FFF00284BD000F069F86980401CC4
:103F1000012730702078810710D5D4F80500C11C26
:103F200000781022FFF70DFF002839D000F057F875
:103F3000AA1C401C22F817107F1C30702078410703
:103F40000BD5D4F809000078FFF71DFF002827D013
:103F500000F04EF840F00400B0702178080710D54A
:103F6000D4F80D00B0F8051000910379428841782B
:103F70000078FFF745FE98B100F03AF840F00800ED
:103F8000B0702178080624D5D4F81100D0F8053097
:103F9000B0F80320B0F801100078FFF778FE40B9C0
:103FA000FFF70CFC9DF80400FEBDFFF707FC842022
:103FB000FEBD3078B188401C3070FFB2C0B24018EE
:103FC00000F0B7F8A91C21F81700B07840F0800085
:103FD000B07000212970207868700020FEBD307814
:103FE000B188411801F0FF0201F47F418918704740
:103FF0003078B188401C3070FFB2C0B24018401E0B
:1040000000F0FF0100F47F404018A91C21F81700C0
:104010007F1CB07870472DE9F04784B00546002436
:104020000DB9842076E0A5F80140A5F8034087206B
:10403000287002A9FFF7FBFE9DF80800002802BFC8
:104040005B4F7878012803D086212970862061E0B3
:10405000102000F083FF060068D03878000100F0DF
:104060007DFF5FEA000A5ED03878800000F076FFBE
:104070005FEA000801D1504653E0C6F800A0C6F838
:104080000880B888B081397831710818401EF081F5
:1040900013E0B888201828F8240008EB8401B9F848
:1040A00010004880102249460AEB0410FCF7DCF9A6
:1040B0004846641C00F053FFA4B2B86800F00CFC42
:1040C0005FEA0009E5D1F8683246FFF796FD20B3B4
:1040D000B88800F0FF01020A01EB0221A5F80110E7
:1040E00052463B78181800F024F8A5F80300102178
:1040F0000020787000910FF2E060DFF8C0160190A8
:1041000000F01EF82870287808B1FFF757FB00214F
:104110003970287804B0BDE8F087504600F01FFFE2
:10412000404600F01CFF304600F019FFFFF746FB49
:10413000EFE7401E00F0FF0100F47F404018704799
:10414000102001F0C2B8F8B5DFF85C760446F868D4
:104150000E461546FFF760FA01E0FFF761FAF968CD
:10416000884223D0826893899C4224BFD189A1428E
:10417000F3D3106891681279C0B10023934215DA25
:104180001F0100EB070CBCF80AC0A44504D100F1E4
:104190000C0C5CF80770376031F82370A74203D12C
:1041A00001EB83077F882F805B1CE7E70020F2BDCF
:1041B00094180020000600206D19010031810110C3
:1041C00030B583B0002301930C46154600886A463B
:1041D00001A9FFF7B8FF38B90198C4F80300BDF88A
:1041E0000000288000203EBD88203EBD7CB50546ED
:1041F000002001900E46144628886A4601A9FFF760
:10420000A2FF98B9BDF8000008B9862076BDB0427B
:1042100001D2842076BDD5F8021001983246FCF711
:1042200023F92888A4F80100002076BD882076BDF7
:104230002DE9FE430C9C0A2C1CBF0C2C082C81463B
:10424000884631D1874F387870BB0B9D0A9E01A9F3
:1042500040F20E3002F056FAB8F80A0000F0FF0201
:1042600001A9000A02EB002206F0FF00360A00EB6B
:10427000062088804A8005F0FF00290A00EB012013
:10428000ADF80A000823012038707D8001A87C70F9
:104290000090A7F80490C7F80880002287215520D5
:1042A00001F008FB162400E011242046BDE8FE833F
:1042B00045B9000059150100911601007818002039
:1042C0002DE9F047074684B078680C0090460278E4
:1042D00041781E4602EB012A4FD0072000F03EFE37
:1042E00005004AD0DDF83090294640F20E3002F049
:1042F00009FA7889A87042F602117889000AE870F4
:104300001FFA8AF088421FD15648012101700461CA
:10431000A0F8028080F80190868187602971691D6C
:1043200022780A7062784A70217801754178FE29F6
:1043300004BF006900F013FE0095072300228B21C3
:10434000552001F0B7FA12E0B9F1520F0CBF00206E
:10435000012028716E710723360AAE710294CDF8E0
:104360000480009500228821552001F0C3FA2846D8
:1043700004B0BDE8F04700F0F2BDBDE8FF870000E3
:10438000E8EF0000E4EF00002DE9F04F83B09A461B
:104390000C9E0AEB060340F20124A342A8BF18209A
:1043A0005EDA304F3B78012B08BF0E2058D00D9DB0
:1043B000BC69122D91468846834607D0162D26D01B
:1043C000182D0CD0522D17D0FE2D10D13CB100F07D
:1043D0004BF88E21FFF757FBB888FFF763F901957B
:1043E000009653464A464146584600F042F8522D40
:1043F0000CBF0020162033E0009533465246494654
:104400004046FFF75DFF484601F0C2FFEFE71CB1F1
:1044100000F068F8206002E0FFF790FCB86168B136
:1044200000210160C0F8149001210171A0F806A0DC
:104430000682C0F80C80A0F808B0D8E787208DF875
:10444000000000218DF802008DF801106B46032258
:104450004FF4004001F082FAB888FFF723F91320E7
:10446000BDE8FE8F7818002000218DF8011087200C
:1044700070472DE9F047DFF84873089DBC69064690
:104480008A469046994674B100F02CF820600021CD
:104490000160C0F8148001210171A0F80690058226
:1044A000C0F80CA006810120099C3870FE2C08D1B0
:1044B000484600F053FD38614A464146FBF7D4FFB9
:1044C00001E0C7F81080A7F802907C70BD81C7F8A2
:1044D00008A0BE800121BDE8F047022001F0BDB96F
:1044E000398E011000E0044620680028FBD1182016
:1044F00000F034BD10B582B00B4601780129144696
:1045000002D0022907D00CE0811C00914278AD490D
:10451000FFF716FE06E0821C4078D9B200F072FF69
:1045200000E089202070207816BD00002D8F01103A
:10453000518F011061F7000010B50C460021118069
:10454000C4F8021041786170017821700178012966
:1045500002D0022927D048E04078082811D8DFE8A7
:1045600000F005070D090B0D0D0D0D00152006E0DF
:10457000022004E0062002E0082000E00120108074
:1045800003E011888420002933D0108800F0E6FC75
:104590000300C4F8023026D062788B49102000F066
:1045A00094FEC0B21BE0407828B1401E062806D910
:1045B000C01F02D006E0082002E0072000E015201E
:1045C000108002E01188842099B1108800F0C6FCA8
:1045D000C4F8020038B10146607800F099FF022863
:1045E00007D1842010BD872010BD00218920C4F888
:1045F000021010BDED8F01102590011015F700007D
:104600002DE9F04F064685B07079002410F0030FB5
:104610001CBF00F003000328894600F0BA806249FD
:10462000C868FEF7F9FF824642F6030B03E05046E6
:10463000FEF7F6FF82465C48C1688A4563D0DAF827
:104640000800B6F802808189884524BFC1894145A8
:10465000EDD301680279002500E004469542E6DAD0
:1046600001EB05106D1C43894345F7D150F80C3D13
:104670001F785B7807EB03239BB25B4508D180680A
:104680007379007813EA201F04D0AC46204609E075
:1046900083206EE090206CE05C4532D00028DCD1B5
:1046A0000CF1010C9445D8DA4FEA0C1E0C1D54F89D
:1046B0000E703C787F7804EB0724A4B242F6021710
:1046C000BC42E9D1044601F10C004FF0000C50F857
:1046D0000E00006801E00CF1010C374F3F785FFAE3
:1046E0008CFEBE4557D25FFA8CFC30F82CE0378840
:1046F000BE45F0D1801C10F82C0018424DD001248A
:10470000ACE7912035E00CB9882032E0308802AB6C
:104710004FF6FF721B21FEF77BFF049008B987203C
:1047200027E07088ADF80C004A46BDF808009042BA
:10473000B4BFBDF808901FFA89F9ADF80E90B8BF64
:10474000BDF808200498B11DFBF78EFE7079C107F3
:1047500012D530791D49009003AB3288102000F04B
:10476000B4FD0446C0B218B11B2103A8FEF74CFFEC
:10477000E0B205B0BDE8F08F80070AD51448017893
:10478000502000F088FD019003AB30791149009072
:10479000E3E78420EDE7002CB2D18F20E9E70000A9
:1047A000B9070110F0EF00009418002004F0000099
:1047B000F8EF0000FCEF0000694F002095120100A7
:1047C0007818002045B900002D0E010045000110A9
:1047D00000060020CDFF0010314200008943000098
:1047E00000000000DFF800F055A40110DFF800F031
:1047F00035BD0110DFF800F019BD0110DFF800F041
:10480000A1B601102DE9F04389B0804689461746CC
:104810001D46109C119E0823242200216846FBF7A8
:1048200099FC344906964FF47A700A68B0FBF2F0AE
:10483000454305954743ADF810406B463A46494617
:104840004046FBF797FC404609B0BDE8F08338B519
:1048500004460D46FBF7B5FE10B12046FBF77EFC83
:1048600000F00EF82046BDE83240FBF77FBC80B573
:10487000FBF7A7FE00B10120C0B202BDFBF76EBC82
:104880001C4A10684FF47A71B1FBF0F04543294699
:104890002046FBF767BC10B504460021FFF7AEFFCA
:1048A000204610BD70B505460C4616460C2000F09B
:1048B00055FB01000BD08E602846FFF797FF24B10F
:1048C0004FF080412046FFF78DFF012070BD30463C
:1048D00000F045FB002070BD10B50446FFF78AFFCD
:1048E000A04204D0846800F03AFB204610BD0020AE
:1048F00010BD0000D4190100DFF800F021C0011044
:10490000DFF800F02DB40110DFF800F0CDAC01109D
:10491000DFF800F02DC00110DFF800F0F99B011066
:10492000DFF800F0FDB1011020B108233C22002186
:10493000FFF7E2BF704780B5FBF772FEADF80000ED
:10494000FBF77CFBADF80200009802BD01B5BDF895
:104950000200FBF777FBBDF80000BDE80240FBF763
:1049600063BE38B5DFF83C4A2078012832D0DFF842
:10497000382ADFF8380A92089200801A2063012151
:104980002170E262104602E0002340F8043B236BF2
:104990009D18A842F8D39B0802EB8301002041F840
:1049A000040CE8201060206B80088000EC38C2F80E
:1049B000E80002F1E800A060002000F00CF8E060E0
:1049C000E06AA0600220A061606100206080206B2E
:1049D000001FA06231BDF8B500250026071D17F0A5
:1049E00003001CBF391D0F1AFFF7A5FFDFF8B4291C
:1049F00001465160112F34BF9468D46820680028A4
:104A000003D580F00040002619E0330013D053692D
:104A10005B1E536193695B1E9361D4F800C02B68E1
:104A20006344BB422B600AD32C4618466CB95088AD
:104A3000401C508043E0B842F8D201262546044489
:104A400020680028DBD10024F1E7C01BD36A0428CA
:104A500018D3E05147F00040206050691569401CB0
:104A60005061854238BF1061D0693818D061E019B3
:104A7000C31A506A984238BF18465062906AC71BE2
:104A8000976216E0D569206845199069D561401E86
:104A900090612568506A2544EB1A984238BF184641
:104AA0005062936A20681B1A9362206840F00040AD
:104AB0002060D069136A834238BF1062241D00F061
:104AC000E6BB10B50446FFF736FFDFF8D828506084
:104AD00054F8041C21F0004144F8041CD369591A0D
:104AE000D1619169936A491C916154F8041CCB18F7
:104AF0009362211F9368994238BF9160BDE81040CE
:104B000024E72DE9F04182B0FFF715FFDFF8941894
:104B1000CA68486000260027002400250AE00C46E9
:104B20000127164605E03B00F9D03368CB18336007
:104B30000C190A441168A846A54238BFA0460029AE
:104B400005D0F0D581F0004100274546F1E7FFF799
:104B5000FDFE4046BDE8F68110B50446DFF8440886
:104B6000016B2160806A6060FFF7CBFF09282CBFD2
:104B700008380020A06010BD80B5FFF7F2FE4BF6AC
:104B8000BE2002BD084626E708469AE702B56846F9
:104B9000FFF7E2FF01BD0120704770B50446FFF743
:104BA000CAFE0022DFF808580C265643A95921B145
:104BB0008C4203D0521C042AF6D334E1FFF7C6FE20
:104BC000A81970BD70B582B00546FFF7B4FE044663
:104BD00000210C22DFF8D8074A438618306848B114
:104BE000854210D0491C0429F3D32046FFF7AEFEBE
:104BF000002076BDB06035600021FFF781FE706057
:104C000008B902F009FF2046FFF7A0FE304676BD46
:104C100038B50446FFF78FFE0025DFF898270C21F2
:104C20006943515A21B18C4206D06D1C082DF6D330
:104C3000FFF78CFEFF2032BD25E310B50446208827
:104C4000FFF7E6FFFF2802D14FF0FF3010BD0C2127
:104C5000DFF8602748431044816811B96FF0010004
:104C600010BD2046BDE81040084702460FF26870AC
:104C7000104710B500200C21DFF83427002401FB79
:104C800000F3401CD450134404289C60F7D3002048
:104C9000DFF82027002301FB00F4401C13530828F1
:104CA000F9D3BDE810405CE62DE9F04790B08146AD
:104CB0008846FBF7B5FC05460027DFF8FC6647454C
:104CC0001FD26846FFF730FE09EB071041680691D6
:104CD000816808916946026804920022C0680590C4
:104CE0003046FFF711FE040011D0FFF724FE824684
:104CF0002046FFF767FF50B15046FFF727FE7F1CA5
:104D0000DDE72846FBF790FC10B0BDE8F08702F025
:104D100083FE00BF00B585B06846052141604FF4B1
:104D20007A718160DFF89426DFF894160091C260F2
:104D30000121FFF7B9FF05B000BD38B504460D46A7
:104D4000FFF7F9FD002145F80C1C226812B9256017
:104D500006E00A4652F80C1C0029FAD142F80C5C15
:104D6000BDE83240F2E580B5FFF7D2FDFFF715FF51
:104D700010B96FF0040002BD816809B9022002BDBC
:104D80004068B1E0082881B00ADA0C225043DFF80D
:104D90002426105A00281CBF4FF6F872904202D108
:104DA0004FF0FF3001E00880002001B0704730B5BF
:104DB000DFF810562A680C464FF47A71A1FB000107
:104DC000002302F02DFE002399424FF0004201D84B
:104DD000904202D36FF0020030BD2060002030BD51
:104DE000014688684968084770B505460E46FFF7D2
:104DF0008FFDFFF7E7FE040009D0FFF79CFD014699
:104E0000002200F0A4F820B1521C082AF9D302F0C5
:104E100003FE4FF6F87018805C60002098602A70DE
:104E2000606830600846FFF791FD002070BD0C38C7
:104E300047E670B5044615461E460846FFF7E8FEED
:104E4000FF2802D14FF0FF3070BD014633462A469D
:104E50002046BDE8704084E070B582B00546164635
:104E600000F0A1F8040010D128886946C0B2FFF70D
:104E700089FF28B13068FFF7DAFF6FF0050076BDD3
:104E8000BDF800002880FFF76EFF204676BD38B5DC
:104E90000546FFF73DFDFFF780FE044602F038FEB1
:104EA000002818BF012800D014B96FF0040032BDEB
:104EB00065B900200090009B60684FF0004200211F
:104EC000FFF72AFD401E8041C00F32BD15F1010FD2
:104ED00008BF4FF0FF30EDD069462846FFF767FF67
:104EE0000028E8D032BD80B54FF00041FFF77AFCD2
:104EF000002002BD2DE9F84305460E4617469846A8
:104F0000FFF706FDFFF75EFE04006FF002091CD0FC
:104F1000FFF711FD0146002200F019F840B185426B
:104F200011D0521C082AF7D302F076FDBDE8F283B7
:104F30001D805C609E603A706068C8F8000000F0F8
:104F400081F90020F2E700F07DF94846EEE70C23F6
:104F5000DFF8600453430344188870473BE5B0E52D
:104F6000FAE52DE9F8430E46082EBCBF0446082C8E
:104F7000154698466FF0020906DAFFF7DCFC00F0F0
:104F800009FA19B9FFF7E2FC48460AE0FFF7DEFC30
:104F900000F0F6F9786840684FF00041FFF722FC16
:104FA0000020BDE8F2832DE9F04106460F46904609
:104FB000FFF7AEFCFFF7F1FD050008BF6FF004003E
:104FC0001BD0FFF7B8FCA968002441B10C46A4F13E
:104FD0000C010A68AA6000220A60FF228A72FFF7A9
:104FE000B5FC0CB9022008E0A4F10C000179317085
:104FF00040793870C8F800400020BDE8F08182B0E8
:1050000001218DF800109DF800000028FBD102F06E
:1050100003FD00BFFBF7BABA10B5DFF8A8030268BA
:105020006FF00044A4FB020100234FF47A7202F0F7
:10503000F7FC002399424FF0004201D8904200D380
:10504000204610BD70B582B00C4615461E46694616
:10505000FFF7ADFE30B9009833462A46214600F0EE
:1050600002F8002076BD2DE9F0431D4689B02C687A
:1050700080460E4617462CBB0C20FFF7ACFC040004
:105080006FF0030918D00823242200216846FBF79B
:1050900061F80020ADF810000590069400236A46E0
:1050A0004146DFF82403FFF73BFC206030B9FFF7EF
:1050B000A6FF2046FFF705FD484617E06660A7609B
:1050C0002C600BE0DFF804633068804705462068F9
:1050D000FBF744F8A7602846716888472068414676
:1050E000FBF740F82068FBF741F8002009B0BDE865
:1050F000F08300281CBF0068FBF730B8704700B58C
:1051000083B08DF80400684602F032FD9DF805007A
:105110000EBD00B583B00190684602F05FFD0EBD84
:1051200000B583B00190684602F062FD0EBD2DE926
:10513000F04385B00446884616461F46FFF7E8FB55
:10514000FFF72BFD05460020029002F0E1FC00284D
:1051500018BF012800D015B96FF004006FE044B902
:1051600000200190FBF712FA814601980124814446
:1051700025E014F1010F08BF4FF0FF30F1D001A975
:105180002046FFF714FE0028ECD058E0039902A84F
:10519000FFF7D3FD68684FF00051FFF723FB01993B
:1051A000012411F1010F0AD0080008D0FBF7EEF935
:1051B000B9EB00002ED0019981422BD30190019BC5
:1051C00068684FF000520021FFF7A6FB10B303AA56
:1051D00069460DF10100FFF7E6FE0400DFD19DF8FE
:1051E00001000DF10201FFF7CDFD0028CED1039A99
:1051F0009DF80010BDF80200C0470028C6D016B1C7
:10520000BDF80200308017B19DF8000038700C988E
:1052100003990160FFF7A7FD029EFFF78CFB014693
:1052200056B1324600E0024652F80C0C0028FAD182
:10523000A86842F80C0CAE6000F004F8204605B0F7
:10524000BDE8F0830846FFF781BB38B5FFF760FB88
:10525000044602F05DFC002818BF012811D0FFF7BA
:105260006AFB0025534A0C236B43D15A39B1D1183C
:105270004B681968A14206D06D1C082DF3D3FFF7C7
:1052800065FBFF2032BDFFF761FBE8B232BDFFF7DF
:10529000D9FF2046F2BD00B583B0ADF800008DF80F
:1052A000061000204A490A68ADF802006846904797
:1052B00010B99DF807000EBDFF200EBD10784228E2
:1052C00001D101207047002070470CB470B504462E
:1052D0000E4688B002F01CFC0CAD002814BF01285B
:1052E000FFF78DFE1420ADF810000021FF20029181
:1052F0008DF8120006960595FFF7A7FF05AB032270
:105300002146FFF796FD002001A90190009100239E
:105310000022304941F28830FFF709FF012805D00B
:1053200020B9019820B1FFF782FD01E0FFF767FE89
:105330000598006808B070BC5DF80CFB2DE9F843D7
:105340000E46082EBCBF0446082C154698466FF042
:10535000020906DAFFF7EFFA00F01CF819B9FFF7B7
:10536000F5FA48460AE0FFF7F1FA00F009F8786824
:1053700040684FF00051FFF735FA0020BDE8F28396
:10538000A8F10800414604704670857078680830BE
:10539000FFF7D3BC0C21074A01FB06F7D719796840
:1053A00070470000DC130020301E0020FF3F00206B
:1053B0004C1300207C1300206B4C00007404002070
:1053C0009D100100D4190100E14D00004C040020A3
:1053D00054040020BD5200003B4C0000374900003F
:1053E0004D49000000B583B00FF26020944A01904F
:1053F00010210091132393491020FFF766FFC0B2DC
:105400000EBD00002DE9F0420027082882B00D46AD
:1054100091468D4E00F27780DFE800F0050C1824ED
:10542000303C48546A00082D6BD10822494606F1E9
:10543000080063E0152D64DA152106F1100002F072
:10544000E7FB2A46494606F1100057E0152D58DAC9
:10545000152106F1280002F0DBFB2A46494606F139
:1054600028004BE0152D4CDA152106F1400002F022
:10547000CFFB2A46494606F140003FE0152D40DAB1
:10548000152106F1580002F0C3FB2A46494606F1F1
:10549000580033E0152D34DA152106F1700002F0C2
:1054A000B7FB2A46494606F1700027E0152D28DA99
:1054B00006F188041521204602F0AAFB2A46494637
:1054C00020461BE02846FFF749FD04000ED0706817
:1054D00006F1A001884218BFFFF741FD2A46494660
:1054E0002046FAF7C1FF746035700DE013270BE01A
:1054F000072D06D10722494606F1B000FAF7B4FF9E
:1055000002E0182700E002273846BDE8F6820000D6
:1055100010B500240B4608284B4928D8DFE800F0D6
:10552000050C0F1215181B1E210001F1080001685F
:105530001960416859601BE01422103113E01422F5
:10554000283110E0142240310DE0142258310AE0D5
:105550001422703107E01422883104E00A78496887
:1055600001E00722B0311846FAF77EFF00E002247E
:10557000204610BD2DE9F047914682B04A68107868
:1055800052780A9CDDF82C80DFF8BCC000EB0220CA
:10559000002680B242F623221D462746801A0CEBD5
:1055A000070307D0401E052811D9801F20D02638B8
:1055B0002ED040E0082F2DD8C7F10807B84534BFDA
:1055C0004446C4F108042C8003F108012EE0D1F810
:1055D0000CA0504602F020FB80B2B8421ADBC11B7F
:1055E0008845B4BF4446041B2C800AEB07011DE02C
:1055F0009CF800000146A1420CD3C01B8045B4BFFB
:1056000044460C1B2C80DCF804002A88C1190EE0EB
:10561000082F01D3072610E0C7F10707B84534BFAC
:105620004446C4F107042C8003F1B0012A8848469F
:10563000FAF71AFF01E02E800A263046BDE8F68709
:105640001C03002095120100640200207555000023
:105650000000000000000000DFF800F04FBF011064
:10566000DFF800F019AE011000B58FB008233C221E
:1056700000216846FFF740F9DFF8880700F1500184
:10568000079140F2EE2201210892069100236A461A
:105690000FF25D01FFF7E4FF0FB000BD10B5DFF8BA
:1056A000684704F10C012046FFF79EFB0FF2CD1175
:1056B000152002F014FC21785020FFF7ECFD024683
:1056C000DFF848171020FFF700FE04F12400FFF771
:1056D000E2F8206102F010FDFDF7A6FF0020207126
:1056E0001020BDE81040DFF82817FFF7EEBD0000DE
:1056F00010B5DFF8204782B02146002002F053FBAE
:105700000C20A06040F25A2140F2122060802180DB
:105710000020172160736160204602F05FFB0020CB
:10572000FFF7BCFF0020009000230022012155203C
:1057300000F0C0F8DFF8D006C0684FF0FF334FF03C
:1057400040420021FFF7E8F80028F3D000F001F80C
:10575000F0E7F0B583B00020019001AA0DF102013D
:105760006846FFF779FBDFF8A05618BBBDF80000CC
:10577000102802BF9DF80210287881420FD10198AD
:105780000178912909D0922904D0B02908BFFDF7EA
:10579000A7FF04E000F05BF801E000F04BF801988F
:1057A00040B1FFF744FB05E0607802F00BFE2046B5
:1057B000FFF7D5FB2869FFF74FFF80BB2869FFF78C
:1057C0008BF80400F6D020780128EDD0022822D0F2
:1057D0001028ECD16668F0788209112A20D2032AB9
:1057E0001EBF05EB82014969002919D0002300E0A2
:1057F0005B1C05F1080717F802C0DFB267450FD23E
:10580000DBB231F83370B842F2D101EBC30130465C
:105810004A68904707E06078FDF799FFC7E7F7BD52
:10582000304600F038F9304602F08DFBBFE7014604
:10583000012012E041780E2903D0102902D0FF295F
:1058400004D146E10021082003F04EB970474178A9
:105850000E2908BF00F03DB9704738B504460D4623
:105860000820FFF77BFB38B10470457000F01CF88E
:10587000BDE83840FFF716B831BD000010B504464A
:105880000820FFF76BFB50B110210170002141701F
:10589000446000F009F8BDE81040FFF703B8204667
:1058A000BDE8104002F04FBB0246DFF85C35D96816
:1058B000186970472DE9F0478046894616469A4692
:1058C000002406B1012404EB0A07B8B202F02EFB53
:1058D00005000DD02F8085F8028085F8039014B163
:1058E00069683078087052466868089920442EE04C
:1058F000BDE8F0872DE9F04781468A46164698466E
:10590000002406B10124099F04EB0800381880B276
:1059100002F00CFB050018D007EB080020182880C7
:1059200085F8029085F803A014B169683078087092
:10593000424668680A9E08992044FAF795FD68680F
:10594000A0443A463146404401E0BDE8F087FAF70A
:105950008BFD2846BDE8F04702F0A2BA2DE9F843D6
:105960000646DFF8B4048946018800250E42174632
:10597000984637D1B9F1000F0AD0F81C80B2FFF772
:10598000EDFA04001AD099F80010A170012505E085
:10599000B81C80B2FFF7E2FA04000FD02670360A76
:1059A0003800667005D060193A464146801CFAF707
:1059B0005BFD7F19BF1C0094BBB209E00220FFF71A
:1059C000CDFA04000ED02570802060700094022370
:1059D000002205215520FFF76DFF2046BDE8F24368
:1059E000FFF7BDBABDE8F183E0B501A803F096F872
:1059F00001A9009106230022102109E000B583B01F
:105A000001A803F095F801A90091042300220621C2
:105A10005520FFF74FFF07BD00B585B001A803F083
:105A2000A2F80DF1050100910C2301AA032103E363
:105A300000B583B001A803F0C3F801A900910423C5
:105A4000002208217520E4E700B583B000F01CFBBC
:105A5000ADF8061001A9BDF80600ADF804000DF17F
:105A6000060003F0B3F801AA0092022300220221EB
:105A70007520CEE71CB544680088811E89B2204697
:105A800003F0A8F816288DF8040003D00094022330
:105A900000F081F913BD00B583B081788DF8041052
:105AA00001A9C2784A7086228A708078400901284C
:105AB00007D1002100910023002207217520FFF764
:105AC000F9FE01AB032200214FF40040FFF746FF2F
:105AD00007BD30B587B083218DF8041041F2090469
:105AE0008288C949131B26D04FF47F741B1B37D003
:105AF00040F6FE341B1B00F02081143B00F0E980CF
:105B00009B1F012B46D99B1E5ED04DF6E2341B1B1A
:105B1000012B04D91B1F00F0C4809B1E072B40F2F1
:105B2000A4800A3BFBD0DB1E64D09B1FF7D09B1FD9
:105B300000F0E48015E1092200F023F902BFCC88CF
:105B40008288944213D100F030F908D100238DF8F7
:105B5000043006228168491C00F005F90823E7E0BB
:105B6000052200F004F902BFCD888288954240F0FA
:105B7000DC8000F014F9F2D1491C0AD08DF8042021
:105B8000052381684A78A2700021E1708068C1789D
:105B90002171CDE08DF808208288120A8DF8092045
:105BA0000A79012A02BFCB888288934206D100225B
:105BB0000A71806801788DF8041002E08C228DF85B
:105BC000042002A800906AE01F2200F0D0F802BF73
:105BD000CD88828895426BD100F0E1F809D1491C4B
:105BE00007D08DF80420042380684178A17000203C
:105BF000E0709DE014228DF8082002AA83881B0A19
:105C000053700B79012B02BFCC8883889C4228D12A
:105C100000230B71816889788DF80410002919D14F
:105C20008368D978917081680B79D37000211171E4
:105C300081688B7953710021917181680B7A8DF89D
:105C40000F30002111720B238068817A517200207D
:105C5000907203E08068C1789170032302A80090DD
:105C600068E08C208DF804007BE08DF806208288A7
:105C7000120A8DF807200A79012A02BFCB88828890
:105C8000934206D100220A71806881788DF8041051
:105C900002E08C208DF804000DF106010091022332
:105CA00048E0052200F06DF802BFCC88828894425B
:105CB0003BD100220A7182689178002938D10022F4
:105CC0008DF8042011228068811C00F04CF8132309
:105CD0002EE0172200F055F802BFCC88828894424B
:105CE00023D100F062F823D100238DF80430102274
:105CF0008068411C00F037F8122319E0202200F0E0
:105D000040F802BFCC88828894420ED100220A71EA
:105D10008268917861B900228DF804200C22806895
:105D2000C11C00F020F80E2302E08C208DF8040046
:105D300002A9009100F02FF813E08168087880B97B
:105D400002A851F8012F02604A683449426002AA51
:105D50009DF8080000F0FD008DF808001020FFF706
:105D6000B4FA07B030BD0DF10A00FAF77DBB8DF82B
:105D7000082002AC8288120A627002230A79012A82
:105D800070478DF80820022384880A79240A8DF848
:105D90000940012A704701AA042155208AE5002202
:105DA0000A7181680A78002A704700220A718268A5
:105DB00011780029704700B585B000218DF80010DA
:105DC000426811788DF8041000F0DBFAADF8052078
:105DD00000F0D1FAADF8072011490A788DF80920B2
:105DE0004068417B8DF8111001A802F056FB8DF838
:105DF000000028B10023002269460820FFF7AEFD0D
:105E000005B000BD041500200006002051880110D7
:105E1000C5AB001044180020141E002095B40010DB
:105E20003A07002002F0D4BB00B585B041680A787B
:105E30008DF8082041684A1CCDF809200188491EC8
:105E4000C9B202A802F0FCFB00F09BF843215520E8
:105E5000F3E000B585B000F058F841688A78C97859
:105E600002EB0122ADF80A2041680A79497902EB78
:105E70000122ADF80C2041688A79C97902EB012230
:105E8000ADF80E204068017A407A01EB0021ADF8B0
:105E9000101002A802F01DFC8DF804000223BDF8CA
